{
  "contractName": "BeldexETH",
  "abi": [
    {
      "inputs": [
        {
          "internalType": "address",
          "name": "_transfer",
          "type": "address"
        },
        {
          "internalType": "address",
          "name": "_redeem",
          "type": "address"
        },
        {
          "internalType": "uint256",
          "name": "_unit",
          "type": "uint256"
        }
      ],
      "stateMutability": "nonpayable",
      "type": "constructor"
    },
    {
      "anonymous": false,
      "inputs": [
        {
          "indexed": false,
          "internalType": "string",
          "name": "label",
          "type": "string"
        },
        {
          "indexed": true,
          "internalType": "uint256",
          "name": "value",
          "type": "uint256"
        }
      ],
      "name": "LogUint256",
      "type": "event"
    },
    {
      "anonymous": false,
      "inputs": [
        {
          "components": [
            {
              "internalType": "bytes32",
              "name": "x",
              "type": "bytes32"
            },
            {
              "internalType": "bytes32",
              "name": "y",
              "type": "bytes32"
            }
          ],
          "indexed": false,
          "internalType": "struct Utils.G1Point[]",
          "name": "parties",
          "type": "tuple[]"
        }
      ],
      "name": "TransferOccurred",
      "type": "event"
    },
    {
      "inputs": [],
      "name": "MAX",
      "outputs": [
        {
          "internalType": "uint256",
          "name": "",
          "type": "uint256"
        }
      ],
      "stateMutability": "view",
      "type": "function",
      "constant": true
    },
    {
      "inputs": [],
      "name": "balance_log",
      "outputs": [
        {
          "internalType": "uint256",
          "name": "",
          "type": "uint256"
        }
      ],
      "stateMutability": "view",
      "type": "function",
      "constant": true
    },
    {
      "inputs": [],
      "name": "beldex_agency",
      "outputs": [
        {
          "internalType": "address payable",
          "name": "",
          "type": "address"
        }
      ],
      "stateMutability": "view",
      "type": "function",
      "constant": true
    },
    {
      "inputs": [],
      "name": "deposits_log",
      "outputs": [
        {
          "internalType": "uint256",
          "name": "",
          "type": "uint256"
        }
      ],
      "stateMutability": "view",
      "type": "function",
      "constant": true
    },
    {
      "inputs": [
        {
          "components": [
            {
              "internalType": "bytes32",
              "name": "x",
              "type": "bytes32"
            },
            {
              "internalType": "bytes32",
              "name": "y",
              "type": "bytes32"
            }
          ],
          "internalType": "struct Utils.G1Point",
          "name": "y",
          "type": "tuple"
        }
      ],
      "name": "getAccountState",
      "outputs": [
        {
          "components": [
            {
              "internalType": "bytes32",
              "name": "x",
              "type": "bytes32"
            },
            {
              "internalType": "bytes32",
              "name": "y",
              "type": "bytes32"
            }
          ],
          "internalType": "struct Utils.G1Point[2]",
          "name": "y_available",
          "type": "tuple[2]"
        },
        {
          "components": [
            {
              "internalType": "bytes32",
              "name": "x",
              "type": "bytes32"
            },
            {
              "internalType": "bytes32",
              "name": "y",
              "type": "bytes32"
            }
          ],
          "internalType": "struct Utils.G1Point[2]",
          "name": "y_pending",
          "type": "tuple[2]"
        }
      ],
      "stateMutability": "view",
      "type": "function",
      "constant": true
    },
    {
      "inputs": [
        {
          "components": [
            {
              "internalType": "bytes32",
              "name": "x",
              "type": "bytes32"
            },
            {
              "internalType": "bytes32",
              "name": "y",
              "type": "bytes32"
            }
          ],
          "internalType": "struct Utils.G1Point[]",
          "name": "y",
          "type": "tuple[]"
        },
        {
          "internalType": "uint256",
          "name": "round",
          "type": "uint256"
        }
      ],
      "name": "getBalance",
      "outputs": [
        {
          "components": [
            {
              "internalType": "bytes32",
              "name": "x",
              "type": "bytes32"
            },
            {
              "internalType": "bytes32",
              "name": "y",
              "type": "bytes32"
            }
          ],
          "internalType": "struct Utils.G1Point[2][]",
          "name": "accounts",
          "type": "tuple[2][]"
        }
      ],
      "stateMutability": "view",
      "type": "function",
      "constant": true
    },
    {
      "inputs": [
        {
          "components": [
            {
              "internalType": "bytes32",
              "name": "x",
              "type": "bytes32"
            },
            {
              "internalType": "bytes32",
              "name": "y",
              "type": "bytes32"
            }
          ],
          "internalType": "struct Utils.G1Point",
          "name": "y",
          "type": "tuple"
        }
      ],
      "name": "getGuess",
      "outputs": [
        {
          "internalType": "bytes",
          "name": "y_guess",
          "type": "bytes"
        }
      ],
      "stateMutability": "view",
      "type": "function",
      "constant": true
    },
    {
      "inputs": [],
      "name": "last_global_update",
      "outputs": [
        {
          "internalType": "uint256",
          "name": "",
          "type": "uint256"
        }
      ],
      "stateMutability": "view",
      "type": "function",
      "constant": true
    },
    {
      "inputs": [
        {
          "internalType": "bytes32",
          "name": "",
          "type": "bytes32"
        }
      ],
      "name": "last_roll_over",
      "outputs": [
        {
          "internalType": "uint256",
          "name": "",
          "type": "uint256"
        }
      ],
      "stateMutability": "view",
      "type": "function",
      "constant": true
    },
    {
      "inputs": [],
      "name": "mint_count_log",
      "outputs": [
        {
          "internalType": "uint256",
          "name": "",
          "type": "uint256"
        }
      ],
      "stateMutability": "view",
      "type": "function",
      "constant": true
    },
    {
      "inputs": [],
      "name": "redeem_fee_denominator",
      "outputs": [
        {
          "internalType": "uint256",
          "name": "",
          "type": "uint256"
        }
      ],
      "stateMutability": "view",
      "type": "function",
      "constant": true
    },
    {
      "inputs": [],
      "name": "redeem_fee_log",
      "outputs": [
        {
          "internalType": "uint256",
          "name": "",
          "type": "uint256"
        }
      ],
      "stateMutability": "view",
      "type": "function",
      "constant": true
    },
    {
      "inputs": [],
      "name": "redeem_fee_numerator",
      "outputs": [
        {
          "internalType": "uint256",
          "name": "",
          "type": "uint256"
        }
      ],
      "stateMutability": "view",
      "type": "function",
      "constant": true
    },
    {
      "inputs": [
        {
          "components": [
            {
              "internalType": "bytes32",
              "name": "x",
              "type": "bytes32"
            },
            {
              "internalType": "bytes32",
              "name": "y",
              "type": "bytes32"
            }
          ],
          "internalType": "struct Utils.G1Point",
          "name": "y",
          "type": "tuple"
        },
        {
          "internalType": "uint256",
          "name": "c",
          "type": "uint256"
        },
        {
          "internalType": "uint256",
          "name": "s",
          "type": "uint256"
        }
      ],
      "name": "register",
      "outputs": [],
      "stateMutability": "nonpayable",
      "type": "function"
    },
    {
      "inputs": [
        {
          "internalType": "bytes32",
          "name": "yHash",
          "type": "bytes32"
        }
      ],
      "name": "registered",
      "outputs": [
        {
          "internalType": "bool",
          "name": "",
          "type": "bool"
        }
      ],
      "stateMutability": "view",
      "type": "function",
      "constant": true
    },
    {
      "inputs": [],
      "name": "round_base",
      "outputs": [
        {
          "internalType": "uint256",
          "name": "",
          "type": "uint256"
        }
      ],
      "stateMutability": "view",
      "type": "function",
      "constant": true
    },
    {
      "inputs": [],
      "name": "round_len",
      "outputs": [
        {
          "internalType": "uint256",
          "name": "",
          "type": "uint256"
        }
      ],
      "stateMutability": "view",
      "type": "function",
      "constant": true
    },
    {
      "inputs": [
        {
          "internalType": "address payable",
          "name": "_beldex_agency",
          "type": "address"
        }
      ],
      "name": "setBeldexAgency",
      "outputs": [],
      "stateMutability": "nonpayable",
      "type": "function"
    },
    {
      "inputs": [
        {
          "internalType": "uint256",
          "name": "numerator",
          "type": "uint256"
        },
        {
          "internalType": "uint256",
          "name": "denominator",
          "type": "uint256"
        }
      ],
      "name": "setRedeemFeeStrategy",
      "outputs": [],
      "stateMutability": "nonpayable",
      "type": "function"
    },
    {
      "inputs": [
        {
          "internalType": "uint256",
          "name": "_round_base",
          "type": "uint256"
        }
      ],
      "name": "setRoundBase",
      "outputs": [],
      "stateMutability": "nonpayable",
      "type": "function"
    },
    {
      "inputs": [
        {
          "internalType": "uint256",
          "name": "_round_len",
          "type": "uint256"
        }
      ],
      "name": "setRoundLen",
      "outputs": [],
      "stateMutability": "nonpayable",
      "type": "function"
    },
    {
      "inputs": [
        {
          "internalType": "uint256",
          "name": "numerator",
          "type": "uint256"
        },
        {
          "internalType": "uint256",
          "name": "denominator",
          "type": "uint256"
        }
      ],
      "name": "setTransferFeeStrategy",
      "outputs": [],
      "stateMutability": "nonpayable",
      "type": "function"
    },
    {
      "inputs": [
        {
          "internalType": "uint256",
          "name": "_unit",
          "type": "uint256"
        }
      ],
      "name": "setUnit",
      "outputs": [],
      "stateMutability": "nonpayable",
      "type": "function"
    },
    {
      "inputs": [],
      "name": "transfer_fee_denominator",
      "outputs": [
        {
          "internalType": "uint256",
          "name": "",
          "type": "uint256"
        }
      ],
      "stateMutability": "view",
      "type": "function",
      "constant": true
    },
    {
      "inputs": [],
      "name": "transfer_fee_log",
      "outputs": [
        {
          "internalType": "uint256",
          "name": "",
          "type": "uint256"
        }
      ],
      "stateMutability": "view",
      "type": "function",
      "constant": true
    },
    {
      "inputs": [],
      "name": "transfer_fee_numerator",
      "outputs": [
        {
          "internalType": "uint256",
          "name": "",
          "type": "uint256"
        }
      ],
      "stateMutability": "view",
      "type": "function",
      "constant": true
    },
    {
      "inputs": [],
      "name": "unit",
      "outputs": [
        {
          "internalType": "uint256",
          "name": "",
          "type": "uint256"
        }
      ],
      "stateMutability": "view",
      "type": "function",
      "constant": true
    },
    {
      "inputs": [],
      "name": "users_log",
      "outputs": [
        {
          "internalType": "uint256",
          "name": "",
          "type": "uint256"
        }
      ],
      "stateMutability": "view",
      "type": "function",
      "constant": true
    },
    {
      "inputs": [
        {
          "components": [
            {
              "internalType": "bytes32",
              "name": "x",
              "type": "bytes32"
            },
            {
              "internalType": "bytes32",
              "name": "y",
              "type": "bytes32"
            }
          ],
          "internalType": "struct Utils.G1Point",
          "name": "y",
          "type": "tuple"
        },
        {
          "internalType": "uint256",
          "name": "unitAmount",
          "type": "uint256"
        },
        {
          "internalType": "bytes",
          "name": "encGuess",
          "type": "bytes"
        }
      ],
      "name": "mint",
      "outputs": [],
      "stateMutability": "payable",
      "type": "function",
      "payable": true
    },
    {
      "inputs": [
        {
          "components": [
            {
              "internalType": "bytes32",
              "name": "x",
              "type": "bytes32"
            },
            {
              "internalType": "bytes32",
              "name": "y",
              "type": "bytes32"
            }
          ],
          "internalType": "struct Utils.G1Point",
          "name": "y",
          "type": "tuple"
        },
        {
          "internalType": "uint256",
          "name": "unitAmount",
          "type": "uint256"
        },
        {
          "components": [
            {
              "internalType": "bytes32",
              "name": "x",
              "type": "bytes32"
            },
            {
              "internalType": "bytes32",
              "name": "y",
              "type": "bytes32"
            }
          ],
          "internalType": "struct Utils.G1Point",
          "name": "u",
          "type": "tuple"
        },
        {
          "internalType": "bytes",
          "name": "proof",
          "type": "bytes"
        },
        {
          "internalType": "bytes",
          "name": "encGuess",
          "type": "bytes"
        }
      ],
      "name": "redeem",
      "outputs": [],
      "stateMutability": "nonpayable",
      "type": "function"
    },
    {
      "inputs": [
        {
          "components": [
            {
              "internalType": "bytes32",
              "name": "x",
              "type": "bytes32"
            },
            {
              "internalType": "bytes32",
              "name": "y",
              "type": "bytes32"
            }
          ],
          "internalType": "struct Utils.G1Point[]",
          "name": "C",
          "type": "tuple[]"
        },
        {
          "components": [
            {
              "internalType": "bytes32",
              "name": "x",
              "type": "bytes32"
            },
            {
              "internalType": "bytes32",
              "name": "y",
              "type": "bytes32"
            }
          ],
          "internalType": "struct Utils.G1Point",
          "name": "D",
          "type": "tuple"
        },
        {
          "components": [
            {
              "internalType": "bytes32",
              "name": "x",
              "type": "bytes32"
            },
            {
              "internalType": "bytes32",
              "name": "y",
              "type": "bytes32"
            }
          ],
          "internalType": "struct Utils.G1Point[]",
          "name": "y",
          "type": "tuple[]"
        },
        {
          "components": [
            {
              "internalType": "bytes32",
              "name": "x",
              "type": "bytes32"
            },
            {
              "internalType": "bytes32",
              "name": "y",
              "type": "bytes32"
            }
          ],
          "internalType": "struct Utils.G1Point",
          "name": "u",
          "type": "tuple"
        },
        {
          "internalType": "bytes",
          "name": "proof",
          "type": "bytes"
        }
      ],
      "name": "transfer",
      "outputs": [],
      "stateMutability": "payable",
      "type": "function",
      "payable": true
    }
  ],
  "bytecode": "0x60806040526018600155600060025560016004556064600555600160065560056007556000600a556000600b556000600c556000600d556000600e556000600f5560006014553480156200005257600080fd5b506040516200574e3803806200574e83398181016040528101906200007891906200017f565b82828233600360006101000a81548173ffffffffffffffffffffffffffffffffffffffff021916908373ffffffffffffffffffffffffffffffffffffffff16021790555082600860006101000a81548173ffffffffffffffffffffffffffffffffffffffff021916908373ffffffffffffffffffffffffffffffffffffffff16021790555081600960006101000a81548173ffffffffffffffffffffffffffffffffffffffff021916908373ffffffffffffffffffffffffffffffffffffffff1602179055508060008190555050505050505062000247565b600081519050620001628162000213565b92915050565b60008151905062000179816200022d565b92915050565b6000806000606084860312156200019557600080fd5b6000620001a58682870162000151565b9350506020620001b88682870162000151565b9250506040620001cb8682870162000168565b9150509250925092565b6000620001e282620001e9565b9050919050565b600073ffffffffffffffffffffffffffffffffffffffff82169050919050565b6000819050919050565b6200021e81620001d5565b81146200022a57600080fd5b50565b620002388162000209565b81146200024457600080fd5b50565b6154f780620002576000396000f3fe6080604052600436106101d85760003560e01c806384f9b07a11610102578063b47e51d711610095578063dcfa1e5d11610064578063dcfa1e5d146106a4578063ddf911da146106cf578063eff4d178146106fa578063f487e95214610716576101d8565b8063b47e51d7146105f8578063b5753dee14610623578063d49d51811461064e578063d90d3a5814610679576101d8565b80639b0d85d3116100d15780639b0d85d31461052b578063a568ce5114610554578063a9b05a5614610592578063aae07890146105cf576101d8565b806384f9b07a146104815780638ad747e0146104ac578063907af6c0146104d757806397fc6f2314610502576101d8565b80635524d5481161017a5780637207f20e116101495780637207f20e146103db57806375236e3f14610404578063767b7d851461042f5780637b5b3b9f14610458576101d8565b80635524d5481461031d578063566a8e621461035a57806362c4d3a31461038557806363bb012c146103b0576101d8565b806328111120116101b657806328111120146102705780632a6b024b1461029b5780634301a344146102b75780634ad729e0146102f4576101d8565b80630221c717146101dd5780631522dd3b1461020857806327d084e714610233575b600080fd5b3480156101e957600080fd5b506101f261073f565b6040516101ff919061512d565b60405180910390f35b34801561021457600080fd5b5061021d610745565b60405161022a9190614b9e565b60405180910390f35b34801561023f57600080fd5b5061025a600480360381019061025591906136c7565b61076b565b6040516102679190614bf0565b60405180910390f35b34801561027c57600080fd5b50610285610a12565b604051610292919061512d565b60405180910390f35b6102b560048036038101906102b0919061376d565b610a18565b005b3480156102c357600080fd5b506102de60048036038101906102d99190613744565b610a7a565b6040516102eb919061512d565b60405180910390f35b34801561030057600080fd5b5061031b600480360381019061031691906137d9565b610a92565b005b34801561032957600080fd5b50610344600480360381019061033f9190613744565b610aff565b6040516103519190614cea565b60405180910390f35b34801561036657600080fd5b5061036f610d00565b60405161037c919061512d565b60405180910390f35b34801561039157600080fd5b5061039a610d06565b6040516103a7919061512d565b60405180910390f35b3480156103bc57600080fd5b506103c5610d0c565b6040516103d2919061512d565b60405180910390f35b3480156103e757600080fd5b5061040260048036038101906103fd9190613a17565b610d12565b005b34801561041057600080fd5b50610419610db4565b604051610426919061512d565b60405180910390f35b34801561043b57600080fd5b50610456600480360381019061045191906139ee565b610dba565b005b34801561046457600080fd5b5061047f600480360381019061047a91906139ee565b610e54565b005b34801561048d57600080fd5b50610496610eee565b6040516104a3919061512d565b60405180910390f35b3480156104b857600080fd5b506104c1610ef4565b6040516104ce919061512d565b60405180910390f35b3480156104e357600080fd5b506104ec610efa565b6040516104f9919061512d565b60405180910390f35b34801561050e57600080fd5b50610529600480360381019061052491906135df565b610f00565b005b34801561053757600080fd5b50610552600480360381019061054d91906138b2565b610fd4565b005b34801561056057600080fd5b5061057b60048036038101906105769190613889565b61119f565b604051610589929190614c12565b60405180910390f35b34801561059e57600080fd5b506105b960048036038101906105b49190613889565b6112b8565b6040516105c69190614d29565b60405180910390f35b3480156105db57600080fd5b506105f660048036038101906105f191906139ee565b611399565b005b34801561060457600080fd5b5061060d611433565b60405161061a919061512d565b60405180910390f35b34801561062f57600080fd5b50610638611439565b604051610645919061512d565b60405180910390f35b34801561065a57600080fd5b5061066361143f565b604051610670919061512d565b60405180910390f35b34801561068557600080fd5b5061068e611447565b60405161069b919061512d565b60405180910390f35b3480156106b057600080fd5b506106b961144d565b6040516106c6919061512d565b60405180910390f35b3480156106db57600080fd5b506106e4611453565b6040516106f1919061512d565b60405180910390f35b610714600480360381019061070f9190613608565b611459565b005b34801561072257600080fd5b5061073d60048036038101906107389190613a17565b611b9c565b005b60015481565b600360009054906101000a900473ffffffffffffffffffffffffffffffffffffffff1681565b60606000835190508067ffffffffffffffff8111801561078a57600080fd5b506040519080825280602002602001820160405280156107c457816020015b6107b16129a8565b8152602001906001900390816107a95790505b50915060005b81811015610a0a5760008582815181106107e057fe5b60200260200101516040516020016107f89190615046565b60405160208183030381529060405280519060200120905060106000828152602001908152602001600020600280602002604051908101604052809291906000905b8282101561087657838260020201604051806040016040529081600082015481526020016001820154815250508152602001906001019061083a565b5050505084838151811061088657fe5b602002602001018190525084601260008381526020019081526020016000205410156109fc57600060116000838152602001908152602001600020600280602002604051908101604052809291906000905b828210156109145783826002020160405180604001604052908160008201548152602001600182015481525050815260200190600101906108d8565b5050505090506109628160006002811061092a57fe5b602002015186858151811061093b57fe5b602002602001015160006002811061094f57fe5b6020020151611c3e90919063ffffffff16565b85848151811061096e57fe5b602002602001015160006002811061098257fe5b60200201819052506109d28160016002811061099a57fe5b60200201518685815181106109ab57fe5b60200260200101516001600281106109bf57fe5b6020020151611c3e90919063ffffffff16565b8584815181106109de57fe5b60200260200101516001600281106109f257fe5b6020020181905250505b5080806001019150506107ca565b505092915050565b600f5481565b6000610a2334611c82565b9050808414610a67576040517f08c379a0000000000000000000000000000000000000000000000000000000008152600401610a5e90614e0b565b60405180910390fd5b610a7385858585611d3d565b5050505050565b60126020528060005260406000206000915090505481565b6000610a9d87611f1f565b9050610aae88888888888888611f81565b3373ffffffffffffffffffffffffffffffffffffffff166108fc829081150290604051600060405180830381858888f19350505050158015610af4573d6000803e3d6000fd5b505050505050505050565b60008060405180604001604052806000801b81526020016000801b81525090506000604051806040016040528060106000878152602001908152602001600020600280602002604051908101604052809291906000905b82821015610b92578382600202016040518060400160405290816000820154815260200160018201548152505081526020019060010190610b56565b50505050815260200160116000878152602001908152602001600020600280602002604051908101604052809291906000905b82821015610c01578382600202016040518060400160405290816000820154815260200160018201548152505081526020019060010190610bc5565b505050508152509050610c3f8282600060028110610c1b57fe5b6020020151600060028110610c2c57fe5b602002015161258290919063ffffffff16565b8015610c7c5750610c7b8282600060028110610c5757fe5b6020020151600160028110610c6857fe5b602002015161258290919063ffffffff16565b5b8015610cb95750610cb88282600160028110610c9457fe5b6020020151600060028110610ca557fe5b602002015161258290919063ffffffff16565b5b8015610cf65750610cf58282600160028110610cd157fe5b6020020151600160028110610ce257fe5b602002015161258290919063ffffffff16565b5b1592505050919050565b60145481565b600e5481565b600a5481565b600360009054906101000a900473ffffffffffffffffffffffffffffffffffffffff1673ffffffffffffffffffffffffffffffffffffffff163373ffffffffffffffffffffffffffffffffffffffff1614610da2576040517f08c379a0000000000000000000000000000000000000000000000000000000008152600401610d9990614f6b565b60405180910390fd5b81600681905550806007819055505050565b600d5481565b600360009054906101000a900473ffffffffffffffffffffffffffffffffffffffff1673ffffffffffffffffffffffffffffffffffffffff163373ffffffffffffffffffffffffffffffffffffffff1614610e4a576040517f08c379a0000000000000000000000000000000000000000000000000000000008152600401610e4190614fcb565b60405180910390fd5b8060018190555050565b600360009054906101000a900473ffffffffffffffffffffffffffffffffffffffff1673ffffffffffffffffffffffffffffffffffffffff163373ffffffffffffffffffffffffffffffffffffffff1614610ee4576040517f08c379a0000000000000000000000000000000000000000000000000000000008152600401610edb90614d6b565b60405180910390fd5b8060028190555050565b600b5481565b60025481565b60005481565b600360009054906101000a900473ffffffffffffffffffffffffffffffffffffffff1673ffffffffffffffffffffffffffffffffffffffff163373ffffffffffffffffffffffffffffffffffffffff1614610f90576040517f08c379a0000000000000000000000000000000000000000000000000000000008152600401610f8790614d8b565b60405180910390fd5b80600360006101000a81548173ffffffffffffffffffffffffffffffffffffffff021916908373ffffffffffffffffffffffffffffffffffffffff16021790555050565b600061101c610ff4610fe5856125aa565b866125d690919063ffffffff16565b61100e8461100061260f565b6125d690919063ffffffff16565b611c3e90919063ffffffff16565b9050600061105630868460405160200161103893929190614bb9565b6040516020818303038152906040528051906020012060001c612677565b905083811461109a576040517f08c379a000000000000000000000000000000000000000000000000000000000815260040161109190614f0b565b60405180910390fd5b6000856040516020016110ad9190615046565b6040516020818303038152906040528051906020012090506110ce81610aff565b1561110e576040517f08c379a000000000000000000000000000000000000000000000000000000000815260040161110590614deb565b60405180910390fd5b856011600083815260200190815260200160002060006002811061112e57fe5b60020201600082015181600001556020820151816001015590505061115161260f565b6011600083815260200190815260200160002060016002811061117057fe5b6002020160008201518160000155602082015181600101559050506001600b5401600b81905550505050505050565b6111a76129a8565b6111af6129a8565b6000836040516020016111c29190615046565b60405160208183030381529060405280519060200120905060106000828152602001908152602001600020600280602002604051908101604052809291906000905b82821015611240578382600202016040518060400160405290816000820154815260200160018201548152505081526020019060010190611204565b50505050925060116000828152602001908152602001600020600280602002604051908101604052809291906000905b828210156112ac578382600202016040518060400160405290816000820154815260200160018201548152505081526020019060010190611270565b50505050915050915091565b60606000826040516020016112cd9190615046565b604051602081830303815290604052805190602001209050601560008281526020019081526020016000208054600181600116156101000203166002900480601f01602080910402602001604051908101604052809291908181526020018280546001816001161561010002031660029004801561138c5780601f106113615761010080835404028352916020019161138c565b820191906000526020600020905b81548152906001019060200180831161136f57829003601f168201915b5050505050915050919050565b600360009054906101000a900473ffffffffffffffffffffffffffffffffffffffff1673ffffffffffffffffffffffffffffffffffffffff163373ffffffffffffffffffffffffffffffffffffffff1614611429576040517f08c379a000000000000000000000000000000000000000000000000000000000815260040161142090614f2b565b60405180910390fd5b8060008190555050565b600c5481565b60075481565b63ffffffff81565b60065481565b60055481565b60045481565b60008351905060008167ffffffffffffffff8111801561147857600080fd5b506040519080825280602002602001820160405280156114b257816020015b61149f6129d5565b8152602001906001900390816114975790505b50905060008267ffffffffffffffff811180156114ce57600080fd5b5060405190808252806020026020018201604052801561150857816020015b6114f56129d5565b8152602001906001900390816114ed5790505b5090508288511461154e576040517f08c379a000000000000000000000000000000000000000000000000000000000815260040161154590614ecb565b60405180910390fd5b60005b8381101561182957600087828151811061156757fe5b602002602001015160405160200161157f9190615046565b6040516020818303038152906040528051906020012090506115a081610aff565b6115df576040517f08c379a00000000000000000000000000000000000000000000000000000000081526004016115d690614eeb565b60405180910390fd5b6115e8816126aa565b600060116000838152602001908152602001600020600280602002604051908101604052809291906000905b82821015611650578382600202016040518060400160405290816000820154815260200160018201548152505081526020019060010190611614565b50505050905061168d8b848151811061166557fe5b60200260200101518260006002811061167a57fe5b6020020151611c3e90919063ffffffff16565b601160008481526020019081526020016000206000600281106116ac57fe5b6002020160008201518160000155602082015181600101559050506116eb8a826001600281106116d857fe5b6020020151611c3e90919063ffffffff16565b6011600084815260200190815260200160002060016002811061170a57fe5b60020201600082015181600001556020820151816001015590505060106000838152602001908152602001600020600280602002604051908101604052809291906000905b8282101561178b57838260020201604051806040016040529081600082015481526020016001820154815250508152602001906001019061174f565b5050505090506117c88b84815181106117a057fe5b6020026020010151826000600281106117b557fe5b6020020151611c3e90919063ffffffff16565b8584815181106117d457fe5b60200260200101819052506118038a826001600281106117f057fe5b6020020151611c3e90919063ffffffff16565b84848151811061180f57fe5b602002602001018190525050508080600101915050611551565b5060008560405160200161183d9190615046565b60405160208183030381529060405280519060200120905060005b6013805490508110156118cc57816013828154811061187357fe5b906000526020600020015414156118bf576040517f08c379a00000000000000000000000000000000000000000000000000000000081526004016118b690614e2b565b60405180910390fd5b8080600101915050611858565b5060138190806001815401808255809150506001900390600052602060002001600090919091909150556000600860009054906101000a900473ffffffffffffffffffffffffffffffffffffffff1673ffffffffffffffffffffffffffffffffffffffff16639471ac0a85858d8d8d6014548e6040518863ffffffff1660e01b81526004016119619796959493929190614c5e565b60006040518083038186803b15801561197957600080fd5b505afa15801561198d573d6000803e3d6000fd5b505050506040513d6000823e3d601f19601f820116820180604052508101906119b691906139ad565b90506000600860009054906101000a900473ffffffffffffffffffffffffffffffffffffffff1673ffffffffffffffffffffffffffffffffffffffff1663f98f0cc9886040518263ffffffff1660e01b8152600401611a159190614d29565b60006040518083038186803b158015611a2d57600080fd5b505afa158015611a41573d6000803e3d6000fd5b505050506040513d6000823e3d601f19601f82011682018060405250810190611a6a9190613942565b9050600860009054906101000a900473ffffffffffffffffffffffffffffffffffffffff1673ffffffffffffffffffffffffffffffffffffffff1663a529878e83836040518363ffffffff1660e01b8152600401611ac99291906150f6565b60206040518083038186803b158015611ae157600080fd5b505afa158015611af5573d6000803e3d6000fd5b505050506040513d601f19601f82011682018060405250810190611b19919061371b565b611b58576040517f08c379a0000000000000000000000000000000000000000000000000000000008152600401611b4f90614e4b565b60405180910390fd5b7f9b814ae8a45a4c40d4c60ffa92e0c4b76dec41407cb28b43df9daffa3685f9ac89604051611b879190614c3c565b60405180910390a15050505050505050505050565b600360009054906101000a900473ffffffffffffffffffffffffffffffffffffffff1673ffffffffffffffffffffffffffffffffffffffff163373ffffffffffffffffffffffffffffffffffffffff1614611c2c576040517f08c379a0000000000000000000000000000000000000000000000000000000008152600401611c2390614fab565b60405180910390fd5b81600481905550806005819055505050565b611c466129d5565b6040518351815260208401516020820152825160408201526020830151606082015260408260808360065afa611c7b57600080fd5b5092915050565b6000806000548381611c9057fe5b0614611cd1576040517f08c379a0000000000000000000000000000000000000000000000000000000008152600401611cc890614eab565b60405180910390fd5b600080548381611cdd57fe5b04905080600011158015611cf5575063ffffffff8111155b611d34576040517f08c379a0000000000000000000000000000000000000000000000000000000008152600401611d2b90614dcb565b60405180910390fd5b80915050919050565b63ffffffff8311158015611d59575063ffffffff83600a540111155b611d98576040517f08c379a0000000000000000000000000000000000000000000000000000000008152600401611d8f90614dab565b60405180910390fd5b82600a6000828254019250508190555082600e600082825401925050819055506001600f60008282540192505081905550600084604051602001611ddc919061502b565b604051602081830303815290604052805190602001209050611dfd81610aff565b611e3c576040517f08c379a0000000000000000000000000000000000000000000000000000000008152600401611e339061500b565b60405180910390fd5b611e45816126aa565b600060116000838152602001908152602001600020600060028110611e6657fe5b60020201604051806040016040529081600082015481526020016001820154815250509050611eb7611ea886611e9a61260f565b6125d690919063ffffffff16565b82611c3e90919063ffffffff16565b90508060116000848152602001908152602001600020600060028110611ed957fe5b6002020160008201518160000155602082015181600101559050508383601560008581526020019081526020016000209190611f169291906129f5565b50505050505050565b600081600011158015611f36575063ffffffff8211155b611f75576040517f08c379a0000000000000000000000000000000000000000000000000000000008152600401611f6c90614feb565b60405180910390fd5b60005482029050919050565b85600a541015611fc6576040517f08c379a0000000000000000000000000000000000000000000000000000000008152600401611fbd90614e6b565b60405180910390fd5b85600a60008282540392505081905550600087604051602001611fe9919061502b565b60405160208183030381529060405280519060200120905061200a81610aff565b612049576040517f08c379a000000000000000000000000000000000000000000000000000000000815260040161204090614e8b565b60405180910390fd5b612052816126aa565b600060116000838152602001908152602001600020600280602002604051908101604052809291906000905b828210156120ba57838260020201604051806040016040529081600082015481526020016001820154815250508152602001906001019061207e565b5050505090506121056120e56120cf8a6125aa565b6120d761260f565b6125d690919063ffffffff16565b826000600281106120f257fe5b6020020151611c3e90919063ffffffff16565b6011600084815260200190815260200160002060006002811061212457fe5b60020201600082015181600001556020820151816001015590505060106000838152602001908152602001600020600280602002604051908101604052809291906000905b828210156121a5578382600202016040518060400160405290816000820154815260200160018201548152505081526020019060010190612169565b5050505090506121f06121d06121ba8a6125aa565b6121c261260f565b6125d690919063ffffffff16565b826000600281106121dd57fe5b6020020151611c3e90919063ffffffff16565b816000600281106121fd57fe5b6020020181905250600087604051602001612218919061502b565b60405160208183030381529060405280519060200120905060005b6013805490508110156122a757816013828154811061224e57fe5b9060005260206000200154141561229a576040517f08c379a000000000000000000000000000000000000000000000000000000000815260040161229190614d4b565b60405180910390fd5b8080600101915050612233565b50601381908060018154018082558091505060019003906000526020600020016000909190919091505584846015600086815260200190815260200160002091906122f39291906129f5565b506000600960009054906101000a900473ffffffffffffffffffffffffffffffffffffffff1673ffffffffffffffffffffffffffffffffffffffff1663bba28e3c8460006002811061234157fe5b60200201518560016002811061235357fe5b60200201518e6014548e336040518763ffffffff1660e01b815260040161237f96959493929190615061565b6101406040518083038186803b15801561239857600080fd5b505afa1580156123ac573d6000803e3d6000fd5b505050506040513d601f19601f820116820180604052508101906123d09190613983565b90506000600960009054906101000a900473ffffffffffffffffffffffffffffffffffffffff1673ffffffffffffffffffffffffffffffffffffffff1663f98f0cc98a8a6040518363ffffffff1660e01b8152600401612431929190614d05565b60006040518083038186803b15801561244957600080fd5b505afa15801561245d573d6000803e3d6000fd5b505050506040513d6000823e3d601f19601f820116820180604052508101906124869190613901565b9050600960009054906101000a900473ffffffffffffffffffffffffffffffffffffffff1673ffffffffffffffffffffffffffffffffffffffff1663d039751f83836040518363ffffffff1660e01b81526004016124e59291906150c4565b60206040518083038186803b1580156124fd57600080fd5b505afa158015612511573d6000803e3d6000fd5b505050506040513d601f19601f82011682018060405250810190612535919061371b565b612574576040517f08c379a000000000000000000000000000000000000000000000000000000000815260040161256b90614f4b565b60405180910390fd5b505050505050505050505050565b6000816000015183600001511480156125a2575081602001518360200151145b905092915050565b6000817f30644e72e131a029b85045b68181585d2833e84879b9709143e1f593f0000001039050919050565b6125de6129d5565b604051835181526020840151602082015282604082015260408260608360075afa61260857600080fd5b5092915050565b6126176129d5565b60405180604001604052807f077da99d806abd13c9f15ece5398525119d11e11e9836b2ee7d23f6159ad87d460001b81526020017f01485efa927f2ad41bff567eec88f32fb0a0f706588b4e41a8d587d008b7f87560001b815250905090565b60007f30644e72e131a029b85045b68181585d2833e84879b9709143e1f593f000000182816126a257fe5b069050919050565b60008060025414156126c95760015443816126c157fe5b049050612723565b600160025414156126e75760015442816126df57fe5b049050612722565b6040517f08c379a000000000000000000000000000000000000000000000000000000000815260040161271990614f8b565b60405180910390fd5b5b8060126000848152602001908152602001600020541015612984576000604051806040016040528060106000868152602001908152602001600020600280602002604051908101604052809291906000905b828210156127b1578382600202016040518060400160405290816000820154815260200160018201548152505081526020019060010190612775565b50505050815260200160116000868152602001908152602001600020600280602002604051908101604052809291906000905b828210156128205783826002020160405180604001604052908160008201548152602001600182015481525050815260200190600101906127e4565b5050505081525090506128808160016002811061283957fe5b602002015160006002811061284a57fe5b60200201518260006002811061285c57fe5b602002015160006002811061286d57fe5b6020020151611c3e90919063ffffffff16565b6010600085815260200190815260200160002060006002811061289f57fe5b600202016000820151816000015560208201518160010155905050612911816001600281106128ca57fe5b60200201516001600281106128db57fe5b6020020151826000600281106128ed57fe5b60200201516001600281106128fe57fe5b6020020151611c3e90919063ffffffff16565b6010600085815260200190815260200160002060016002811061293057fe5b60020201600082015181600001556020820151816001015590505060116000848152602001908152602001600020600061296a9190612a83565b816012600085815260200190815260200160002081905550505b8060145410156129a45780601481905550601360006129a39190612aae565b5b5050565b60405180604001604052806002905b6129bf6129d5565b8152602001906001900390816129b75790505090565b604051806040016040528060008019168152602001600080191681525090565b828054600181600116156101000203166002900490600052602060002090601f016020900481019282612a2b5760008555612a72565b82601f10612a4457803560ff1916838001178555612a72565b82800160010185558215612a72579182015b82811115612a71578235825591602001919060010190612a56565b5b509050612a7f9190612acf565b5090565b5060008082016000905560018201600090555060020160008082016000905560018201600090555050565b5080546000825590600052602060002090810190612acc9190612aec565b50565b5b80821115612ae8576000816000905550600101612ad0565b5090565b5b80821115612b05576000816000905550600101612aed565b5090565b6000612b1c612b1784615179565b615148565b90508082856040860282011115612b3257600080fd5b60005b85811015612b625781612b488882612ed7565b845260208401935060408301925050600181019050612b35565b5050509392505050565b6000612b7f612b7a8461519f565b615148565b90508083825260208201905082856040860282011115612b9e57600080fd5b60005b85811015612bce5781612bb48882612e8b565b845260208401935060408301925050600181019050612ba1565b5050509392505050565b6000612beb612be68461519f565b615148565b90508083825260208201905082856040860282011115612c0a57600080fd5b60005b85811015612c3a5781612c208882612ed7565b845260208401935060408301925050600181019050612c0d565b5050509392505050565b6000612c57612c52846151cb565b615148565b90508083825260208201905082856020860282011115612c7657600080fd5b60005b85811015612ca65781612c8c88826135ca565b845260208401935060208301925050600181019050612c79565b5050509392505050565b6000612cc3612cbe846151f7565b615148565b905082815260208101848484011115612cdb57600080fd5b612ce68482856153f9565b509392505050565b600081519050612cfd8161544e565b92915050565b600081359050612d1281615465565b92915050565b600082601f830112612d2957600080fd5b6002612d36848285612b09565b91505092915050565b600082601f830112612d5057600080fd5b8135612d60848260208601612b6c565b91505092915050565b600082601f830112612d7a57600080fd5b8151612d8a848260208601612bd8565b91505092915050565b600082601f830112612da457600080fd5b8151612db4848260208601612c44565b91505092915050565b600081519050612dcc8161547c565b92915050565b600081359050612de181615493565b92915050565b600081519050612df681615493565b92915050565b60008083601f840112612e0e57600080fd5b8235905067ffffffffffffffff811115612e2757600080fd5b602083019150836001820283011115612e3f57600080fd5b9250929050565b600082601f830112612e5757600080fd5b8135612e67848260208601612cb0565b91505092915050565b600060408284031215612e8257600080fd5b81905092915050565b600060408284031215612e9d57600080fd5b612ea76040615148565b90506000612eb784828501612dd2565b6000830152506020612ecb84828501612dd2565b60208301525092915050565b600060408284031215612ee957600080fd5b612ef36040615148565b90506000612f0384828501612de7565b6000830152506020612f1784828501612de7565b60208301525092915050565b600060808284031215612f3557600080fd5b612f3f6080615148565b9050600082015167ffffffffffffffff811115612f5b57600080fd5b612f6784828501612d69565b600083015250602082015167ffffffffffffffff811115612f8757600080fd5b612f9384828501612d69565b6020830152506040612fa7848285016135ca565b6040830152506060612fbb848285016135ca565b60608301525092915050565b60006101e08284031215612fda57600080fd5b612fe5610140615148565b90506000612ff584828501612ed7565b600083015250604061300984828501612ed7565b602083015250608061301d84828501612d18565b604083015250610100613032848285016135ca565b606083015250610120613047848285016135ca565b60808301525061014061305c848285016135ca565b60a083015250610160613071848285016135ca565b60c083015250610180613086848285016135ca565b60e0830152506101a061309b848285016135ca565b610100830152506101c082015167ffffffffffffffff8111156130bd57600080fd5b6130c984828501612f23565b6101208301525092915050565b600061040082840312156130e957600080fd5b6130f4610320615148565b9050600061310484828501612ed7565b600083015250604061311884828501612ed7565b602083015250608061312c84828501612ed7565b60408301525060c061314084828501612ed7565b60608301525061010082015167ffffffffffffffff81111561316157600080fd5b61316d84828501612d69565b60808301525061012082015167ffffffffffffffff81111561318e57600080fd5b61319a84828501612d69565b60a08301525061014082015167ffffffffffffffff8111156131bb57600080fd5b6131c784828501612d69565b60c08301525061016082015167ffffffffffffffff8111156131e857600080fd5b6131f484828501612d69565b60e08301525061018082015167ffffffffffffffff81111561321557600080fd5b61322184828501612d69565b610100830152506101a082015167ffffffffffffffff81111561324357600080fd5b61324f84828501612d69565b610120830152506101c082015167ffffffffffffffff81111561327157600080fd5b61327d84828501612d69565b610140830152506101e082015167ffffffffffffffff81111561329f57600080fd5b6132ab84828501612d69565b6101608301525061020082015167ffffffffffffffff8111156132cd57600080fd5b6132d984828501612d93565b610180830152506102206132ef848285016135ca565b6101a083015250610240613305848285016135ca565b6101c08301525061026061331b848285016135ca565b6101e08301525061028061333184828501612d18565b61020083015250610300613347848285016135ca565b6102208301525061032061335d848285016135ca565b61024083015250610340613373848285016135ca565b61026083015250610360613389848285016135ca565b6102808301525061038061339f848285016135ca565b6102a0830152506103a06133b5848285016135ca565b6102c0830152506103c06133cb848285016135ca565b6102e0830152506103e082015167ffffffffffffffff8111156133ed57600080fd5b6133f984828501612f23565b6103008301525092915050565b6000610140828403121561341957600080fd5b61342360c0615148565b9050600061343384828501612ed7565b600083015250604061344784828501612ed7565b602083015250608061345b84828501612ed7565b60408301525060c061346f848285016135ca565b60608301525060e061348384828501612ed7565b60808301525061012061349884828501612cee565b60a08301525092915050565b600061012082840312156134b757600080fd5b6134c160e0615148565b9050600082015167ffffffffffffffff8111156134dd57600080fd5b6134e984828501612d69565b600083015250602082015167ffffffffffffffff81111561350957600080fd5b61351584828501612d69565b602083015250604082015167ffffffffffffffff81111561353557600080fd5b61354184828501612d69565b604083015250606061355584828501612ed7565b60608301525060a082015167ffffffffffffffff81111561357557600080fd5b61358184828501612d69565b60808301525060c0613595848285016135ca565b60a08301525060e06135a984828501612ed7565b60c08301525092915050565b6000813590506135c4816154aa565b92915050565b6000815190506135d9816154aa565b92915050565b6000602082840312156135f157600080fd5b60006135ff84828501612d03565b91505092915050565b600080600080600060e0868803121561362057600080fd5b600086013567ffffffffffffffff81111561363a57600080fd5b61364688828901612d3f565b955050602061365788828901612e8b565b945050606086013567ffffffffffffffff81111561367457600080fd5b61368088828901612d3f565b935050608061369188828901612e8b565b92505060c086013567ffffffffffffffff8111156136ae57600080fd5b6136ba88828901612e46565b9150509295509295909350565b600080604083850312156136da57600080fd5b600083013567ffffffffffffffff8111156136f457600080fd5b61370085828601612d3f565b9250506020613711858286016135b5565b9150509250929050565b60006020828403121561372d57600080fd5b600061373b84828501612dbd565b91505092915050565b60006020828403121561375657600080fd5b600061376484828501612dd2565b91505092915050565b6000806000806080858703121561378357600080fd5b600061379187828801612e70565b94505060406137a2878288016135b5565b935050606085013567ffffffffffffffff8111156137bf57600080fd5b6137cb87828801612dfc565b925092505092959194509250565b600080600080600080600060e0888a0312156137f457600080fd5b60006138028a828b01612e70565b97505060406138138a828b016135b5565b96505060606138248a828b01612e70565b95505060a088013567ffffffffffffffff81111561384157600080fd5b61384d8a828b01612dfc565b945094505060c088013567ffffffffffffffff81111561386c57600080fd5b6138788a828b01612dfc565b925092505092959891949750929550565b60006040828403121561389b57600080fd5b60006138a984828501612e8b565b91505092915050565b6000806000608084860312156138c757600080fd5b60006138d586828701612e8b565b93505060406138e6868287016135b5565b92505060606138f7868287016135b5565b9150509250925092565b60006020828403121561391357600080fd5b600082015167ffffffffffffffff81111561392d57600080fd5b61393984828501612fc7565b91505092915050565b60006020828403121561395457600080fd5b600082015167ffffffffffffffff81111561396e57600080fd5b61397a848285016130d6565b91505092915050565b6000610140828403121561399657600080fd5b60006139a484828501613406565b91505092915050565b6000602082840312156139bf57600080fd5b600082015167ffffffffffffffff8111156139d957600080fd5b6139e5848285016134a4565b91505092915050565b600060208284031215613a0057600080fd5b6000613a0e848285016135b5565b91505092915050565b60008060408385031215613a2a57600080fd5b6000613a38858286016135b5565b9250506020613a49858286016135b5565b9150509250929050565b6000613a5f8383613b35565b60808301905092915050565b6000613a778383614652565b60408301905092915050565b6000613a8f8383614b80565b60208301905092915050565b613aa4816153c3565b82525050565b613ab381615371565b82525050565b613ac28161535f565b82525050565b613ad18161535f565b82525050565b6000613ae282615261565b613aec81856152cc565b9350613af783615227565b8060005b83811015613b28578151613b0f8882613a53565b9750613b1a83615298565b925050600181019050613afb565b5085935050505092915050565b613b3e8161526c565b613b4881846152dd565b9250613b5382615237565b8060005b83811015613b84578151613b6b8782613a6b565b9650613b76836152a5565b925050600181019050613b57565b505050505050565b613b958161526c565b613b9f81846152e8565b9250613baa82615237565b8060005b83811015613bdb578151613bc28782613a6b565b9650613bcd836152a5565b925050600181019050613bae565b505050505050565b6000613bee82615277565b613bf881856152f3565b9350613c0383615241565b8060005b83811015613c34578151613c1b8882613a6b565b9750613c26836152b2565b925050600181019050613c07565b5085935050505092915050565b6000613c4c82615277565b613c568185615304565b9350613c6183615241565b8060005b83811015613c92578151613c798882613a6b565b9750613c84836152b2565b925050600181019050613c65565b5085935050505092915050565b6000613caa82615282565b613cb48185615315565b9350613cbf83615251565b8060005b83811015613cf0578151613cd78882613a83565b9750613ce2836152bf565b925050600181019050613cc3565b5085935050505092915050565b613d0681615383565b82525050565b613d158161538f565b82525050565b6000613d278385615326565b9350613d348385846153f9565b613d3d8361543d565b840190509392505050565b6000613d538261528d565b613d5d8185615326565b9350613d6d818560208601615408565b613d768161543d565b840191505092915050565b6000613d8e602383615337565b91507f5b42656c6465782072656465656d5d204e6f6e636520616c726561647920736560008301527f656e2100000000000000000000000000000000000000000000000000000000006020830152604082019050919050565b6000613df4603483615337565b91507f5065726d697373696f6e2064656e6965643a204f6e6c792061646d696e20636160008301527f6e206368616e676520726f756e6420626173652e0000000000000000000000006020830152604082019050919050565b6000613e5a603083615337565b91507f5065726d697373696f6e2064656e6965643a204f6e6c792061646d696e20636160008301527f6e206368616e6765206167656e63792e000000000000000000000000000000006020830152604082019050919050565b6000613ec0603683615337565b91507f5b42656c646578206d696e745d204d696e742070757368657320636f6e74726160008301527f63742070617374206d6178696d756d2076616c75652e000000000000000000006020830152604082019050919050565b6000613f26601483615337565b91507f416d6f756e74206f7574206f662072616e67652e0000000000000000000000006000830152602082019050919050565b6000613f66601b83615337565b91507f4163636f756e7420616c726561647920726567697374657265642100000000006000830152602082019050919050565b6000613fa6604683615337565b91507f5b42656c646578206d696e745d20537065636966696564206d696e7420616d6f60008301527f756e74206973206469666665726e65742066726f6d207468652070616964206160208301527f6d6f756e742e00000000000000000000000000000000000000000000000000006040830152606082019050919050565b6000614032602583615337565b91507f5b42656c646578207472616e736665725d204e6f6e636520616c72656164792060008301527f7365656e210000000000000000000000000000000000000000000000000000006020830152604082019050919050565b6000614098602683615337565b91507f5b42656c646578207472616e736665725d204661696c65643a2076657269666960008301527f636174696f6e00000000000000000000000000000000000000000000000000006020830152604082019050919050565b60006140fe602e83615337565b91507f5b42656c6465782072656465656d5d204661696c65643a20496e76616c69642060008301527f72656465656d20616d6f756e742e0000000000000000000000000000000000006020830152604082019050919050565b6000614164602b83615337565b91507f5b42656c6465782072656465656d5d204163636f756e74206e6f74207965742060008301527f726567697374657265642e0000000000000000000000000000000000000000006020830152604082019050919050565b60006141ca602983615337565b91507f4e617469766520616d6f756e74206d757374206265206d756c7469706c65206f60008301527f66206120756e69742e00000000000000000000000000000000000000000000006020830152604082019050919050565b6000614230602e83615337565b91507f5b42656c646578207472616e736665725d20496e707574206172726179206c6560008301527f6e677468206d69736d61746368210000000000000000000000000000000000006020830152604082019050919050565b6000614296602d83615337565b91507f5b42656c646578207472616e736665725d204163636f756e74206e6f7420796560008301527f7420726567697374657265642e000000000000000000000000000000000000006020830152604082019050919050565b60006142fc601f83615337565b91507f496e76616c696420726567697374726174696f6e207369676e617475726521006000830152602082019050919050565b600061433c602e83615337565b91507f5065726d697373696f6e2064656e6965643a204f6e6c792061646d696e20636160008301527f6e206368616e676520756e69742e0000000000000000000000000000000000006020830152604082019050919050565b60006143a2602583615337565b91507f5b42656c6465782072656465656d5d204661696c65643a20766572696669636160008301527f74696f6e210000000000000000000000000000000000000000000000000000006020830152604082019050919050565b6000614408603f83615337565b91507f5065726d697373696f6e2064656e6965643a204f6e6c792061646d696e20636160008301527f6e206368616e6765207472616e73666572206665652073747261746567792e006020830152604082019050919050565b600061446e601383615337565b91507f496e76616c696420726f756e6420626173652e000000000000000000000000006000830152602082019050919050565b60006144ae603d83615337565b91507f5065726d697373696f6e2064656e6965643a204f6e6c792061646d696e20636160008301527f6e206368616e67652072656465656d206665652073747261746567792e0000006020830152604082019050919050565b6000614514603683615337565b91507f5065726d697373696f6e2064656e6965643a204f6e6c792061646d696e20636160008301527f6e206368616e676520726f756e64206c656e6774682e000000000000000000006020830152604082019050919050565b600061457a601383615337565b91507f416d6f756e74206f7574206f662072616e6765000000000000000000000000006000830152602082019050919050565b60006145ba602983615337565b91507f5b42656c646578206d696e745d204163636f756e74206e6f742079657420726560008301527f67697374657265642e00000000000000000000000000000000000000000000006020830152604082019050919050565b604082016146246000830183615348565b6146316000850182613d0c565b5061463f6020830183615348565b61464c6020850182613d0c565b50505050565b6040820160008201516146686000850182613d0c565b50602082015161467b6020850182613d0c565b50505050565b6040820160008201516146976000850182613d0c565b5060208201516146aa6020850182613d0c565b50505050565b600060808301600083015184820360008601526146cd8282613be3565b915050602083015184820360208601526146e78282613be3565b91505060408301516146fc6040860182614b80565b50606083015161470f6060860182614b80565b508091505092915050565b60006101e0830160008301516147336000860182614652565b5060208301516147466040860182614652565b5060408301516147596080860182613b35565b50606083015161476d610100860182614b80565b506080830151614781610120860182614b80565b5060a0830151614795610140860182614b80565b5060c08301516147a9610160860182614b80565b5060e08301516147bd610180860182614b80565b506101008301516147d26101a0860182614b80565b506101208301518482036101c08601526147ec82826146b0565b9150508091505092915050565b6000610400830160008301516148126000860182614652565b5060208301516148256040860182614652565b5060408301516148386080860182614652565b50606083015161484b60c0860182614652565b5060808301518482036101008601526148648282613be3565b91505060a083015184820361012086015261487f8282613be3565b91505060c083015184820361014086015261489a8282613be3565b91505060e08301518482036101608601526148b58282613be3565b9150506101008301518482036101808601526148d18282613be3565b9150506101208301518482036101a08601526148ed8282613be3565b9150506101408301518482036101c08601526149098282613be3565b9150506101608301518482036101e08601526149258282613be3565b9150506101808301518482036102008601526149418282613c9f565b9150506101a0830151614958610220860182614b80565b506101c083015161496d610240860182614b80565b506101e0830151614982610260860182614b80565b50610200830151614997610280860182613b35565b506102208301516149ac610300860182614b80565b506102408301516149c1610320860182614b80565b506102608301516149d6610340860182614b80565b506102808301516149eb610360860182614b80565b506102a0830151614a00610380860182614b80565b506102c0830151614a156103a0860182614b80565b506102e0830151614a2a6103c0860182614b80565b506103008301518482036103e0860152614a4482826146b0565b9150508091505092915050565b61014082016000820151614a686000850182614652565b506020820151614a7b6040850182614652565b506040820151614a8e6080850182614652565b506060820151614aa160c0850182614b80565b506080820151614ab460e0850182614652565b5060a0820151614ac8610120850182613ab9565b50505050565b6000610120830160008301518482036000860152614aec8282613be3565b91505060208301518482036020860152614b068282613be3565b91505060408301518482036040860152614b208282613be3565b9150506060830151614b356060860182614652565b50608083015184820360a0860152614b4d8282613be3565b91505060a0830151614b6260c0860182614b80565b5060c0830151614b7560e0860182614652565b508091505092915050565b614b89816153b9565b82525050565b614b98816153b9565b82525050565b6000602082019050614bb36000830184613aaa565b92915050565b600060a082019050614bce6000830186613ac8565b614bdb6020830185614681565b614be86060830184614681565b949350505050565b60006020820190508181036000830152614c0a8184613ad7565b905092915050565b600061010082019050614c286000830185613b8c565b614c356080830184613b8c565b9392505050565b60006020820190508181036000830152614c568184613c41565b905092915050565b6000610120820190508181036000830152614c79818a613c41565b90508181036020830152614c8d8189613c41565b90508181036040830152614ca18188613c41565b9050614cb06060830187614681565b81810360a0830152614cc28186613c41565b9050614cd160c0830185614b8f565b614cde60e0830184614681565b98975050505050505050565b6000602082019050614cff6000830184613cfd565b92915050565b60006020820190508181036000830152614d20818486613d1b565b90509392505050565b60006020820190508181036000830152614d438184613d48565b905092915050565b60006020820190508181036000830152614d6481613d81565b9050919050565b60006020820190508181036000830152614d8481613de7565b9050919050565b60006020820190508181036000830152614da481613e4d565b9050919050565b60006020820190508181036000830152614dc481613eb3565b9050919050565b60006020820190508181036000830152614de481613f19565b9050919050565b60006020820190508181036000830152614e0481613f59565b9050919050565b60006020820190508181036000830152614e2481613f99565b9050919050565b60006020820190508181036000830152614e4481614025565b9050919050565b60006020820190508181036000830152614e648161408b565b9050919050565b60006020820190508181036000830152614e84816140f1565b9050919050565b60006020820190508181036000830152614ea481614157565b9050919050565b60006020820190508181036000830152614ec4816141bd565b9050919050565b60006020820190508181036000830152614ee481614223565b9050919050565b60006020820190508181036000830152614f0481614289565b9050919050565b60006020820190508181036000830152614f24816142ef565b9050919050565b60006020820190508181036000830152614f448161432f565b9050919050565b60006020820190508181036000830152614f6481614395565b9050919050565b60006020820190508181036000830152614f84816143fb565b9050919050565b60006020820190508181036000830152614fa481614461565b9050919050565b60006020820190508181036000830152614fc4816144a1565b9050919050565b60006020820190508181036000830152614fe481614507565b9050919050565b600060208201905081810360008301526150048161456d565b9050919050565b60006020820190508181036000830152615024816145ad565b9050919050565b60006040820190506150406000830184614613565b92915050565b600060408201905061505b6000830184614681565b92915050565b6000610140820190506150776000830189614681565b6150846040830188614681565b6150916080830187614613565b61509e60c0830186614b8f565b6150ab60e0830185614613565b6150b9610120830184613a9b565b979650505050505050565b6000610160820190506150da6000830185614a51565b8181036101408301526150ed818461471a565b90509392505050565b600060408201905081810360008301526151108185614ace565b9050818103602083015261512481846147f9565b90509392505050565b60006020820190506151426000830184614b8f565b92915050565b6000604051905081810181811067ffffffffffffffff8211171561516f5761516e61543b565b5b8060405250919050565b600067ffffffffffffffff8211156151945761519361543b565b5b602082029050919050565b600067ffffffffffffffff8211156151ba576151b961543b565b5b602082029050602081019050919050565b600067ffffffffffffffff8211156151e6576151e561543b565b5b602082029050602081019050919050565b600067ffffffffffffffff8211156152125761521161543b565b5b601f19601f8301169050602081019050919050565b6000819050602082019050919050565b6000819050919050565b6000819050602082019050919050565b6000819050602082019050919050565b600081519050919050565b600060029050919050565b600081519050919050565b600081519050919050565b600081519050919050565b6000602082019050919050565b6000602082019050919050565b6000602082019050919050565b6000602082019050919050565b600082825260208201905092915050565b600081905092915050565b600081905092915050565b600082825260208201905092915050565b600082825260208201905092915050565b600082825260208201905092915050565b600082825260208201905092915050565b600082825260208201905092915050565b60006153576020840184612dd2565b905092915050565b600061536a82615399565b9050919050565b600061537c82615399565b9050919050565b60008115159050919050565b6000819050919050565b600073ffffffffffffffffffffffffffffffffffffffff82169050919050565b6000819050919050565b60006153ce826153d5565b9050919050565b60006153e0826153e7565b9050919050565b60006153f282615399565b9050919050565b82818337600083830152505050565b60005b8381101561542657808201518184015260208101905061540b565b83811115615435576000848401525b50505050565bfe5b6000601f19601f8301169050919050565b6154578161535f565b811461546257600080fd5b50565b61546e81615371565b811461547957600080fd5b50565b61548581615383565b811461549057600080fd5b50565b61549c8161538f565b81146154a757600080fd5b50565b6154b3816153b9565b81146154be57600080fd5b5056fea2646970667358221220255bfa7f98b2002a4de78983cfdd6472214c82b8c0c5b4ac27170ebebd3da95f64736f6c63430007060033",
  "immutableReferences": {},
  "source": "// SPDX-License-Identifier: MIT\npragma solidity 0.7.6;\npragma experimental ABIEncoderV2;\n\nimport \"./Utils.sol\";\nimport \"./BeldexBase.sol\";\n\ncontract BeldexETH is BeldexBase {\n\n    using Utils for uint256;\n    using Utils for Utils.G1Point;\n\n    constructor(address _transfer, address _redeem, uint256 _unit) BeldexBase(_transfer, _redeem, _unit) {\n    }\n\n    function mint(Utils.G1Point calldata y, uint256 unitAmount, bytes calldata encGuess) public payable {\n        uint256 mUnitAmount = toUnitAmount(msg.value);\n        require(unitAmount == mUnitAmount, \"[Beldex mint] Specified mint amount is differnet from the paid amount.\");\n\n        mintBase(y, unitAmount, encGuess);\n    }\n\n    function redeem(Utils.G1Point calldata y, uint256 unitAmount, Utils.G1Point calldata u, bytes calldata proof, bytes calldata encGuess) public {\n        uint256 nativeAmount = toNativeAmount(unitAmount);\n\n        redeemBase(y, unitAmount, u, proof, encGuess);\n\n        payable(msg.sender).transfer(nativeAmount);\n    }\n\n    function transfer(Utils.G1Point[] memory C, Utils.G1Point memory D, \n                      Utils.G1Point[] memory y, Utils.G1Point memory u, \n                      bytes memory proof) public payable {\n\n        // TODO: check that sender and receiver should NOT be equal.\n        uint256 size = y.length;\n        Utils.G1Point[] memory CLn = new Utils.G1Point[](size);\n        Utils.G1Point[] memory CRn = new Utils.G1Point[](size);\n        require(C.length == size, \"[Beldex transfer] Input array length mismatch!\");\n\n\n        for (uint256 i = 0; i < size; i++) {\n            bytes32 yHash = keccak256(abi.encode(y[i]));\n            require(registered(yHash), \"[Beldex transfer] Account not yet registered.\");\n            rollOver(yHash);\n            Utils.G1Point[2] memory scratch = pending[yHash];\n            pending[yHash][0] = scratch[0].pAdd(C[i]);\n            pending[yHash][1] = scratch[1].pAdd(D);\n\n            scratch = acc[yHash];\n            CLn[i] = scratch[0].pAdd(C[i]);\n            CRn[i] = scratch[1].pAdd(D);\n        }\n\n        bytes32 uHash = keccak256(abi.encode(u));\n        for (uint256 i = 0; i < nonce_set.length; i++) {\n            require(nonce_set[i] != uHash, \"[Beldex transfer] Nonce already seen!\");\n        }\n        nonce_set.push(uHash);\n\n        BeldexTransfer.Statement memory beldex_stm = beldex_transfer.wrapStatement(CLn, CRn, C, D, y, last_global_update, u);\n        BeldexTransfer.Proof memory beldex_proof = beldex_transfer.unserialize(proof);\n\n        require(beldex_transfer.verify(beldex_stm, beldex_proof), \"[Beldex transfer] Failed: verification\");\n\n        emit TransferOccurred(y);\n    }\n\n}",
  "sourcePath": "/Users/apple/Documents/beldex-project/privacy-protocol/beldex-privacy-protocol-update/contracts/BeldexETH.sol",
  "compiler": {
    "name": "solc",
    "version": "0.7.6+commit.7338295f.Emscripten.clang"
  },
  "schemaVersion": "3.4.16",
  "updatedAt": "2024-01-23T10:58:34.486Z",
  "networkType": "ethereum",
  "devdoc": {
    "kind": "dev",
    "methods": {},
    "version": 1
  },
  "userdoc": {
    "kind": "user",
    "methods": {},
    "version": 1
  }
}