{
  "contractName": "BeldexETH",
  "abi": [
    {
      "inputs": [
        {
          "internalType": "address",
          "name": "_transfer",
          "type": "address"
        },
        {
          "internalType": "address",
          "name": "_redeem",
          "type": "address"
        },
        {
          "internalType": "uint256",
          "name": "_unit",
          "type": "uint256"
        }
      ],
      "stateMutability": "nonpayable",
      "type": "constructor"
    },
    {
      "anonymous": false,
      "inputs": [
        {
          "indexed": false,
          "internalType": "string",
          "name": "label",
          "type": "string"
        },
        {
          "indexed": true,
          "internalType": "uint256",
          "name": "value",
          "type": "uint256"
        }
      ],
      "name": "LogUint256",
      "type": "event"
    },
    {
      "anonymous": false,
      "inputs": [
        {
          "components": [
            {
              "internalType": "bytes32",
              "name": "x",
              "type": "bytes32"
            },
            {
              "internalType": "bytes32",
              "name": "y",
              "type": "bytes32"
            }
          ],
          "indexed": false,
          "internalType": "struct Utils.G1Point[]",
          "name": "parties",
          "type": "tuple[]"
        }
      ],
      "name": "TransferOccurred",
      "type": "event"
    },
    {
      "inputs": [],
      "name": "MAX",
      "outputs": [
        {
          "internalType": "uint256",
          "name": "",
          "type": "uint256"
        }
      ],
      "stateMutability": "view",
      "type": "function",
      "constant": true
    },
    {
      "inputs": [],
      "name": "balance_log",
      "outputs": [
        {
          "internalType": "uint256",
          "name": "",
          "type": "uint256"
        }
      ],
      "stateMutability": "view",
      "type": "function",
      "constant": true
    },
    {
      "inputs": [],
      "name": "beldex_agency",
      "outputs": [
        {
          "internalType": "address payable",
          "name": "",
          "type": "address"
        }
      ],
      "stateMutability": "view",
      "type": "function",
      "constant": true
    },
    {
      "inputs": [],
      "name": "deposits_log",
      "outputs": [
        {
          "internalType": "uint256",
          "name": "",
          "type": "uint256"
        }
      ],
      "stateMutability": "view",
      "type": "function",
      "constant": true
    },
    {
      "inputs": [
        {
          "components": [
            {
              "internalType": "bytes32",
              "name": "x",
              "type": "bytes32"
            },
            {
              "internalType": "bytes32",
              "name": "y",
              "type": "bytes32"
            }
          ],
          "internalType": "struct Utils.G1Point",
          "name": "y",
          "type": "tuple"
        }
      ],
      "name": "getAccountState",
      "outputs": [
        {
          "components": [
            {
              "internalType": "bytes32",
              "name": "x",
              "type": "bytes32"
            },
            {
              "internalType": "bytes32",
              "name": "y",
              "type": "bytes32"
            }
          ],
          "internalType": "struct Utils.G1Point[2]",
          "name": "y_available",
          "type": "tuple[2]"
        },
        {
          "components": [
            {
              "internalType": "bytes32",
              "name": "x",
              "type": "bytes32"
            },
            {
              "internalType": "bytes32",
              "name": "y",
              "type": "bytes32"
            }
          ],
          "internalType": "struct Utils.G1Point[2]",
          "name": "y_pending",
          "type": "tuple[2]"
        }
      ],
      "stateMutability": "view",
      "type": "function",
      "constant": true
    },
    {
      "inputs": [
        {
          "components": [
            {
              "internalType": "bytes32",
              "name": "x",
              "type": "bytes32"
            },
            {
              "internalType": "bytes32",
              "name": "y",
              "type": "bytes32"
            }
          ],
          "internalType": "struct Utils.G1Point[]",
          "name": "y",
          "type": "tuple[]"
        },
        {
          "internalType": "uint256",
          "name": "round",
          "type": "uint256"
        }
      ],
      "name": "getBalance",
      "outputs": [
        {
          "components": [
            {
              "internalType": "bytes32",
              "name": "x",
              "type": "bytes32"
            },
            {
              "internalType": "bytes32",
              "name": "y",
              "type": "bytes32"
            }
          ],
          "internalType": "struct Utils.G1Point[2][]",
          "name": "accounts",
          "type": "tuple[2][]"
        }
      ],
      "stateMutability": "view",
      "type": "function",
      "constant": true
    },
    {
      "inputs": [
        {
          "components": [
            {
              "internalType": "bytes32",
              "name": "x",
              "type": "bytes32"
            },
            {
              "internalType": "bytes32",
              "name": "y",
              "type": "bytes32"
            }
          ],
          "internalType": "struct Utils.G1Point",
          "name": "y",
          "type": "tuple"
        }
      ],
      "name": "getGuess",
      "outputs": [
        {
          "internalType": "bytes",
          "name": "y_guess",
          "type": "bytes"
        }
      ],
      "stateMutability": "view",
      "type": "function",
      "constant": true
    },
    {
      "inputs": [],
      "name": "last_global_update",
      "outputs": [
        {
          "internalType": "uint256",
          "name": "",
          "type": "uint256"
        }
      ],
      "stateMutability": "view",
      "type": "function",
      "constant": true
    },
    {
      "inputs": [
        {
          "internalType": "bytes32",
          "name": "",
          "type": "bytes32"
        }
      ],
      "name": "last_roll_over",
      "outputs": [
        {
          "internalType": "uint256",
          "name": "",
          "type": "uint256"
        }
      ],
      "stateMutability": "view",
      "type": "function",
      "constant": true
    },
    {
      "inputs": [],
      "name": "mint_count_log",
      "outputs": [
        {
          "internalType": "uint256",
          "name": "",
          "type": "uint256"
        }
      ],
      "stateMutability": "view",
      "type": "function",
      "constant": true
    },
    {
      "inputs": [
        {
          "components": [
            {
              "internalType": "bytes32",
              "name": "x",
              "type": "bytes32"
            },
            {
              "internalType": "bytes32",
              "name": "y",
              "type": "bytes32"
            }
          ],
          "internalType": "struct Utils.G1Point",
          "name": "y",
          "type": "tuple"
        },
        {
          "internalType": "uint256",
          "name": "c",
          "type": "uint256"
        },
        {
          "internalType": "uint256",
          "name": "s",
          "type": "uint256"
        }
      ],
      "name": "register",
      "outputs": [],
      "stateMutability": "nonpayable",
      "type": "function"
    },
    {
      "inputs": [
        {
          "internalType": "bytes32",
          "name": "yHash",
          "type": "bytes32"
        }
      ],
      "name": "registered",
      "outputs": [
        {
          "internalType": "bool",
          "name": "",
          "type": "bool"
        }
      ],
      "stateMutability": "view",
      "type": "function",
      "constant": true
    },
    {
      "inputs": [],
      "name": "round_base",
      "outputs": [
        {
          "internalType": "uint256",
          "name": "",
          "type": "uint256"
        }
      ],
      "stateMutability": "view",
      "type": "function",
      "constant": true
    },
    {
      "inputs": [],
      "name": "round_len",
      "outputs": [
        {
          "internalType": "uint256",
          "name": "",
          "type": "uint256"
        }
      ],
      "stateMutability": "view",
      "type": "function",
      "constant": true
    },
    {
      "inputs": [
        {
          "internalType": "address payable",
          "name": "_beldex_agency",
          "type": "address"
        }
      ],
      "name": "setBeldexAgency",
      "outputs": [],
      "stateMutability": "nonpayable",
      "type": "function"
    },
    {
      "inputs": [
        {
          "internalType": "uint256",
          "name": "_round_base",
          "type": "uint256"
        }
      ],
      "name": "setRoundBase",
      "outputs": [],
      "stateMutability": "nonpayable",
      "type": "function"
    },
    {
      "inputs": [
        {
          "internalType": "uint256",
          "name": "_round_len",
          "type": "uint256"
        }
      ],
      "name": "setRoundLen",
      "outputs": [],
      "stateMutability": "nonpayable",
      "type": "function"
    },
    {
      "inputs": [
        {
          "internalType": "uint256",
          "name": "_unit",
          "type": "uint256"
        }
      ],
      "name": "setUnit",
      "outputs": [],
      "stateMutability": "nonpayable",
      "type": "function"
    },
    {
      "inputs": [],
      "name": "unit",
      "outputs": [
        {
          "internalType": "uint256",
          "name": "",
          "type": "uint256"
        }
      ],
      "stateMutability": "view",
      "type": "function",
      "constant": true
    },
    {
      "inputs": [],
      "name": "users_log",
      "outputs": [
        {
          "internalType": "uint256",
          "name": "",
          "type": "uint256"
        }
      ],
      "stateMutability": "view",
      "type": "function",
      "constant": true
    },
    {
      "inputs": [
        {
          "components": [
            {
              "internalType": "bytes32",
              "name": "x",
              "type": "bytes32"
            },
            {
              "internalType": "bytes32",
              "name": "y",
              "type": "bytes32"
            }
          ],
          "internalType": "struct Utils.G1Point",
          "name": "y",
          "type": "tuple"
        },
        {
          "internalType": "uint256",
          "name": "unitAmount",
          "type": "uint256"
        },
        {
          "internalType": "bytes",
          "name": "encGuess",
          "type": "bytes"
        }
      ],
      "name": "mint",
      "outputs": [],
      "stateMutability": "payable",
      "type": "function",
      "payable": true
    },
    {
      "inputs": [
        {
          "components": [
            {
              "internalType": "bytes32",
              "name": "x",
              "type": "bytes32"
            },
            {
              "internalType": "bytes32",
              "name": "y",
              "type": "bytes32"
            }
          ],
          "internalType": "struct Utils.G1Point",
          "name": "y",
          "type": "tuple"
        },
        {
          "internalType": "uint256",
          "name": "unitAmount",
          "type": "uint256"
        },
        {
          "components": [
            {
              "internalType": "bytes32",
              "name": "x",
              "type": "bytes32"
            },
            {
              "internalType": "bytes32",
              "name": "y",
              "type": "bytes32"
            }
          ],
          "internalType": "struct Utils.G1Point",
          "name": "u",
          "type": "tuple"
        },
        {
          "internalType": "bytes",
          "name": "proof",
          "type": "bytes"
        },
        {
          "internalType": "bytes",
          "name": "encGuess",
          "type": "bytes"
        }
      ],
      "name": "redeem",
      "outputs": [],
      "stateMutability": "nonpayable",
      "type": "function"
    },
    {
      "inputs": [
        {
          "components": [
            {
              "internalType": "bytes32",
              "name": "x",
              "type": "bytes32"
            },
            {
              "internalType": "bytes32",
              "name": "y",
              "type": "bytes32"
            }
          ],
          "internalType": "struct Utils.G1Point[]",
          "name": "C",
          "type": "tuple[]"
        },
        {
          "components": [
            {
              "internalType": "bytes32",
              "name": "x",
              "type": "bytes32"
            },
            {
              "internalType": "bytes32",
              "name": "y",
              "type": "bytes32"
            }
          ],
          "internalType": "struct Utils.G1Point",
          "name": "D",
          "type": "tuple"
        },
        {
          "components": [
            {
              "internalType": "bytes32",
              "name": "x",
              "type": "bytes32"
            },
            {
              "internalType": "bytes32",
              "name": "y",
              "type": "bytes32"
            }
          ],
          "internalType": "struct Utils.G1Point[]",
          "name": "y",
          "type": "tuple[]"
        },
        {
          "components": [
            {
              "internalType": "bytes32",
              "name": "x",
              "type": "bytes32"
            },
            {
              "internalType": "bytes32",
              "name": "y",
              "type": "bytes32"
            }
          ],
          "internalType": "struct Utils.G1Point",
          "name": "u",
          "type": "tuple"
        },
        {
          "internalType": "bytes",
          "name": "proof",
          "type": "bytes"
        }
      ],
      "name": "transfer",
      "outputs": [],
      "stateMutability": "payable",
      "type": "function",
      "payable": true
    }
  ],
  "bytecode": "0x60806040526018600155600060025560006006556000600755600060085560006009556000600e553480156200003457600080fd5b506040516200517d3803806200517d83398181016040528101906200005a919062000161565b82828233600360006101000a81548173ffffffffffffffffffffffffffffffffffffffff021916908373ffffffffffffffffffffffffffffffffffffffff16021790555082600460006101000a81548173ffffffffffffffffffffffffffffffffffffffff021916908373ffffffffffffffffffffffffffffffffffffffff16021790555081600560006101000a81548173ffffffffffffffffffffffffffffffffffffffff021916908373ffffffffffffffffffffffffffffffffffffffff1602179055508060008190555050505050505062000229565b6000815190506200014481620001f5565b92915050565b6000815190506200015b816200020f565b92915050565b6000806000606084860312156200017757600080fd5b6000620001878682870162000133565b93505060206200019a8682870162000133565b9250506040620001ad868287016200014a565b9150509250925092565b6000620001c482620001cb565b9050919050565b600073ffffffffffffffffffffffffffffffffffffffff82169050919050565b6000819050919050565b6200020081620001b7565b81146200020c57600080fd5b50565b6200021a81620001eb565b81146200022657600080fd5b50565b614f4480620002396000396000f3fe6080604052600436106101405760003560e01c8063767b7d85116100b65780639b0d85d31161006f5780639b0d85d31461043f578063a568ce5114610468578063a9b05a56146104a6578063aae07890146104e3578063d49d51811461050c578063eff4d1781461053757610140565b8063767b7d85146103435780637b5b3b9f1461036c57806384f9b07a146103955780638ad747e0146103c0578063907af6c0146103eb57806397fc6f231461041657610140565b80634301a344116101085780634301a3441461021f5780634ad729e01461025c5780635524d54814610285578063566a8e62146102c257806362c4d3a3146102ed57806363bb012c1461031857610140565b80630221c717146101455780631522dd3b1461017057806327d084e71461019b57806328111120146101d85780632a6b024b14610203575b600080fd5b34801561015157600080fd5b5061015a610553565b6040516101679190614b7a565b60405180910390f35b34801561017c57600080fd5b50610185610559565b604051610192919061464b565b60405180910390f35b3480156101a757600080fd5b506101c260048036038101906101bd91906132bc565b61057f565b6040516101cf919061469d565b60405180910390f35b3480156101e457600080fd5b506101ed610826565b6040516101fa9190614b7a565b60405180910390f35b61021d60048036038101906102189190613362565b61082c565b005b34801561022b57600080fd5b5061024660048036038101906102419190613339565b61088e565b6040516102539190614b7a565b60405180910390f35b34801561026857600080fd5b50610283600480360381019061027e91906133ce565b6108a6565b005b34801561029157600080fd5b506102ac60048036038101906102a79190613339565b6108be565b6040516102b99190614797565b60405180910390f35b3480156102ce57600080fd5b506102d7610abf565b6040516102e49190614b7a565b60405180910390f35b3480156102f957600080fd5b50610302610ac5565b60405161030f9190614b7a565b60405180910390f35b34801561032457600080fd5b5061032d610acb565b60405161033a9190614b7a565b60405180910390f35b34801561034f57600080fd5b5061036a600480360381019061036591906135e3565b610ad1565b005b34801561037857600080fd5b50610393600480360381019061038e91906135e3565b610b6b565b005b3480156103a157600080fd5b506103aa610c05565b6040516103b79190614b7a565b60405180910390f35b3480156103cc57600080fd5b506103d5610c0b565b6040516103e29190614b7a565b60405180910390f35b3480156103f757600080fd5b50610400610c11565b60405161040d9190614b7a565b60405180910390f35b34801561042257600080fd5b5061043d600480360381019061043891906131d4565b610c17565b005b34801561044b57600080fd5b50610466600480360381019061046191906134a7565b610ceb565b005b34801561047457600080fd5b5061048f600480360381019061048a919061347e565b610eb6565b60405161049d9291906146bf565b60405180910390f35b3480156104b257600080fd5b506104cd60048036038101906104c8919061347e565b610fcf565b6040516104da91906147d6565b60405180910390f35b3480156104ef57600080fd5b5061050a600480360381019061050591906135e3565b6110b0565b005b34801561051857600080fd5b5061052161114a565b60405161052e9190614b7a565b60405180910390f35b610551600480360381019061054c91906131fd565b611152565b005b60015481565b600360009054906101000a900473ffffffffffffffffffffffffffffffffffffffff1681565b60606000835190508067ffffffffffffffff8111801561059e57600080fd5b506040519080825280602002602001820160405280156105d857816020015b6105c561259d565b8152602001906001900390816105bd5790505b50915060005b8181101561081e5760008582815181106105f457fe5b602002602001015160405160200161060c9190614a93565b604051602081830303815290604052805190602001209050600a6000828152602001908152602001600020600280602002604051908101604052809291906000905b8282101561068a57838260020201604051806040016040529081600082015481526020016001820154815250508152602001906001019061064e565b5050505084838151811061069a57fe5b602002602001018190525084600c6000838152602001908152602001600020541015610810576000600b6000838152602001908152602001600020600280602002604051908101604052809291906000905b828210156107285783826002020160405180604001604052908160008201548152602001600182015481525050815260200190600101906106ec565b5050505090506107768160006002811061073e57fe5b602002015186858151811061074f57fe5b602002602001015160006002811061076357fe5b602002015161189590919063ffffffff16565b85848151811061078257fe5b602002602001015160006002811061079657fe5b60200201819052506107e6816001600281106107ae57fe5b60200201518685815181106107bf57fe5b60200260200101516001600281106107d357fe5b602002015161189590919063ffffffff16565b8584815181106107f257fe5b602002602001015160016002811061080657fe5b6020020181905250505b5080806001019150506105de565b505092915050565b60095481565b6000610837346118d9565b905080841461087b576040517f08c379a0000000000000000000000000000000000000000000000000000000008152600401610872906148b8565b60405180910390fd5b61088785858585611994565b5050505050565b600c6020528060005260406000206000915090505481565b6108b587878787878787611b76565b50505050505050565b60008060405180604001604052806000801b81526020016000801b815250905060006040518060400160405280600a6000878152602001908152602001600020600280602002604051908101604052809291906000905b82821015610951578382600202016040518060400160405290816000820154815260200160018201548152505081526020019060010190610915565b505050508152602001600b6000878152602001908152602001600020600280602002604051908101604052809291906000905b828210156109c0578382600202016040518060400160405290816000820154815260200160018201548152505081526020019060010190610984565b5050505081525090506109fe82826000600281106109da57fe5b60200201516000600281106109eb57fe5b602002015161217790919063ffffffff16565b8015610a3b5750610a3a8282600060028110610a1657fe5b6020020151600160028110610a2757fe5b602002015161217790919063ffffffff16565b5b8015610a785750610a778282600160028110610a5357fe5b6020020151600060028110610a6457fe5b602002015161217790919063ffffffff16565b5b8015610ab55750610ab48282600160028110610a9057fe5b6020020151600160028110610aa157fe5b602002015161217790919063ffffffff16565b5b1592505050919050565b600e5481565b60085481565b60065481565b600360009054906101000a900473ffffffffffffffffffffffffffffffffffffffff1673ffffffffffffffffffffffffffffffffffffffff163373ffffffffffffffffffffffffffffffffffffffff1614610b61576040517f08c379a0000000000000000000000000000000000000000000000000000000008152600401610b5890614a38565b60405180910390fd5b8060018190555050565b600360009054906101000a900473ffffffffffffffffffffffffffffffffffffffff1673ffffffffffffffffffffffffffffffffffffffff163373ffffffffffffffffffffffffffffffffffffffff1614610bfb576040517f08c379a0000000000000000000000000000000000000000000000000000000008152600401610bf290614818565b60405180910390fd5b8060028190555050565b60075481565b60025481565b60005481565b600360009054906101000a900473ffffffffffffffffffffffffffffffffffffffff1673ffffffffffffffffffffffffffffffffffffffff163373ffffffffffffffffffffffffffffffffffffffff1614610ca7576040517f08c379a0000000000000000000000000000000000000000000000000000000008152600401610c9e90614838565b60405180910390fd5b80600360006101000a81548173ffffffffffffffffffffffffffffffffffffffff021916908373ffffffffffffffffffffffffffffffffffffffff16021790555050565b6000610d33610d0b610cfc8561219f565b866121cb90919063ffffffff16565b610d2584610d17612204565b6121cb90919063ffffffff16565b61189590919063ffffffff16565b90506000610d6d308684604051602001610d4f93929190614666565b6040516020818303038152906040528051906020012060001c61226c565b9050838114610db1576040517f08c379a0000000000000000000000000000000000000000000000000000000008152600401610da8906149b8565b60405180910390fd5b600085604051602001610dc49190614a93565b604051602081830303815290604052805190602001209050610de5816108be565b15610e25576040517f08c379a0000000000000000000000000000000000000000000000000000000008152600401610e1c90614898565b60405180910390fd5b85600b6000838152602001908152602001600020600060028110610e4557fe5b600202016000820151816000015560208201518160010155905050610e68612204565b600b6000838152602001908152602001600020600160028110610e8757fe5b600202016000820151816000015560208201518160010155905050600160075401600781905550505050505050565b610ebe61259d565b610ec661259d565b600083604051602001610ed99190614a93565b604051602081830303815290604052805190602001209050600a6000828152602001908152602001600020600280602002604051908101604052809291906000905b82821015610f57578382600202016040518060400160405290816000820154815260200160018201548152505081526020019060010190610f1b565b505050509250600b6000828152602001908152602001600020600280602002604051908101604052809291906000905b82821015610fc3578382600202016040518060400160405290816000820154815260200160018201548152505081526020019060010190610f87565b50505050915050915091565b6060600082604051602001610fe49190614a93565b604051602081830303815290604052805190602001209050600f60008281526020019081526020016000208054600181600116156101000203166002900480601f0160208091040260200160405190810160405280929190818152602001828054600181600116156101000203166002900480156110a35780601f10611078576101008083540402835291602001916110a3565b820191906000526020600020905b81548152906001019060200180831161108657829003601f168201915b5050505050915050919050565b600360009054906101000a900473ffffffffffffffffffffffffffffffffffffffff1673ffffffffffffffffffffffffffffffffffffffff163373ffffffffffffffffffffffffffffffffffffffff1614611140576040517f08c379a0000000000000000000000000000000000000000000000000000000008152600401611137906149d8565b60405180910390fd5b8060008190555050565b63ffffffff81565b60008351905060008167ffffffffffffffff8111801561117157600080fd5b506040519080825280602002602001820160405280156111ab57816020015b6111986125ca565b8152602001906001900390816111905790505b50905060008267ffffffffffffffff811180156111c757600080fd5b5060405190808252806020026020018201604052801561120157816020015b6111ee6125ca565b8152602001906001900390816111e65790505b50905082885114611247576040517f08c379a000000000000000000000000000000000000000000000000000000000815260040161123e90614978565b60405180910390fd5b60005b8381101561152257600087828151811061126057fe5b60200260200101516040516020016112789190614a93565b604051602081830303815290604052805190602001209050611299816108be565b6112d8576040517f08c379a00000000000000000000000000000000000000000000000000000000081526004016112cf90614998565b60405180910390fd5b6112e18161229f565b6000600b6000838152602001908152602001600020600280602002604051908101604052809291906000905b8282101561134957838260020201604051806040016040529081600082015481526020016001820154815250508152602001906001019061130d565b5050505090506113868b848151811061135e57fe5b60200260200101518260006002811061137357fe5b602002015161189590919063ffffffff16565b600b60008481526020019081526020016000206000600281106113a557fe5b6002020160008201518160000155602082015181600101559050506113e48a826001600281106113d157fe5b602002015161189590919063ffffffff16565b600b600084815260200190815260200160002060016002811061140357fe5b600202016000820151816000015560208201518160010155905050600a6000838152602001908152602001600020600280602002604051908101604052809291906000905b82821015611484578382600202016040518060400160405290816000820154815260200160018201548152505081526020019060010190611448565b5050505090506114c18b848151811061149957fe5b6020026020010151826000600281106114ae57fe5b602002015161189590919063ffffffff16565b8584815181106114cd57fe5b60200260200101819052506114fc8a826001600281106114e957fe5b602002015161189590919063ffffffff16565b84848151811061150857fe5b60200260200101819052505050808060010191505061124a565b506000856040516020016115369190614a93565b60405160208183030381529060405280519060200120905060005b600d805490508110156115c55781600d828154811061156c57fe5b906000526020600020015414156115b8576040517f08c379a00000000000000000000000000000000000000000000000000000000081526004016115af906148d8565b60405180910390fd5b8080600101915050611551565b50600d8190806001815401808255809150506001900390600052602060002001600090919091909150556000600460009054906101000a900473ffffffffffffffffffffffffffffffffffffffff1673ffffffffffffffffffffffffffffffffffffffff16639471ac0a85858d8d8d600e548e6040518863ffffffff1660e01b815260040161165a979695949392919061470b565b60006040518083038186803b15801561167257600080fd5b505afa158015611686573d6000803e3d6000fd5b505050506040513d6000823e3d601f19601f820116820180604052508101906116af91906135a2565b90506000600460009054906101000a900473ffffffffffffffffffffffffffffffffffffffff1673ffffffffffffffffffffffffffffffffffffffff1663f98f0cc9886040518263ffffffff1660e01b815260040161170e91906147d6565b60006040518083038186803b15801561172657600080fd5b505afa15801561173a573d6000803e3d6000fd5b505050506040513d6000823e3d601f19601f820116820180604052508101906117639190613537565b9050600460009054906101000a900473ffffffffffffffffffffffffffffffffffffffff1673ffffffffffffffffffffffffffffffffffffffff1663a529878e83836040518363ffffffff1660e01b81526004016117c2929190614b43565b60206040518083038186803b1580156117da57600080fd5b505afa1580156117ee573d6000803e3d6000fd5b505050506040513d601f19601f820116820180604052508101906118129190613310565b611851576040517f08c379a0000000000000000000000000000000000000000000000000000000008152600401611848906148f8565b60405180910390fd5b7f9b814ae8a45a4c40d4c60ffa92e0c4b76dec41407cb28b43df9daffa3685f9ac8960405161188091906146e9565b60405180910390a15050505050505050505050565b61189d6125ca565b6040518351815260208401516020820152825160408201526020830151606082015260408260808360065afa6118d257600080fd5b5092915050565b60008060005483816118e757fe5b0614611928576040517f08c379a000000000000000000000000000000000000000000000000000000000815260040161191f90614958565b60405180910390fd5b60008054838161193457fe5b0490508060001115801561194c575063ffffffff8111155b61198b576040517f08c379a000000000000000000000000000000000000000000000000000000000815260040161198290614878565b60405180910390fd5b80915050919050565b63ffffffff83111580156119b0575063ffffffff836006540111155b6119ef576040517f08c379a00000000000000000000000000000000000000000000000000000000081526004016119e690614858565b60405180910390fd5b82600660008282540192505081905550826008600082825401925050819055506001600960008282540192505081905550600084604051602001611a339190614a78565b604051602081830303815290604052805190602001209050611a54816108be565b611a93576040517f08c379a0000000000000000000000000000000000000000000000000000000008152600401611a8a90614a58565b60405180910390fd5b611a9c8161229f565b6000600b6000838152602001908152602001600020600060028110611abd57fe5b60020201604051806040016040529081600082015481526020016001820154815250509050611b0e611aff86611af1612204565b6121cb90919063ffffffff16565b8261189590919063ffffffff16565b905080600b6000848152602001908152602001600020600060028110611b3057fe5b6002020160008201518160000155602082015181600101559050508383600f60008581526020019081526020016000209190611b6d9291906125ea565b50505050505050565b856006541015611bbb576040517f08c379a0000000000000000000000000000000000000000000000000000000008152600401611bb290614918565b60405180910390fd5b85600660008282540392505081905550600087604051602001611bde9190614a78565b604051602081830303815290604052805190602001209050611bff816108be565b611c3e576040517f08c379a0000000000000000000000000000000000000000000000000000000008152600401611c3590614938565b60405180910390fd5b611c478161229f565b6000600b6000838152602001908152602001600020600280602002604051908101604052809291906000905b82821015611caf578382600202016040518060400160405290816000820154815260200160018201548152505081526020019060010190611c73565b505050509050611cfa611cda611cc48a61219f565b611ccc612204565b6121cb90919063ffffffff16565b82600060028110611ce757fe5b602002015161189590919063ffffffff16565b600b6000848152602001908152602001600020600060028110611d1957fe5b600202016000820151816000015560208201518160010155905050600a6000838152602001908152602001600020600280602002604051908101604052809291906000905b82821015611d9a578382600202016040518060400160405290816000820154815260200160018201548152505081526020019060010190611d5e565b505050509050611de5611dc5611daf8a61219f565b611db7612204565b6121cb90919063ffffffff16565b82600060028110611dd257fe5b602002015161189590919063ffffffff16565b81600060028110611df257fe5b6020020181905250600087604051602001611e0d9190614a78565b60405160208183030381529060405280519060200120905060005b600d80549050811015611e9c5781600d8281548110611e4357fe5b90600052602060002001541415611e8f576040517f08c379a0000000000000000000000000000000000000000000000000000000008152600401611e86906147f8565b60405180910390fd5b8080600101915050611e28565b50600d8190806001815401808255809150506001900390600052602060002001600090919091909150558484600f60008681526020019081526020016000209190611ee89291906125ea565b506000600560009054906101000a900473ffffffffffffffffffffffffffffffffffffffff1673ffffffffffffffffffffffffffffffffffffffff1663bba28e3c84600060028110611f3657fe5b602002015185600160028110611f4857fe5b60200201518e600e548e336040518763ffffffff1660e01b8152600401611f7496959493929190614aae565b6101406040518083038186803b158015611f8d57600080fd5b505afa158015611fa1573d6000803e3d6000fd5b505050506040513d601f19601f82011682018060405250810190611fc59190613578565b90506000600560009054906101000a900473ffffffffffffffffffffffffffffffffffffffff1673ffffffffffffffffffffffffffffffffffffffff1663f98f0cc98a8a6040518363ffffffff1660e01b81526004016120269291906147b2565b60006040518083038186803b15801561203e57600080fd5b505afa158015612052573d6000803e3d6000fd5b505050506040513d6000823e3d601f19601f8201168201806040525081019061207b91906134f6565b9050600560009054906101000a900473ffffffffffffffffffffffffffffffffffffffff1673ffffffffffffffffffffffffffffffffffffffff1663d039751f83836040518363ffffffff1660e01b81526004016120da929190614b11565b60206040518083038186803b1580156120f257600080fd5b505afa158015612106573d6000803e3d6000fd5b505050506040513d601f19601f8201168201806040525081019061212a9190613310565b612169576040517f08c379a0000000000000000000000000000000000000000000000000000000008152600401612160906149f8565b60405180910390fd5b505050505050505050505050565b600081600001518360000151148015612197575081602001518360200151145b905092915050565b6000817f30644e72e131a029b85045b68181585d2833e84879b9709143e1f593f0000001039050919050565b6121d36125ca565b604051835181526020840151602082015282604082015260408260608360075afa6121fd57600080fd5b5092915050565b61220c6125ca565b60405180604001604052807f077da99d806abd13c9f15ece5398525119d11e11e9836b2ee7d23f6159ad87d460001b81526020017f01485efa927f2ad41bff567eec88f32fb0a0f706588b4e41a8d587d008b7f87560001b815250905090565b60007f30644e72e131a029b85045b68181585d2833e84879b9709143e1f593f0000001828161229757fe5b069050919050565b60008060025414156122be5760015443816122b657fe5b049050612318565b600160025414156122dc5760015442816122d457fe5b049050612317565b6040517f08c379a000000000000000000000000000000000000000000000000000000000815260040161230e90614a18565b60405180910390fd5b5b80600c60008481526020019081526020016000205410156125795760006040518060400160405280600a6000868152602001908152602001600020600280602002604051908101604052809291906000905b828210156123a657838260020201604051806040016040529081600082015481526020016001820154815250508152602001906001019061236a565b505050508152602001600b6000868152602001908152602001600020600280602002604051908101604052809291906000905b828210156124155783826002020160405180604001604052908160008201548152602001600182015481525050815260200190600101906123d9565b5050505081525090506124758160016002811061242e57fe5b602002015160006002811061243f57fe5b60200201518260006002811061245157fe5b602002015160006002811061246257fe5b602002015161189590919063ffffffff16565b600a600085815260200190815260200160002060006002811061249457fe5b600202016000820151816000015560208201518160010155905050612506816001600281106124bf57fe5b60200201516001600281106124d057fe5b6020020151826000600281106124e257fe5b60200201516001600281106124f357fe5b602002015161189590919063ffffffff16565b600a600085815260200190815260200160002060016002811061252557fe5b600202016000820151816000015560208201518160010155905050600b6000848152602001908152602001600020600061255f9190612678565b81600c600085815260200190815260200160002081905550505b80600e5410156125995780600e81905550600d600061259891906126a3565b5b5050565b60405180604001604052806002905b6125b46125ca565b8152602001906001900390816125ac5790505090565b604051806040016040528060008019168152602001600080191681525090565b828054600181600116156101000203166002900490600052602060002090601f0160209004810192826126205760008555612667565b82601f1061263957803560ff1916838001178555612667565b82800160010185558215612667579182015b8281111561266657823582559160200191906001019061264b565b5b50905061267491906126c4565b5090565b5060008082016000905560018201600090555060020160008082016000905560018201600090555050565b50805460008255906000526020600020908101906126c191906126e1565b50565b5b808211156126dd5760008160009055506001016126c5565b5090565b5b808211156126fa5760008160009055506001016126e2565b5090565b600061271161270c84614bc6565b614b95565b9050808285604086028201111561272757600080fd5b60005b85811015612757578161273d8882612acc565b84526020840193506040830192505060018101905061272a565b5050509392505050565b600061277461276f84614bec565b614b95565b9050808382526020820190508285604086028201111561279357600080fd5b60005b858110156127c357816127a98882612a80565b845260208401935060408301925050600181019050612796565b5050509392505050565b60006127e06127db84614bec565b614b95565b905080838252602082019050828560408602820111156127ff57600080fd5b60005b8581101561282f57816128158882612acc565b845260208401935060408301925050600181019050612802565b5050509392505050565b600061284c61284784614c18565b614b95565b9050808382526020820190508285602086028201111561286b57600080fd5b60005b8581101561289b578161288188826131bf565b84526020840193506020830192505060018101905061286e565b5050509392505050565b60006128b86128b384614c44565b614b95565b9050828152602081018484840111156128d057600080fd5b6128db848285614e46565b509392505050565b6000815190506128f281614e9b565b92915050565b60008135905061290781614eb2565b92915050565b600082601f83011261291e57600080fd5b600261292b8482856126fe565b91505092915050565b600082601f83011261294557600080fd5b8135612955848260208601612761565b91505092915050565b600082601f83011261296f57600080fd5b815161297f8482602086016127cd565b91505092915050565b600082601f83011261299957600080fd5b81516129a9848260208601612839565b91505092915050565b6000815190506129c181614ec9565b92915050565b6000813590506129d681614ee0565b92915050565b6000815190506129eb81614ee0565b92915050565b60008083601f840112612a0357600080fd5b8235905067ffffffffffffffff811115612a1c57600080fd5b602083019150836001820283011115612a3457600080fd5b9250929050565b600082601f830112612a4c57600080fd5b8135612a5c8482602086016128a5565b91505092915050565b600060408284031215612a7757600080fd5b81905092915050565b600060408284031215612a9257600080fd5b612a9c6040614b95565b90506000612aac848285016129c7565b6000830152506020612ac0848285016129c7565b60208301525092915050565b600060408284031215612ade57600080fd5b612ae86040614b95565b90506000612af8848285016129dc565b6000830152506020612b0c848285016129dc565b60208301525092915050565b600060808284031215612b2a57600080fd5b612b346080614b95565b9050600082015167ffffffffffffffff811115612b5057600080fd5b612b5c8482850161295e565b600083015250602082015167ffffffffffffffff811115612b7c57600080fd5b612b888482850161295e565b6020830152506040612b9c848285016131bf565b6040830152506060612bb0848285016131bf565b60608301525092915050565b60006101e08284031215612bcf57600080fd5b612bda610140614b95565b90506000612bea84828501612acc565b6000830152506040612bfe84828501612acc565b6020830152506080612c128482850161290d565b604083015250610100612c27848285016131bf565b606083015250610120612c3c848285016131bf565b608083015250610140612c51848285016131bf565b60a083015250610160612c66848285016131bf565b60c083015250610180612c7b848285016131bf565b60e0830152506101a0612c90848285016131bf565b610100830152506101c082015167ffffffffffffffff811115612cb257600080fd5b612cbe84828501612b18565b6101208301525092915050565b60006104008284031215612cde57600080fd5b612ce9610320614b95565b90506000612cf984828501612acc565b6000830152506040612d0d84828501612acc565b6020830152506080612d2184828501612acc565b60408301525060c0612d3584828501612acc565b60608301525061010082015167ffffffffffffffff811115612d5657600080fd5b612d628482850161295e565b60808301525061012082015167ffffffffffffffff811115612d8357600080fd5b612d8f8482850161295e565b60a08301525061014082015167ffffffffffffffff811115612db057600080fd5b612dbc8482850161295e565b60c08301525061016082015167ffffffffffffffff811115612ddd57600080fd5b612de98482850161295e565b60e08301525061018082015167ffffffffffffffff811115612e0a57600080fd5b612e168482850161295e565b610100830152506101a082015167ffffffffffffffff811115612e3857600080fd5b612e448482850161295e565b610120830152506101c082015167ffffffffffffffff811115612e6657600080fd5b612e728482850161295e565b610140830152506101e082015167ffffffffffffffff811115612e9457600080fd5b612ea08482850161295e565b6101608301525061020082015167ffffffffffffffff811115612ec257600080fd5b612ece84828501612988565b61018083015250610220612ee4848285016131bf565b6101a083015250610240612efa848285016131bf565b6101c083015250610260612f10848285016131bf565b6101e083015250610280612f268482850161290d565b61020083015250610300612f3c848285016131bf565b61022083015250610320612f52848285016131bf565b61024083015250610340612f68848285016131bf565b61026083015250610360612f7e848285016131bf565b61028083015250610380612f94848285016131bf565b6102a0830152506103a0612faa848285016131bf565b6102c0830152506103c0612fc0848285016131bf565b6102e0830152506103e082015167ffffffffffffffff811115612fe257600080fd5b612fee84828501612b18565b6103008301525092915050565b6000610140828403121561300e57600080fd5b61301860c0614b95565b9050600061302884828501612acc565b600083015250604061303c84828501612acc565b602083015250608061305084828501612acc565b60408301525060c0613064848285016131bf565b60608301525060e061307884828501612acc565b60808301525061012061308d848285016128e3565b60a08301525092915050565b600061012082840312156130ac57600080fd5b6130b660e0614b95565b9050600082015167ffffffffffffffff8111156130d257600080fd5b6130de8482850161295e565b600083015250602082015167ffffffffffffffff8111156130fe57600080fd5b61310a8482850161295e565b602083015250604082015167ffffffffffffffff81111561312a57600080fd5b6131368482850161295e565b604083015250606061314a84828501612acc565b60608301525060a082015167ffffffffffffffff81111561316a57600080fd5b6131768482850161295e565b60808301525060c061318a848285016131bf565b60a08301525060e061319e84828501612acc565b60c08301525092915050565b6000813590506131b981614ef7565b92915050565b6000815190506131ce81614ef7565b92915050565b6000602082840312156131e657600080fd5b60006131f4848285016128f8565b91505092915050565b600080600080600060e0868803121561321557600080fd5b600086013567ffffffffffffffff81111561322f57600080fd5b61323b88828901612934565b955050602061324c88828901612a80565b945050606086013567ffffffffffffffff81111561326957600080fd5b61327588828901612934565b935050608061328688828901612a80565b92505060c086013567ffffffffffffffff8111156132a357600080fd5b6132af88828901612a3b565b9150509295509295909350565b600080604083850312156132cf57600080fd5b600083013567ffffffffffffffff8111156132e957600080fd5b6132f585828601612934565b9250506020613306858286016131aa565b9150509250929050565b60006020828403121561332257600080fd5b6000613330848285016129b2565b91505092915050565b60006020828403121561334b57600080fd5b6000613359848285016129c7565b91505092915050565b6000806000806080858703121561337857600080fd5b600061338687828801612a65565b9450506040613397878288016131aa565b935050606085013567ffffffffffffffff8111156133b457600080fd5b6133c0878288016129f1565b925092505092959194509250565b600080600080600080600060e0888a0312156133e957600080fd5b60006133f78a828b01612a65565b97505060406134088a828b016131aa565b96505060606134198a828b01612a65565b95505060a088013567ffffffffffffffff81111561343657600080fd5b6134428a828b016129f1565b945094505060c088013567ffffffffffffffff81111561346157600080fd5b61346d8a828b016129f1565b925092505092959891949750929550565b60006040828403121561349057600080fd5b600061349e84828501612a80565b91505092915050565b6000806000608084860312156134bc57600080fd5b60006134ca86828701612a80565b93505060406134db868287016131aa565b92505060606134ec868287016131aa565b9150509250925092565b60006020828403121561350857600080fd5b600082015167ffffffffffffffff81111561352257600080fd5b61352e84828501612bbc565b91505092915050565b60006020828403121561354957600080fd5b600082015167ffffffffffffffff81111561356357600080fd5b61356f84828501612ccb565b91505092915050565b6000610140828403121561358b57600080fd5b600061359984828501612ffb565b91505092915050565b6000602082840312156135b457600080fd5b600082015167ffffffffffffffff8111156135ce57600080fd5b6135da84828501613099565b91505092915050565b6000602082840312156135f557600080fd5b6000613603848285016131aa565b91505092915050565b600061361883836136ee565b60808301905092915050565b600061363083836140ff565b60408301905092915050565b6000613648838361462d565b60208301905092915050565b61365d81614e10565b82525050565b61366c81614dbe565b82525050565b61367b81614dac565b82525050565b61368a81614dac565b82525050565b600061369b82614cae565b6136a58185614d19565b93506136b083614c74565b8060005b838110156136e15781516136c8888261360c565b97506136d383614ce5565b9250506001810190506136b4565b5085935050505092915050565b6136f781614cb9565b6137018184614d2a565b925061370c82614c84565b8060005b8381101561373d5781516137248782613624565b965061372f83614cf2565b925050600181019050613710565b505050505050565b61374e81614cb9565b6137588184614d35565b925061376382614c84565b8060005b8381101561379457815161377b8782613624565b965061378683614cf2565b925050600181019050613767565b505050505050565b60006137a782614cc4565b6137b18185614d40565b93506137bc83614c8e565b8060005b838110156137ed5781516137d48882613624565b97506137df83614cff565b9250506001810190506137c0565b5085935050505092915050565b600061380582614cc4565b61380f8185614d51565b935061381a83614c8e565b8060005b8381101561384b5781516138328882613624565b975061383d83614cff565b92505060018101905061381e565b5085935050505092915050565b600061386382614ccf565b61386d8185614d62565b935061387883614c9e565b8060005b838110156138a9578151613890888261363c565b975061389b83614d0c565b92505060018101905061387c565b5085935050505092915050565b6138bf81614dd0565b82525050565b6138ce81614ddc565b82525050565b60006138e08385614d73565b93506138ed838584614e46565b6138f683614e8a565b840190509392505050565b600061390c82614cda565b6139168185614d73565b9350613926818560208601614e55565b61392f81614e8a565b840191505092915050565b6000613947602383614d84565b91507f5b42656c6465782072656465656d5d204e6f6e636520616c726561647920736560008301527f656e2100000000000000000000000000000000000000000000000000000000006020830152604082019050919050565b60006139ad603483614d84565b91507f5065726d697373696f6e2064656e6965643a204f6e6c792061646d696e20636160008301527f6e206368616e676520726f756e6420626173652e0000000000000000000000006020830152604082019050919050565b6000613a13603083614d84565b91507f5065726d697373696f6e2064656e6965643a204f6e6c792061646d696e20636160008301527f6e206368616e6765206167656e63792e000000000000000000000000000000006020830152604082019050919050565b6000613a79603683614d84565b91507f5b42656c646578206d696e745d204d696e742070757368657320636f6e74726160008301527f63742070617374206d6178696d756d2076616c75652e000000000000000000006020830152604082019050919050565b6000613adf601483614d84565b91507f416d6f756e74206f7574206f662072616e67652e0000000000000000000000006000830152602082019050919050565b6000613b1f601b83614d84565b91507f4163636f756e7420616c726561647920726567697374657265642100000000006000830152602082019050919050565b6000613b5f604683614d84565b91507f5b42656c646578206d696e745d20537065636966696564206d696e7420616d6f60008301527f756e74206973206469666665726e65742066726f6d207468652070616964206160208301527f6d6f756e742e00000000000000000000000000000000000000000000000000006040830152606082019050919050565b6000613beb602583614d84565b91507f5b42656c646578207472616e736665725d204e6f6e636520616c72656164792060008301527f7365656e210000000000000000000000000000000000000000000000000000006020830152604082019050919050565b6000613c51602683614d84565b91507f5b42656c646578207472616e736665725d204661696c65643a2076657269666960008301527f636174696f6e00000000000000000000000000000000000000000000000000006020830152604082019050919050565b6000613cb7602e83614d84565b91507f5b42656c6465782072656465656d5d204661696c65643a20496e76616c69642060008301527f72656465656d20616d6f756e742e0000000000000000000000000000000000006020830152604082019050919050565b6000613d1d602b83614d84565b91507f5b42656c6465782072656465656d5d204163636f756e74206e6f74207965742060008301527f726567697374657265642e0000000000000000000000000000000000000000006020830152604082019050919050565b6000613d83602983614d84565b91507f4e617469766520616d6f756e74206d757374206265206d756c7469706c65206f60008301527f66206120756e69742e00000000000000000000000000000000000000000000006020830152604082019050919050565b6000613de9602e83614d84565b91507f5b42656c646578207472616e736665725d20496e707574206172726179206c6560008301527f6e677468206d69736d61746368210000000000000000000000000000000000006020830152604082019050919050565b6000613e4f602d83614d84565b91507f5b42656c646578207472616e736665725d204163636f756e74206e6f7420796560008301527f7420726567697374657265642e000000000000000000000000000000000000006020830152604082019050919050565b6000613eb5601f83614d84565b91507f496e76616c696420726567697374726174696f6e207369676e617475726521006000830152602082019050919050565b6000613ef5602e83614d84565b91507f5065726d697373696f6e2064656e6965643a204f6e6c792061646d696e20636160008301527f6e206368616e676520756e69742e0000000000000000000000000000000000006020830152604082019050919050565b6000613f5b602583614d84565b91507f5b42656c6465782072656465656d5d204661696c65643a20766572696669636160008301527f74696f6e210000000000000000000000000000000000000000000000000000006020830152604082019050919050565b6000613fc1601383614d84565b91507f496e76616c696420726f756e6420626173652e000000000000000000000000006000830152602082019050919050565b6000614001603683614d84565b91507f5065726d697373696f6e2064656e6965643a204f6e6c792061646d696e20636160008301527f6e206368616e676520726f756e64206c656e6774682e000000000000000000006020830152604082019050919050565b6000614067602983614d84565b91507f5b42656c646578206d696e745d204163636f756e74206e6f742079657420726560008301527f67697374657265642e00000000000000000000000000000000000000000000006020830152604082019050919050565b604082016140d16000830183614d95565b6140de60008501826138c5565b506140ec6020830183614d95565b6140f960208501826138c5565b50505050565b60408201600082015161411560008501826138c5565b50602082015161412860208501826138c5565b50505050565b60408201600082015161414460008501826138c5565b50602082015161415760208501826138c5565b50505050565b6000608083016000830151848203600086015261417a828261379c565b91505060208301518482036020860152614194828261379c565b91505060408301516141a9604086018261462d565b5060608301516141bc606086018261462d565b508091505092915050565b60006101e0830160008301516141e060008601826140ff565b5060208301516141f360408601826140ff565b50604083015161420660808601826136ee565b50606083015161421a61010086018261462d565b50608083015161422e61012086018261462d565b5060a083015161424261014086018261462d565b5060c083015161425661016086018261462d565b5060e083015161426a61018086018261462d565b5061010083015161427f6101a086018261462d565b506101208301518482036101c0860152614299828261415d565b9150508091505092915050565b6000610400830160008301516142bf60008601826140ff565b5060208301516142d260408601826140ff565b5060408301516142e560808601826140ff565b5060608301516142f860c08601826140ff565b506080830151848203610100860152614311828261379c565b91505060a083015184820361012086015261432c828261379c565b91505060c0830151848203610140860152614347828261379c565b91505060e0830151848203610160860152614362828261379c565b91505061010083015184820361018086015261437e828261379c565b9150506101208301518482036101a086015261439a828261379c565b9150506101408301518482036101c08601526143b6828261379c565b9150506101608301518482036101e08601526143d2828261379c565b9150506101808301518482036102008601526143ee8282613858565b9150506101a083015161440561022086018261462d565b506101c083015161441a61024086018261462d565b506101e083015161442f61026086018261462d565b506102008301516144446102808601826136ee565b5061022083015161445961030086018261462d565b5061024083015161446e61032086018261462d565b5061026083015161448361034086018261462d565b5061028083015161449861036086018261462d565b506102a08301516144ad61038086018261462d565b506102c08301516144c26103a086018261462d565b506102e08301516144d76103c086018261462d565b506103008301518482036103e08601526144f1828261415d565b9150508091505092915050565b6101408201600082015161451560008501826140ff565b50602082015161452860408501826140ff565b50604082015161453b60808501826140ff565b50606082015161454e60c085018261462d565b50608082015161456160e08501826140ff565b5060a0820151614575610120850182613672565b50505050565b6000610120830160008301518482036000860152614599828261379c565b915050602083015184820360208601526145b3828261379c565b915050604083015184820360408601526145cd828261379c565b91505060608301516145e260608601826140ff565b50608083015184820360a08601526145fa828261379c565b91505060a083015161460f60c086018261462d565b5060c083015161462260e08601826140ff565b508091505092915050565b61463681614e06565b82525050565b61464581614e06565b82525050565b60006020820190506146606000830184613663565b92915050565b600060a08201905061467b6000830186613681565b614688602083018561412e565b614695606083018461412e565b949350505050565b600060208201905081810360008301526146b78184613690565b905092915050565b6000610100820190506146d56000830185613745565b6146e26080830184613745565b9392505050565b6000602082019050818103600083015261470381846137fa565b905092915050565b6000610120820190508181036000830152614726818a6137fa565b9050818103602083015261473a81896137fa565b9050818103604083015261474e81886137fa565b905061475d606083018761412e565b81810360a083015261476f81866137fa565b905061477e60c083018561463c565b61478b60e083018461412e565b98975050505050505050565b60006020820190506147ac60008301846138b6565b92915050565b600060208201905081810360008301526147cd8184866138d4565b90509392505050565b600060208201905081810360008301526147f08184613901565b905092915050565b600060208201905081810360008301526148118161393a565b9050919050565b60006020820190508181036000830152614831816139a0565b9050919050565b6000602082019050818103600083015261485181613a06565b9050919050565b6000602082019050818103600083015261487181613a6c565b9050919050565b6000602082019050818103600083015261489181613ad2565b9050919050565b600060208201905081810360008301526148b181613b12565b9050919050565b600060208201905081810360008301526148d181613b52565b9050919050565b600060208201905081810360008301526148f181613bde565b9050919050565b6000602082019050818103600083015261491181613c44565b9050919050565b6000602082019050818103600083015261493181613caa565b9050919050565b6000602082019050818103600083015261495181613d10565b9050919050565b6000602082019050818103600083015261497181613d76565b9050919050565b6000602082019050818103600083015261499181613ddc565b9050919050565b600060208201905081810360008301526149b181613e42565b9050919050565b600060208201905081810360008301526149d181613ea8565b9050919050565b600060208201905081810360008301526149f181613ee8565b9050919050565b60006020820190508181036000830152614a1181613f4e565b9050919050565b60006020820190508181036000830152614a3181613fb4565b9050919050565b60006020820190508181036000830152614a5181613ff4565b9050919050565b60006020820190508181036000830152614a718161405a565b9050919050565b6000604082019050614a8d60008301846140c0565b92915050565b6000604082019050614aa8600083018461412e565b92915050565b600061014082019050614ac4600083018961412e565b614ad1604083018861412e565b614ade60808301876140c0565b614aeb60c083018661463c565b614af860e08301856140c0565b614b06610120830184613654565b979650505050505050565b600061016082019050614b2760008301856144fe565b818103610140830152614b3a81846141c7565b90509392505050565b60006040820190508181036000830152614b5d818561457b565b90508181036020830152614b7181846142a6565b90509392505050565b6000602082019050614b8f600083018461463c565b92915050565b6000604051905081810181811067ffffffffffffffff82111715614bbc57614bbb614e88565b5b8060405250919050565b600067ffffffffffffffff821115614be157614be0614e88565b5b602082029050919050565b600067ffffffffffffffff821115614c0757614c06614e88565b5b602082029050602081019050919050565b600067ffffffffffffffff821115614c3357614c32614e88565b5b602082029050602081019050919050565b600067ffffffffffffffff821115614c5f57614c5e614e88565b5b601f19601f8301169050602081019050919050565b6000819050602082019050919050565b6000819050919050565b6000819050602082019050919050565b6000819050602082019050919050565b600081519050919050565b600060029050919050565b600081519050919050565b600081519050919050565b600081519050919050565b6000602082019050919050565b6000602082019050919050565b6000602082019050919050565b6000602082019050919050565b600082825260208201905092915050565b600081905092915050565b600081905092915050565b600082825260208201905092915050565b600082825260208201905092915050565b600082825260208201905092915050565b600082825260208201905092915050565b600082825260208201905092915050565b6000614da460208401846129c7565b905092915050565b6000614db782614de6565b9050919050565b6000614dc982614de6565b9050919050565b60008115159050919050565b6000819050919050565b600073ffffffffffffffffffffffffffffffffffffffff82169050919050565b6000819050919050565b6000614e1b82614e22565b9050919050565b6000614e2d82614e34565b9050919050565b6000614e3f82614de6565b9050919050565b82818337600083830152505050565b60005b83811015614e73578082015181840152602081019050614e58565b83811115614e82576000848401525b50505050565bfe5b6000601f19601f8301169050919050565b614ea481614dac565b8114614eaf57600080fd5b50565b614ebb81614dbe565b8114614ec657600080fd5b50565b614ed281614dd0565b8114614edd57600080fd5b50565b614ee981614ddc565b8114614ef457600080fd5b50565b614f0081614e06565b8114614f0b57600080fd5b5056fea2646970667358221220599f61e3d59b450bf2476561140d72b1d18db0a4cb72235a06f835ec235093b064736f6c63430007060033",
  "immutableReferences": {},
  "source": "// SPDX-License-Identifier: MIT\npragma solidity 0.7.6;\npragma experimental ABIEncoderV2;\n\nimport \"./Utils.sol\";\nimport \"./BeldexBase.sol\";\n\ncontract BeldexETH is BeldexBase {\n\n    using Utils for uint256;\n    using Utils for Utils.G1Point;\n\n    constructor(address _transfer, address _redeem, uint256 _unit) BeldexBase(_transfer, _redeem, _unit) {\n    }\n\n    function mint(Utils.G1Point calldata y, uint256 unitAmount, bytes calldata encGuess) public payable {\n        uint256 mUnitAmount = toUnitAmount(msg.value);\n        require(unitAmount == mUnitAmount, \"[Beldex mint] Specified mint amount is differnet from the paid amount.\");\n\n        mintBase(y, unitAmount, encGuess);\n    }\n\n    function redeem(Utils.G1Point calldata y, uint256 unitAmount, Utils.G1Point calldata u, bytes calldata proof, bytes calldata encGuess) public {\n        // uint256 nativeAmount = toNativeAmount(unitAmount);\n        // uint256 fee = nativeAmount * redeem_fee_numerator / redeem_fee_denominator; \n\n        redeemBase(y, unitAmount, u, proof, encGuess);\n\n        // if (fee > 0) {\n        //     beldex_agency.transfer(fee);\n        //     redeem_fee_log = redeem_fee_log + fee;\n        // }\n        // payable(msg.sender).transfer(nativeAmount-fee);\n    }\n\n    function transfer(Utils.G1Point[] memory C, Utils.G1Point memory D, \n                      Utils.G1Point[] memory y, Utils.G1Point memory u, \n                      bytes memory proof) public payable {\n\n        // uint256 startGas = gasleft();\n\n        // TODO: check that sender and receiver should NOT be equal.\n        uint256 size = y.length;\n        Utils.G1Point[] memory CLn = new Utils.G1Point[](size);\n        Utils.G1Point[] memory CRn = new Utils.G1Point[](size);\n        require(C.length == size, \"[Beldex transfer] Input array length mismatch!\");\n\n\n        for (uint256 i = 0; i < size; i++) {\n            bytes32 yHash = keccak256(abi.encode(y[i]));\n            require(registered(yHash), \"[Beldex transfer] Account not yet registered.\");\n            rollOver(yHash);\n            Utils.G1Point[2] memory scratch = pending[yHash];\n            pending[yHash][0] = scratch[0].pAdd(C[i]);\n            pending[yHash][1] = scratch[1].pAdd(D);\n\n            scratch = acc[yHash];\n            CLn[i] = scratch[0].pAdd(C[i]);\n            CRn[i] = scratch[1].pAdd(D);\n        }\n\n        bytes32 uHash = keccak256(abi.encode(u));\n        for (uint256 i = 0; i < nonce_set.length; i++) {\n            require(nonce_set[i] != uHash, \"[Beldex transfer] Nonce already seen!\");\n        }\n        nonce_set.push(uHash);\n\n        BeldexTransfer.Statement memory beldex_stm = beldex_transfer.wrapStatement(CLn, CRn, C, D, y, last_global_update, u);\n        BeldexTransfer.Proof memory beldex_proof = beldex_transfer.unserialize(proof);\n\n        require(beldex_transfer.verify(beldex_stm, beldex_proof), \"[Beldex transfer] Failed: verification\");\n\n        // uint256 usedGas = startGas - gasleft();\n        \n        // uint256 fee = (usedGas * transfer_fee_numerator / transfer_fee_denominator) * tx.gasprice;\n        // if (fee > 0) {\n        //     require(msg.value >= fee, \"[Beldex transfer] Not enough fee sent with the transfer transaction.\");\n        //     beldex_agency.transfer(fee);\n        //     transfer_fee_log = transfer_fee_log + fee;\n        // }\n        // payable(msg.sender).transfer(msg.value - fee);\n\n        emit TransferOccurred(y);\n    }\n\n}",
  "sourcePath": "/Users/apple/Documents/beldex-project/privacy-protocol/beldex-privacy-protocol-update/contracts/BeldexETH.sol",
  "compiler": {
    "name": "solc",
    "version": "0.7.6+commit.7338295f.Emscripten.clang"
  },
  "schemaVersion": "3.4.16",
  "updatedAt": "2024-01-18T10:44:32.412Z",
  "networkType": "ethereum",
  "devdoc": {
    "kind": "dev",
    "methods": {},
    "version": 1
  },
  "userdoc": {
    "kind": "user",
    "methods": {},
    "version": 1
  }
}