{
  "contractName": "BeldexETH",
  "abi": [
    {
      "inputs": [
        {
          "internalType": "address",
          "name": "_transfer",
          "type": "address"
        },
        {
          "internalType": "address",
          "name": "_redeem",
          "type": "address"
        },
        {
          "internalType": "uint256",
          "name": "_unit",
          "type": "uint256"
        }
      ],
      "stateMutability": "nonpayable",
      "type": "constructor"
    },
    {
      "anonymous": false,
      "inputs": [
        {
          "indexed": false,
          "internalType": "string",
          "name": "label",
          "type": "string"
        },
        {
          "indexed": true,
          "internalType": "uint256",
          "name": "value",
          "type": "uint256"
        }
      ],
      "name": "LogUint256",
      "type": "event"
    },
    {
      "anonymous": false,
      "inputs": [
        {
          "components": [
            {
              "internalType": "bytes32",
              "name": "x",
              "type": "bytes32"
            },
            {
              "internalType": "bytes32",
              "name": "y",
              "type": "bytes32"
            }
          ],
          "indexed": false,
          "internalType": "struct Utils.G1Point[]",
          "name": "parties",
          "type": "tuple[]"
        }
      ],
      "name": "TransferOccurred",
      "type": "event"
    },
    {
      "inputs": [],
      "name": "MAX",
      "outputs": [
        {
          "internalType": "uint256",
          "name": "",
          "type": "uint256"
        }
      ],
      "stateMutability": "view",
      "type": "function",
      "constant": true
    },
    {
      "inputs": [],
      "name": "balance_log",
      "outputs": [
        {
          "internalType": "uint256",
          "name": "",
          "type": "uint256"
        }
      ],
      "stateMutability": "view",
      "type": "function",
      "constant": true
    },
    {
      "inputs": [],
      "name": "beldex_agency",
      "outputs": [
        {
          "internalType": "address payable",
          "name": "",
          "type": "address"
        }
      ],
      "stateMutability": "view",
      "type": "function",
      "constant": true
    },
    {
      "inputs": [],
      "name": "deposits_log",
      "outputs": [
        {
          "internalType": "uint256",
          "name": "",
          "type": "uint256"
        }
      ],
      "stateMutability": "view",
      "type": "function",
      "constant": true
    },
    {
      "inputs": [
        {
          "components": [
            {
              "internalType": "bytes32",
              "name": "x",
              "type": "bytes32"
            },
            {
              "internalType": "bytes32",
              "name": "y",
              "type": "bytes32"
            }
          ],
          "internalType": "struct Utils.G1Point",
          "name": "y",
          "type": "tuple"
        }
      ],
      "name": "getAccountState",
      "outputs": [
        {
          "components": [
            {
              "internalType": "bytes32",
              "name": "x",
              "type": "bytes32"
            },
            {
              "internalType": "bytes32",
              "name": "y",
              "type": "bytes32"
            }
          ],
          "internalType": "struct Utils.G1Point[2]",
          "name": "y_available",
          "type": "tuple[2]"
        },
        {
          "components": [
            {
              "internalType": "bytes32",
              "name": "x",
              "type": "bytes32"
            },
            {
              "internalType": "bytes32",
              "name": "y",
              "type": "bytes32"
            }
          ],
          "internalType": "struct Utils.G1Point[2]",
          "name": "y_pending",
          "type": "tuple[2]"
        }
      ],
      "stateMutability": "view",
      "type": "function",
      "constant": true
    },
    {
      "inputs": [
        {
          "components": [
            {
              "internalType": "bytes32",
              "name": "x",
              "type": "bytes32"
            },
            {
              "internalType": "bytes32",
              "name": "y",
              "type": "bytes32"
            }
          ],
          "internalType": "struct Utils.G1Point[]",
          "name": "y",
          "type": "tuple[]"
        },
        {
          "internalType": "uint256",
          "name": "round",
          "type": "uint256"
        }
      ],
      "name": "getBalance",
      "outputs": [
        {
          "components": [
            {
              "internalType": "bytes32",
              "name": "x",
              "type": "bytes32"
            },
            {
              "internalType": "bytes32",
              "name": "y",
              "type": "bytes32"
            }
          ],
          "internalType": "struct Utils.G1Point[2][]",
          "name": "accounts",
          "type": "tuple[2][]"
        }
      ],
      "stateMutability": "view",
      "type": "function",
      "constant": true
    },
    {
      "inputs": [
        {
          "components": [
            {
              "internalType": "bytes32",
              "name": "x",
              "type": "bytes32"
            },
            {
              "internalType": "bytes32",
              "name": "y",
              "type": "bytes32"
            }
          ],
          "internalType": "struct Utils.G1Point",
          "name": "y",
          "type": "tuple"
        }
      ],
      "name": "getGuess",
      "outputs": [
        {
          "internalType": "bytes",
          "name": "y_guess",
          "type": "bytes"
        }
      ],
      "stateMutability": "view",
      "type": "function",
      "constant": true
    },
    {
      "inputs": [],
      "name": "last_global_update",
      "outputs": [
        {
          "internalType": "uint256",
          "name": "",
          "type": "uint256"
        }
      ],
      "stateMutability": "view",
      "type": "function",
      "constant": true
    },
    {
      "inputs": [
        {
          "internalType": "bytes32",
          "name": "",
          "type": "bytes32"
        }
      ],
      "name": "last_roll_over",
      "outputs": [
        {
          "internalType": "uint256",
          "name": "",
          "type": "uint256"
        }
      ],
      "stateMutability": "view",
      "type": "function",
      "constant": true
    },
    {
      "inputs": [],
      "name": "mint_count_log",
      "outputs": [
        {
          "internalType": "uint256",
          "name": "",
          "type": "uint256"
        }
      ],
      "stateMutability": "view",
      "type": "function",
      "constant": true
    },
    {
      "inputs": [],
      "name": "redeem_fee_denominator",
      "outputs": [
        {
          "internalType": "uint256",
          "name": "",
          "type": "uint256"
        }
      ],
      "stateMutability": "view",
      "type": "function",
      "constant": true
    },
    {
      "inputs": [],
      "name": "redeem_fee_log",
      "outputs": [
        {
          "internalType": "uint256",
          "name": "",
          "type": "uint256"
        }
      ],
      "stateMutability": "view",
      "type": "function",
      "constant": true
    },
    {
      "inputs": [],
      "name": "redeem_fee_numerator",
      "outputs": [
        {
          "internalType": "uint256",
          "name": "",
          "type": "uint256"
        }
      ],
      "stateMutability": "view",
      "type": "function",
      "constant": true
    },
    {
      "inputs": [
        {
          "components": [
            {
              "internalType": "bytes32",
              "name": "x",
              "type": "bytes32"
            },
            {
              "internalType": "bytes32",
              "name": "y",
              "type": "bytes32"
            }
          ],
          "internalType": "struct Utils.G1Point",
          "name": "y",
          "type": "tuple"
        },
        {
          "internalType": "uint256",
          "name": "c",
          "type": "uint256"
        },
        {
          "internalType": "uint256",
          "name": "s",
          "type": "uint256"
        }
      ],
      "name": "register",
      "outputs": [],
      "stateMutability": "nonpayable",
      "type": "function"
    },
    {
      "inputs": [
        {
          "internalType": "bytes32",
          "name": "yHash",
          "type": "bytes32"
        }
      ],
      "name": "registered",
      "outputs": [
        {
          "internalType": "bool",
          "name": "",
          "type": "bool"
        }
      ],
      "stateMutability": "view",
      "type": "function",
      "constant": true
    },
    {
      "inputs": [],
      "name": "round_base",
      "outputs": [
        {
          "internalType": "uint256",
          "name": "",
          "type": "uint256"
        }
      ],
      "stateMutability": "view",
      "type": "function",
      "constant": true
    },
    {
      "inputs": [],
      "name": "round_len",
      "outputs": [
        {
          "internalType": "uint256",
          "name": "",
          "type": "uint256"
        }
      ],
      "stateMutability": "view",
      "type": "function",
      "constant": true
    },
    {
      "inputs": [
        {
          "internalType": "address payable",
          "name": "_beldex_agency",
          "type": "address"
        }
      ],
      "name": "setBeldexAgency",
      "outputs": [],
      "stateMutability": "nonpayable",
      "type": "function"
    },
    {
      "inputs": [
        {
          "internalType": "uint256",
          "name": "numerator",
          "type": "uint256"
        },
        {
          "internalType": "uint256",
          "name": "denominator",
          "type": "uint256"
        }
      ],
      "name": "setRedeemFeeStrategy",
      "outputs": [],
      "stateMutability": "nonpayable",
      "type": "function"
    },
    {
      "inputs": [
        {
          "internalType": "uint256",
          "name": "_round_base",
          "type": "uint256"
        }
      ],
      "name": "setRoundBase",
      "outputs": [],
      "stateMutability": "nonpayable",
      "type": "function"
    },
    {
      "inputs": [
        {
          "internalType": "uint256",
          "name": "_round_len",
          "type": "uint256"
        }
      ],
      "name": "setRoundLen",
      "outputs": [],
      "stateMutability": "nonpayable",
      "type": "function"
    },
    {
      "inputs": [
        {
          "internalType": "uint256",
          "name": "numerator",
          "type": "uint256"
        },
        {
          "internalType": "uint256",
          "name": "denominator",
          "type": "uint256"
        }
      ],
      "name": "setTransferFeeStrategy",
      "outputs": [],
      "stateMutability": "nonpayable",
      "type": "function"
    },
    {
      "inputs": [
        {
          "internalType": "uint256",
          "name": "_unit",
          "type": "uint256"
        }
      ],
      "name": "setUnit",
      "outputs": [],
      "stateMutability": "nonpayable",
      "type": "function"
    },
    {
      "inputs": [],
      "name": "transfer_fee_denominator",
      "outputs": [
        {
          "internalType": "uint256",
          "name": "",
          "type": "uint256"
        }
      ],
      "stateMutability": "view",
      "type": "function",
      "constant": true
    },
    {
      "inputs": [],
      "name": "transfer_fee_log",
      "outputs": [
        {
          "internalType": "uint256",
          "name": "",
          "type": "uint256"
        }
      ],
      "stateMutability": "view",
      "type": "function",
      "constant": true
    },
    {
      "inputs": [],
      "name": "transfer_fee_numerator",
      "outputs": [
        {
          "internalType": "uint256",
          "name": "",
          "type": "uint256"
        }
      ],
      "stateMutability": "view",
      "type": "function",
      "constant": true
    },
    {
      "inputs": [],
      "name": "unit",
      "outputs": [
        {
          "internalType": "uint256",
          "name": "",
          "type": "uint256"
        }
      ],
      "stateMutability": "view",
      "type": "function",
      "constant": true
    },
    {
      "inputs": [],
      "name": "users_log",
      "outputs": [
        {
          "internalType": "uint256",
          "name": "",
          "type": "uint256"
        }
      ],
      "stateMutability": "view",
      "type": "function",
      "constant": true
    },
    {
      "inputs": [
        {
          "components": [
            {
              "internalType": "bytes32",
              "name": "x",
              "type": "bytes32"
            },
            {
              "internalType": "bytes32",
              "name": "y",
              "type": "bytes32"
            }
          ],
          "internalType": "struct Utils.G1Point",
          "name": "y",
          "type": "tuple"
        },
        {
          "internalType": "uint256",
          "name": "unitAmount",
          "type": "uint256"
        },
        {
          "internalType": "bytes",
          "name": "encGuess",
          "type": "bytes"
        }
      ],
      "name": "mint",
      "outputs": [],
      "stateMutability": "payable",
      "type": "function",
      "payable": true
    },
    {
      "inputs": [
        {
          "components": [
            {
              "internalType": "bytes32",
              "name": "x",
              "type": "bytes32"
            },
            {
              "internalType": "bytes32",
              "name": "y",
              "type": "bytes32"
            }
          ],
          "internalType": "struct Utils.G1Point",
          "name": "y",
          "type": "tuple"
        },
        {
          "internalType": "uint256",
          "name": "unitAmount",
          "type": "uint256"
        },
        {
          "components": [
            {
              "internalType": "bytes32",
              "name": "x",
              "type": "bytes32"
            },
            {
              "internalType": "bytes32",
              "name": "y",
              "type": "bytes32"
            }
          ],
          "internalType": "struct Utils.G1Point",
          "name": "u",
          "type": "tuple"
        },
        {
          "internalType": "bytes",
          "name": "proof",
          "type": "bytes"
        },
        {
          "internalType": "bytes",
          "name": "encGuess",
          "type": "bytes"
        }
      ],
      "name": "redeem",
      "outputs": [],
      "stateMutability": "nonpayable",
      "type": "function"
    },
    {
      "inputs": [
        {
          "components": [
            {
              "internalType": "bytes32",
              "name": "x",
              "type": "bytes32"
            },
            {
              "internalType": "bytes32",
              "name": "y",
              "type": "bytes32"
            }
          ],
          "internalType": "struct Utils.G1Point[]",
          "name": "C",
          "type": "tuple[]"
        },
        {
          "components": [
            {
              "internalType": "bytes32",
              "name": "x",
              "type": "bytes32"
            },
            {
              "internalType": "bytes32",
              "name": "y",
              "type": "bytes32"
            }
          ],
          "internalType": "struct Utils.G1Point",
          "name": "D",
          "type": "tuple"
        },
        {
          "components": [
            {
              "internalType": "bytes32",
              "name": "x",
              "type": "bytes32"
            },
            {
              "internalType": "bytes32",
              "name": "y",
              "type": "bytes32"
            }
          ],
          "internalType": "struct Utils.G1Point[]",
          "name": "y",
          "type": "tuple[]"
        },
        {
          "components": [
            {
              "internalType": "bytes32",
              "name": "x",
              "type": "bytes32"
            },
            {
              "internalType": "bytes32",
              "name": "y",
              "type": "bytes32"
            }
          ],
          "internalType": "struct Utils.G1Point",
          "name": "u",
          "type": "tuple"
        },
        {
          "internalType": "bytes",
          "name": "proof",
          "type": "bytes"
        }
      ],
      "name": "transfer",
      "outputs": [],
      "stateMutability": "payable",
      "type": "function",
      "payable": true
    }
  ],
  "bytecode": "0x60806040526018600155600060025560016004556064600555600160065560056007556000600a556000600b556000600c556000600d556000600e556000600f5560006014553480156200005257600080fd5b50604051620059be380380620059be83398181016040528101906200007891906200017f565b82828233600360006101000a81548173ffffffffffffffffffffffffffffffffffffffff021916908373ffffffffffffffffffffffffffffffffffffffff16021790555082600860006101000a81548173ffffffffffffffffffffffffffffffffffffffff021916908373ffffffffffffffffffffffffffffffffffffffff16021790555081600960006101000a81548173ffffffffffffffffffffffffffffffffffffffff021916908373ffffffffffffffffffffffffffffffffffffffff1602179055508060008190555050505050505062000247565b600081519050620001628162000213565b92915050565b60008151905062000179816200022d565b92915050565b6000806000606084860312156200019557600080fd5b6000620001a58682870162000151565b9350506020620001b88682870162000151565b9250506040620001cb8682870162000168565b9150509250925092565b6000620001e282620001e9565b9050919050565b600073ffffffffffffffffffffffffffffffffffffffff82169050919050565b6000819050919050565b6200021e81620001d5565b81146200022a57600080fd5b50565b620002388162000209565b81146200024457600080fd5b50565b61576780620002576000396000f3fe6080604052600436106101d85760003560e01c806384f9b07a11610102578063b47e51d711610095578063dcfa1e5d11610064578063dcfa1e5d146106a4578063ddf911da146106cf578063eff4d178146106fa578063f487e95214610716576101d8565b8063b47e51d7146105f8578063b5753dee14610623578063d49d51811461064e578063d90d3a5814610679576101d8565b80639b0d85d3116100d15780639b0d85d31461052b578063a568ce5114610554578063a9b05a5614610592578063aae07890146105cf576101d8565b806384f9b07a146104815780638ad747e0146104ac578063907af6c0146104d757806397fc6f2314610502576101d8565b80635524d5481161017a5780637207f20e116101495780637207f20e146103db57806375236e3f14610404578063767b7d851461042f5780637b5b3b9f14610458576101d8565b80635524d5481461031d578063566a8e621461035a57806362c4d3a31461038557806363bb012c146103b0576101d8565b806328111120116101b657806328111120146102705780632a6b024b1461029b5780634301a344146102b75780634ad729e0146102f4576101d8565b80630221c717146101dd5780631522dd3b1461020857806327d084e714610233575b600080fd5b3480156101e957600080fd5b506101f261073f565b6040516101ff919061539d565b60405180910390f35b34801561021457600080fd5b5061021d610745565b60405161022a9190614dee565b60405180910390f35b34801561023f57600080fd5b5061025a6004803603810190610255919061388b565b61076b565b6040516102679190614e40565b60405180910390f35b34801561027c57600080fd5b50610285610a12565b604051610292919061539d565b60405180910390f35b6102b560048036038101906102b09190613931565b610a18565b005b3480156102c357600080fd5b506102de60048036038101906102d99190613908565b610a7a565b6040516102eb919061539d565b60405180910390f35b34801561030057600080fd5b5061031b6004803603810190610316919061399d565b610a92565b005b34801561032957600080fd5b50610344600480360381019061033f9190613908565b610b94565b6040516103519190614f3a565b60405180910390f35b34801561036657600080fd5b5061036f610d95565b60405161037c919061539d565b60405180910390f35b34801561039157600080fd5b5061039a610d9b565b6040516103a7919061539d565b60405180910390f35b3480156103bc57600080fd5b506103c5610da1565b6040516103d2919061539d565b60405180910390f35b3480156103e757600080fd5b5061040260048036038101906103fd9190613bdb565b610da7565b005b34801561041057600080fd5b50610419610e49565b604051610426919061539d565b60405180910390f35b34801561043b57600080fd5b5061045660048036038101906104519190613bb2565b610e4f565b005b34801561046457600080fd5b5061047f600480360381019061047a9190613bb2565b610ee9565b005b34801561048d57600080fd5b50610496610f83565b6040516104a3919061539d565b60405180910390f35b3480156104b857600080fd5b506104c1610f89565b6040516104ce919061539d565b60405180910390f35b3480156104e357600080fd5b506104ec610f8f565b6040516104f9919061539d565b60405180910390f35b34801561050e57600080fd5b50610529600480360381019061052491906137a3565b610f95565b005b34801561053757600080fd5b50610552600480360381019061054d9190613a76565b611069565b005b34801561056057600080fd5b5061057b60048036038101906105769190613a4d565b611234565b604051610589929190614e62565b60405180910390f35b34801561059e57600080fd5b506105b960048036038101906105b49190613a4d565b61134d565b6040516105c69190614f79565b60405180910390f35b3480156105db57600080fd5b506105f660048036038101906105f19190613bb2565b61142e565b005b34801561060457600080fd5b5061060d6114c8565b60405161061a919061539d565b60405180910390f35b34801561062f57600080fd5b506106386114ce565b604051610645919061539d565b60405180910390f35b34801561065a57600080fd5b506106636114d4565b604051610670919061539d565b60405180910390f35b34801561068557600080fd5b5061068e6114dc565b60405161069b919061539d565b60405180910390f35b3480156106b057600080fd5b506106b96114e2565b6040516106c6919061539d565b60405180910390f35b3480156106db57600080fd5b506106e46114e8565b6040516106f1919061539d565b60405180910390f35b610714600480360381019061070f91906137cc565b6114ee565b005b34801561072257600080fd5b5061073d60048036038101906107389190613bdb565b611d60565b005b60015481565b600360009054906101000a900473ffffffffffffffffffffffffffffffffffffffff1681565b60606000835190508067ffffffffffffffff8111801561078a57600080fd5b506040519080825280602002602001820160405280156107c457816020015b6107b1612b6c565b8152602001906001900390816107a95790505b50915060005b81811015610a0a5760008582815181106107e057fe5b60200260200101516040516020016107f891906152b6565b60405160208183030381529060405280519060200120905060106000828152602001908152602001600020600280602002604051908101604052809291906000905b8282101561087657838260020201604051806040016040529081600082015481526020016001820154815250508152602001906001019061083a565b5050505084838151811061088657fe5b602002602001018190525084601260008381526020019081526020016000205410156109fc57600060116000838152602001908152602001600020600280602002604051908101604052809291906000905b828210156109145783826002020160405180604001604052908160008201548152602001600182015481525050815260200190600101906108d8565b5050505090506109628160006002811061092a57fe5b602002015186858151811061093b57fe5b602002602001015160006002811061094f57fe5b6020020151611e0290919063ffffffff16565b85848151811061096e57fe5b602002602001015160006002811061098257fe5b60200201819052506109d28160016002811061099a57fe5b60200201518685815181106109ab57fe5b60200260200101516001600281106109bf57fe5b6020020151611e0290919063ffffffff16565b8584815181106109de57fe5b60200260200101516001600281106109f257fe5b6020020181905250505b5080806001019150506107ca565b505092915050565b600f5481565b6000610a2334611e46565b9050808414610a67576040517f08c379a0000000000000000000000000000000000000000000000000000000008152600401610a5e9061507b565b60405180910390fd5b610a7385858585611f01565b5050505050565b60126020528060005260406000206000915090505481565b6000610a9d876120e3565b90506000600554600454830281610ab057fe5b049050610ac289898989898989612145565b6000811115610b4057600360009054906101000a900473ffffffffffffffffffffffffffffffffffffffff1673ffffffffffffffffffffffffffffffffffffffff166108fc829081150290604051600060405180830381858888f19350505050158015610b33573d6000803e3d6000fd5b5080600c5401600c819055505b3373ffffffffffffffffffffffffffffffffffffffff166108fc8284039081150290604051600060405180830381858888f19350505050158015610b88573d6000803e3d6000fd5b50505050505050505050565b60008060405180604001604052806000801b81526020016000801b81525090506000604051806040016040528060106000878152602001908152602001600020600280602002604051908101604052809291906000905b82821015610c27578382600202016040518060400160405290816000820154815260200160018201548152505081526020019060010190610beb565b50505050815260200160116000878152602001908152602001600020600280602002604051908101604052809291906000905b82821015610c96578382600202016040518060400160405290816000820154815260200160018201548152505081526020019060010190610c5a565b505050508152509050610cd48282600060028110610cb057fe5b6020020151600060028110610cc157fe5b602002015161274690919063ffffffff16565b8015610d115750610d108282600060028110610cec57fe5b6020020151600160028110610cfd57fe5b602002015161274690919063ffffffff16565b5b8015610d4e5750610d4d8282600160028110610d2957fe5b6020020151600060028110610d3a57fe5b602002015161274690919063ffffffff16565b5b8015610d8b5750610d8a8282600160028110610d6657fe5b6020020151600160028110610d7757fe5b602002015161274690919063ffffffff16565b5b1592505050919050565b60145481565b600e5481565b600a5481565b600360009054906101000a900473ffffffffffffffffffffffffffffffffffffffff1673ffffffffffffffffffffffffffffffffffffffff163373ffffffffffffffffffffffffffffffffffffffff1614610e37576040517f08c379a0000000000000000000000000000000000000000000000000000000008152600401610e2e906151db565b60405180910390fd5b81600681905550806007819055505050565b600d5481565b600360009054906101000a900473ffffffffffffffffffffffffffffffffffffffff1673ffffffffffffffffffffffffffffffffffffffff163373ffffffffffffffffffffffffffffffffffffffff1614610edf576040517f08c379a0000000000000000000000000000000000000000000000000000000008152600401610ed69061523b565b60405180910390fd5b8060018190555050565b600360009054906101000a900473ffffffffffffffffffffffffffffffffffffffff1673ffffffffffffffffffffffffffffffffffffffff163373ffffffffffffffffffffffffffffffffffffffff1614610f79576040517f08c379a0000000000000000000000000000000000000000000000000000000008152600401610f7090614fdb565b60405180910390fd5b8060028190555050565b600b5481565b60025481565b60005481565b600360009054906101000a900473ffffffffffffffffffffffffffffffffffffffff1673ffffffffffffffffffffffffffffffffffffffff163373ffffffffffffffffffffffffffffffffffffffff1614611025576040517f08c379a000000000000000000000000000000000000000000000000000000000815260040161101c90614ffb565b60405180910390fd5b80600360006101000a81548173ffffffffffffffffffffffffffffffffffffffff021916908373ffffffffffffffffffffffffffffffffffffffff16021790555050565b60006110b161108961107a8561276e565b8661279a90919063ffffffff16565b6110a3846110956127d3565b61279a90919063ffffffff16565b611e0290919063ffffffff16565b905060006110eb3086846040516020016110cd93929190614e09565b6040516020818303038152906040528051906020012060001c61283b565b905083811461112f576040517f08c379a00000000000000000000000000000000000000000000000000000000081526004016111269061517b565b60405180910390fd5b60008560405160200161114291906152b6565b60405160208183030381529060405280519060200120905061116381610b94565b156111a3576040517f08c379a000000000000000000000000000000000000000000000000000000000815260040161119a9061505b565b60405180910390fd5b85601160008381526020019081526020016000206000600281106111c357fe5b6002020160008201518160000155602082015181600101559050506111e66127d3565b6011600083815260200190815260200160002060016002811061120557fe5b6002020160008201518160000155602082015181600101559050506001600b5401600b81905550505050505050565b61123c612b6c565b611244612b6c565b60008360405160200161125791906152b6565b60405160208183030381529060405280519060200120905060106000828152602001908152602001600020600280602002604051908101604052809291906000905b828210156112d5578382600202016040518060400160405290816000820154815260200160018201548152505081526020019060010190611299565b50505050925060116000828152602001908152602001600020600280602002604051908101604052809291906000905b82821015611341578382600202016040518060400160405290816000820154815260200160018201548152505081526020019060010190611305565b50505050915050915091565b606060008260405160200161136291906152b6565b604051602081830303815290604052805190602001209050601560008281526020019081526020016000208054600181600116156101000203166002900480601f0160208091040260200160405190810160405280929190818152602001828054600181600116156101000203166002900480156114215780601f106113f657610100808354040283529160200191611421565b820191906000526020600020905b81548152906001019060200180831161140457829003601f168201915b5050505050915050919050565b600360009054906101000a900473ffffffffffffffffffffffffffffffffffffffff1673ffffffffffffffffffffffffffffffffffffffff163373ffffffffffffffffffffffffffffffffffffffff16146114be576040517f08c379a00000000000000000000000000000000000000000000000000000000081526004016114b59061519b565b60405180910390fd5b8060008190555050565b600c5481565b60075481565b63ffffffff81565b60065481565b60055481565b60045481565b60005a905060008451905060008167ffffffffffffffff8111801561151257600080fd5b5060405190808252806020026020018201604052801561154c57816020015b611539612b99565b8152602001906001900390816115315790505b50905060008267ffffffffffffffff8111801561156857600080fd5b506040519080825280602002602001820160405280156115a257816020015b61158f612b99565b8152602001906001900390816115875790505b509050828951146115e8576040517f08c379a00000000000000000000000000000000000000000000000000000000081526004016115df9061513b565b60405180910390fd5b60005b838110156118c357600088828151811061160157fe5b602002602001015160405160200161161991906152b6565b60405160208183030381529060405280519060200120905061163a81610b94565b611679576040517f08c379a00000000000000000000000000000000000000000000000000000000081526004016116709061515b565b60405180910390fd5b6116828161286e565b600060116000838152602001908152602001600020600280602002604051908101604052809291906000905b828210156116ea5783826002020160405180604001604052908160008201548152602001600182015481525050815260200190600101906116ae565b5050505090506117278c84815181106116ff57fe5b60200260200101518260006002811061171457fe5b6020020151611e0290919063ffffffff16565b6011600084815260200190815260200160002060006002811061174657fe5b6002020160008201518160000155602082015181600101559050506117858b8260016002811061177257fe5b6020020151611e0290919063ffffffff16565b601160008481526020019081526020016000206001600281106117a457fe5b60020201600082015181600001556020820151816001015590505060106000838152602001908152602001600020600280602002604051908101604052809291906000905b828210156118255783826002020160405180604001604052908160008201548152602001600182015481525050815260200190600101906117e9565b5050505090506118628c848151811061183a57fe5b60200260200101518260006002811061184f57fe5b6020020151611e0290919063ffffffff16565b85848151811061186e57fe5b602002602001018190525061189d8b8260016002811061188a57fe5b6020020151611e0290919063ffffffff16565b8484815181106118a957fe5b6020026020010181905250505080806001019150506115eb565b506000866040516020016118d791906152b6565b60405160208183030381529060405280519060200120905060005b60138054905081101561196657816013828154811061190d57fe5b90600052602060002001541415611959576040517f08c379a00000000000000000000000000000000000000000000000000000000081526004016119509061509b565b60405180910390fd5b80806001019150506118f2565b5060138190806001815401808255809150506001900390600052602060002001600090919091909150556000600860009054906101000a900473ffffffffffffffffffffffffffffffffffffffff1673ffffffffffffffffffffffffffffffffffffffff16639471ac0a85858e8e8e6014548f6040518863ffffffff1660e01b81526004016119fb9796959493929190614eae565b60006040518083038186803b158015611a1357600080fd5b505afa158015611a27573d6000803e3d6000fd5b505050506040513d6000823e3d601f19601f82011682018060405250810190611a509190613b71565b90506000600860009054906101000a900473ffffffffffffffffffffffffffffffffffffffff1673ffffffffffffffffffffffffffffffffffffffff1663f98f0cc9896040518263ffffffff1660e01b8152600401611aaf9190614f79565b60006040518083038186803b158015611ac757600080fd5b505afa158015611adb573d6000803e3d6000fd5b505050506040513d6000823e3d601f19601f82011682018060405250810190611b049190613b06565b9050600860009054906101000a900473ffffffffffffffffffffffffffffffffffffffff1673ffffffffffffffffffffffffffffffffffffffff1663a529878e83836040518363ffffffff1660e01b8152600401611b63929190615366565b60206040518083038186803b158015611b7b57600080fd5b505afa158015611b8f573d6000803e3d6000fd5b505050506040513d601f19601f82011682018060405250810190611bb391906138df565b611bf2576040517f08c379a0000000000000000000000000000000000000000000000000000000008152600401611be9906150bb565b60405180910390fd5b60005a8803905060003a600754600654840281611c0b57fe5b040290506000811115611cd05780341015611c5b576040517f08c379a0000000000000000000000000000000000000000000000000000000008152600401611c5290614fbb565b60405180910390fd5b600360009054906101000a900473ffffffffffffffffffffffffffffffffffffffff1673ffffffffffffffffffffffffffffffffffffffff166108fc829081150290604051600060405180830381858888f19350505050158015611cc3573d6000803e3d6000fd5b5080600d5401600d819055505b3373ffffffffffffffffffffffffffffffffffffffff166108fc8234039081150290604051600060405180830381858888f19350505050158015611d18573d6000803e3d6000fd5b507f9b814ae8a45a4c40d4c60ffa92e0c4b76dec41407cb28b43df9daffa3685f9ac8c604051611d489190614e8c565b60405180910390a15050505050505050505050505050565b600360009054906101000a900473ffffffffffffffffffffffffffffffffffffffff1673ffffffffffffffffffffffffffffffffffffffff163373ffffffffffffffffffffffffffffffffffffffff1614611df0576040517f08c379a0000000000000000000000000000000000000000000000000000000008152600401611de79061521b565b60405180910390fd5b81600481905550806005819055505050565b611e0a612b99565b6040518351815260208401516020820152825160408201526020830151606082015260408260808360065afa611e3f57600080fd5b5092915050565b6000806000548381611e5457fe5b0614611e95576040517f08c379a0000000000000000000000000000000000000000000000000000000008152600401611e8c9061511b565b60405180910390fd5b600080548381611ea157fe5b04905080600011158015611eb9575063ffffffff8111155b611ef8576040517f08c379a0000000000000000000000000000000000000000000000000000000008152600401611eef9061503b565b60405180910390fd5b80915050919050565b63ffffffff8311158015611f1d575063ffffffff83600a540111155b611f5c576040517f08c379a0000000000000000000000000000000000000000000000000000000008152600401611f539061501b565b60405180910390fd5b82600a6000828254019250508190555082600e600082825401925050819055506001600f60008282540192505081905550600084604051602001611fa0919061529b565b604051602081830303815290604052805190602001209050611fc181610b94565b612000576040517f08c379a0000000000000000000000000000000000000000000000000000000008152600401611ff79061527b565b60405180910390fd5b6120098161286e565b60006011600083815260200190815260200160002060006002811061202a57fe5b6002020160405180604001604052908160008201548152602001600182015481525050905061207b61206c8661205e6127d3565b61279a90919063ffffffff16565b82611e0290919063ffffffff16565b9050806011600084815260200190815260200160002060006002811061209d57fe5b60020201600082015181600001556020820151816001015590505083836015600085815260200190815260200160002091906120da929190612bb9565b50505050505050565b6000816000111580156120fa575063ffffffff8211155b612139576040517f08c379a00000000000000000000000000000000000000000000000000000000081526004016121309061525b565b60405180910390fd5b60005482029050919050565b85600a54101561218a576040517f08c379a0000000000000000000000000000000000000000000000000000000008152600401612181906150db565b60405180910390fd5b85600a600082825403925050819055506000876040516020016121ad919061529b565b6040516020818303038152906040528051906020012090506121ce81610b94565b61220d576040517f08c379a0000000000000000000000000000000000000000000000000000000008152600401612204906150fb565b60405180910390fd5b6122168161286e565b600060116000838152602001908152602001600020600280602002604051908101604052809291906000905b8282101561227e578382600202016040518060400160405290816000820154815260200160018201548152505081526020019060010190612242565b5050505090506122c96122a96122938a61276e565b61229b6127d3565b61279a90919063ffffffff16565b826000600281106122b657fe5b6020020151611e0290919063ffffffff16565b601160008481526020019081526020016000206000600281106122e857fe5b60020201600082015181600001556020820151816001015590505060106000838152602001908152602001600020600280602002604051908101604052809291906000905b8282101561236957838260020201604051806040016040529081600082015481526020016001820154815250508152602001906001019061232d565b5050505090506123b461239461237e8a61276e565b6123866127d3565b61279a90919063ffffffff16565b826000600281106123a157fe5b6020020151611e0290919063ffffffff16565b816000600281106123c157fe5b60200201819052506000876040516020016123dc919061529b565b60405160208183030381529060405280519060200120905060005b60138054905081101561246b57816013828154811061241257fe5b9060005260206000200154141561245e576040517f08c379a000000000000000000000000000000000000000000000000000000000815260040161245590614f9b565b60405180910390fd5b80806001019150506123f7565b50601381908060018154018082558091505060019003906000526020600020016000909190919091505584846015600086815260200190815260200160002091906124b7929190612bb9565b506000600960009054906101000a900473ffffffffffffffffffffffffffffffffffffffff1673ffffffffffffffffffffffffffffffffffffffff1663bba28e3c8460006002811061250557fe5b60200201518560016002811061251757fe5b60200201518e6014548e336040518763ffffffff1660e01b8152600401612543969594939291906152d1565b6101406040518083038186803b15801561255c57600080fd5b505afa158015612570573d6000803e3d6000fd5b505050506040513d601f19601f820116820180604052508101906125949190613b47565b90506000600960009054906101000a900473ffffffffffffffffffffffffffffffffffffffff1673ffffffffffffffffffffffffffffffffffffffff1663f98f0cc98a8a6040518363ffffffff1660e01b81526004016125f5929190614f55565b60006040518083038186803b15801561260d57600080fd5b505afa158015612621573d6000803e3d6000fd5b505050506040513d6000823e3d601f19601f8201168201806040525081019061264a9190613ac5565b9050600960009054906101000a900473ffffffffffffffffffffffffffffffffffffffff1673ffffffffffffffffffffffffffffffffffffffff1663d039751f83836040518363ffffffff1660e01b81526004016126a9929190615334565b60206040518083038186803b1580156126c157600080fd5b505afa1580156126d5573d6000803e3d6000fd5b505050506040513d601f19601f820116820180604052508101906126f991906138df565b612738576040517f08c379a000000000000000000000000000000000000000000000000000000000815260040161272f906151bb565b60405180910390fd5b505050505050505050505050565b600081600001518360000151148015612766575081602001518360200151145b905092915050565b6000817f30644e72e131a029b85045b68181585d2833e84879b9709143e1f593f0000001039050919050565b6127a2612b99565b604051835181526020840151602082015282604082015260408260608360075afa6127cc57600080fd5b5092915050565b6127db612b99565b60405180604001604052807f077da99d806abd13c9f15ece5398525119d11e11e9836b2ee7d23f6159ad87d460001b81526020017f01485efa927f2ad41bff567eec88f32fb0a0f706588b4e41a8d587d008b7f87560001b815250905090565b60007f30644e72e131a029b85045b68181585d2833e84879b9709143e1f593f0000001828161286657fe5b069050919050565b600080600254141561288d57600154438161288557fe5b0490506128e7565b600160025414156128ab5760015442816128a357fe5b0490506128e6565b6040517f08c379a00000000000000000000000000000000000000000000000000000000081526004016128dd906151fb565b60405180910390fd5b5b8060126000848152602001908152602001600020541015612b48576000604051806040016040528060106000868152602001908152602001600020600280602002604051908101604052809291906000905b82821015612975578382600202016040518060400160405290816000820154815260200160018201548152505081526020019060010190612939565b50505050815260200160116000868152602001908152602001600020600280602002604051908101604052809291906000905b828210156129e45783826002020160405180604001604052908160008201548152602001600182015481525050815260200190600101906129a8565b505050508152509050612a44816001600281106129fd57fe5b6020020151600060028110612a0e57fe5b602002015182600060028110612a2057fe5b6020020151600060028110612a3157fe5b6020020151611e0290919063ffffffff16565b60106000858152602001908152602001600020600060028110612a6357fe5b600202016000820151816000015560208201518160010155905050612ad581600160028110612a8e57fe5b6020020151600160028110612a9f57fe5b602002015182600060028110612ab157fe5b6020020151600160028110612ac257fe5b6020020151611e0290919063ffffffff16565b60106000858152602001908152602001600020600160028110612af457fe5b600202016000820151816000015560208201518160010155905050601160008481526020019081526020016000206000612b2e9190612c47565b816012600085815260200190815260200160002081905550505b806014541015612b68578060148190555060136000612b679190612c72565b5b5050565b60405180604001604052806002905b612b83612b99565b815260200190600190039081612b7b5790505090565b604051806040016040528060008019168152602001600080191681525090565b828054600181600116156101000203166002900490600052602060002090601f016020900481019282612bef5760008555612c36565b82601f10612c0857803560ff1916838001178555612c36565b82800160010185558215612c36579182015b82811115612c35578235825591602001919060010190612c1a565b5b509050612c439190612c93565b5090565b5060008082016000905560018201600090555060020160008082016000905560018201600090555050565b5080546000825590600052602060002090810190612c909190612cb0565b50565b5b80821115612cac576000816000905550600101612c94565b5090565b5b80821115612cc9576000816000905550600101612cb1565b5090565b6000612ce0612cdb846153e9565b6153b8565b90508082856040860282011115612cf657600080fd5b60005b85811015612d265781612d0c888261309b565b845260208401935060408301925050600181019050612cf9565b5050509392505050565b6000612d43612d3e8461540f565b6153b8565b90508083825260208201905082856040860282011115612d6257600080fd5b60005b85811015612d925781612d78888261304f565b845260208401935060408301925050600181019050612d65565b5050509392505050565b6000612daf612daa8461540f565b6153b8565b90508083825260208201905082856040860282011115612dce57600080fd5b60005b85811015612dfe5781612de4888261309b565b845260208401935060408301925050600181019050612dd1565b5050509392505050565b6000612e1b612e168461543b565b6153b8565b90508083825260208201905082856020860282011115612e3a57600080fd5b60005b85811015612e6a5781612e50888261378e565b845260208401935060208301925050600181019050612e3d565b5050509392505050565b6000612e87612e8284615467565b6153b8565b905082815260208101848484011115612e9f57600080fd5b612eaa848285615669565b509392505050565b600081519050612ec1816156be565b92915050565b600081359050612ed6816156d5565b92915050565b600082601f830112612eed57600080fd5b6002612efa848285612ccd565b91505092915050565b600082601f830112612f1457600080fd5b8135612f24848260208601612d30565b91505092915050565b600082601f830112612f3e57600080fd5b8151612f4e848260208601612d9c565b91505092915050565b600082601f830112612f6857600080fd5b8151612f78848260208601612e08565b91505092915050565b600081519050612f90816156ec565b92915050565b600081359050612fa581615703565b92915050565b600081519050612fba81615703565b92915050565b60008083601f840112612fd257600080fd5b8235905067ffffffffffffffff811115612feb57600080fd5b60208301915083600182028301111561300357600080fd5b9250929050565b600082601f83011261301b57600080fd5b813561302b848260208601612e74565b91505092915050565b60006040828403121561304657600080fd5b81905092915050565b60006040828403121561306157600080fd5b61306b60406153b8565b9050600061307b84828501612f96565b600083015250602061308f84828501612f96565b60208301525092915050565b6000604082840312156130ad57600080fd5b6130b760406153b8565b905060006130c784828501612fab565b60008301525060206130db84828501612fab565b60208301525092915050565b6000608082840312156130f957600080fd5b61310360806153b8565b9050600082015167ffffffffffffffff81111561311f57600080fd5b61312b84828501612f2d565b600083015250602082015167ffffffffffffffff81111561314b57600080fd5b61315784828501612f2d565b602083015250604061316b8482850161378e565b604083015250606061317f8482850161378e565b60608301525092915050565b60006101e0828403121561319e57600080fd5b6131a96101406153b8565b905060006131b98482850161309b565b60008301525060406131cd8482850161309b565b60208301525060806131e184828501612edc565b6040830152506101006131f68482850161378e565b60608301525061012061320b8482850161378e565b6080830152506101406132208482850161378e565b60a0830152506101606132358482850161378e565b60c08301525061018061324a8482850161378e565b60e0830152506101a061325f8482850161378e565b610100830152506101c082015167ffffffffffffffff81111561328157600080fd5b61328d848285016130e7565b6101208301525092915050565b600061040082840312156132ad57600080fd5b6132b86103206153b8565b905060006132c88482850161309b565b60008301525060406132dc8482850161309b565b60208301525060806132f08482850161309b565b60408301525060c06133048482850161309b565b60608301525061010082015167ffffffffffffffff81111561332557600080fd5b61333184828501612f2d565b60808301525061012082015167ffffffffffffffff81111561335257600080fd5b61335e84828501612f2d565b60a08301525061014082015167ffffffffffffffff81111561337f57600080fd5b61338b84828501612f2d565b60c08301525061016082015167ffffffffffffffff8111156133ac57600080fd5b6133b884828501612f2d565b60e08301525061018082015167ffffffffffffffff8111156133d957600080fd5b6133e584828501612f2d565b610100830152506101a082015167ffffffffffffffff81111561340757600080fd5b61341384828501612f2d565b610120830152506101c082015167ffffffffffffffff81111561343557600080fd5b61344184828501612f2d565b610140830152506101e082015167ffffffffffffffff81111561346357600080fd5b61346f84828501612f2d565b6101608301525061020082015167ffffffffffffffff81111561349157600080fd5b61349d84828501612f57565b610180830152506102206134b38482850161378e565b6101a0830152506102406134c98482850161378e565b6101c0830152506102606134df8482850161378e565b6101e0830152506102806134f584828501612edc565b6102008301525061030061350b8482850161378e565b610220830152506103206135218482850161378e565b610240830152506103406135378482850161378e565b6102608301525061036061354d8482850161378e565b610280830152506103806135638482850161378e565b6102a0830152506103a06135798482850161378e565b6102c0830152506103c061358f8482850161378e565b6102e0830152506103e082015167ffffffffffffffff8111156135b157600080fd5b6135bd848285016130e7565b6103008301525092915050565b600061014082840312156135dd57600080fd5b6135e760c06153b8565b905060006135f78482850161309b565b600083015250604061360b8482850161309b565b602083015250608061361f8482850161309b565b60408301525060c06136338482850161378e565b60608301525060e06136478482850161309b565b60808301525061012061365c84828501612eb2565b60a08301525092915050565b6000610120828403121561367b57600080fd5b61368560e06153b8565b9050600082015167ffffffffffffffff8111156136a157600080fd5b6136ad84828501612f2d565b600083015250602082015167ffffffffffffffff8111156136cd57600080fd5b6136d984828501612f2d565b602083015250604082015167ffffffffffffffff8111156136f957600080fd5b61370584828501612f2d565b60408301525060606137198482850161309b565b60608301525060a082015167ffffffffffffffff81111561373957600080fd5b61374584828501612f2d565b60808301525060c06137598482850161378e565b60a08301525060e061376d8482850161309b565b60c08301525092915050565b6000813590506137888161571a565b92915050565b60008151905061379d8161571a565b92915050565b6000602082840312156137b557600080fd5b60006137c384828501612ec7565b91505092915050565b600080600080600060e086880312156137e457600080fd5b600086013567ffffffffffffffff8111156137fe57600080fd5b61380a88828901612f03565b955050602061381b8882890161304f565b945050606086013567ffffffffffffffff81111561383857600080fd5b61384488828901612f03565b93505060806138558882890161304f565b92505060c086013567ffffffffffffffff81111561387257600080fd5b61387e8882890161300a565b9150509295509295909350565b6000806040838503121561389e57600080fd5b600083013567ffffffffffffffff8111156138b857600080fd5b6138c485828601612f03565b92505060206138d585828601613779565b9150509250929050565b6000602082840312156138f157600080fd5b60006138ff84828501612f81565b91505092915050565b60006020828403121561391a57600080fd5b600061392884828501612f96565b91505092915050565b6000806000806080858703121561394757600080fd5b600061395587828801613034565b945050604061396687828801613779565b935050606085013567ffffffffffffffff81111561398357600080fd5b61398f87828801612fc0565b925092505092959194509250565b600080600080600080600060e0888a0312156139b857600080fd5b60006139c68a828b01613034565b97505060406139d78a828b01613779565b96505060606139e88a828b01613034565b95505060a088013567ffffffffffffffff811115613a0557600080fd5b613a118a828b01612fc0565b945094505060c088013567ffffffffffffffff811115613a3057600080fd5b613a3c8a828b01612fc0565b925092505092959891949750929550565b600060408284031215613a5f57600080fd5b6000613a6d8482850161304f565b91505092915050565b600080600060808486031215613a8b57600080fd5b6000613a998682870161304f565b9350506040613aaa86828701613779565b9250506060613abb86828701613779565b9150509250925092565b600060208284031215613ad757600080fd5b600082015167ffffffffffffffff811115613af157600080fd5b613afd8482850161318b565b91505092915050565b600060208284031215613b1857600080fd5b600082015167ffffffffffffffff811115613b3257600080fd5b613b3e8482850161329a565b91505092915050565b60006101408284031215613b5a57600080fd5b6000613b68848285016135ca565b91505092915050565b600060208284031215613b8357600080fd5b600082015167ffffffffffffffff811115613b9d57600080fd5b613ba984828501613668565b91505092915050565b600060208284031215613bc457600080fd5b6000613bd284828501613779565b91505092915050565b60008060408385031215613bee57600080fd5b6000613bfc85828601613779565b9250506020613c0d85828601613779565b9150509250929050565b6000613c238383613cf9565b60808301905092915050565b6000613c3b83836148a2565b60408301905092915050565b6000613c538383614dd0565b60208301905092915050565b613c6881615633565b82525050565b613c77816155e1565b82525050565b613c86816155cf565b82525050565b613c95816155cf565b82525050565b6000613ca6826154d1565b613cb0818561553c565b9350613cbb83615497565b8060005b83811015613cec578151613cd38882613c17565b9750613cde83615508565b925050600181019050613cbf565b5085935050505092915050565b613d02816154dc565b613d0c818461554d565b9250613d17826154a7565b8060005b83811015613d48578151613d2f8782613c2f565b9650613d3a83615515565b925050600181019050613d1b565b505050505050565b613d59816154dc565b613d638184615558565b9250613d6e826154a7565b8060005b83811015613d9f578151613d868782613c2f565b9650613d9183615515565b925050600181019050613d72565b505050505050565b6000613db2826154e7565b613dbc8185615563565b9350613dc7836154b1565b8060005b83811015613df8578151613ddf8882613c2f565b9750613dea83615522565b925050600181019050613dcb565b5085935050505092915050565b6000613e10826154e7565b613e1a8185615574565b9350613e25836154b1565b8060005b83811015613e56578151613e3d8882613c2f565b9750613e4883615522565b925050600181019050613e29565b5085935050505092915050565b6000613e6e826154f2565b613e788185615585565b9350613e83836154c1565b8060005b83811015613eb4578151613e9b8882613c47565b9750613ea68361552f565b925050600181019050613e87565b5085935050505092915050565b613eca816155f3565b82525050565b613ed9816155ff565b82525050565b6000613eeb8385615596565b9350613ef8838584615669565b613f01836156ad565b840190509392505050565b6000613f17826154fd565b613f218185615596565b9350613f31818560208601615678565b613f3a816156ad565b840191505092915050565b6000613f526023836155a7565b91507f5b42656c6465782072656465656d5d204e6f6e636520616c726561647920736560008301527f656e2100000000000000000000000000000000000000000000000000000000006020830152604082019050919050565b6000613fb86044836155a7565b91507f5b42656c646578207472616e736665725d204e6f7420656e6f7567682066656560008301527f2073656e74207769746820746865207472616e73666572207472616e7361637460208301527f696f6e2e000000000000000000000000000000000000000000000000000000006040830152606082019050919050565b60006140446034836155a7565b91507f5065726d697373696f6e2064656e6965643a204f6e6c792061646d696e20636160008301527f6e206368616e676520726f756e6420626173652e0000000000000000000000006020830152604082019050919050565b60006140aa6030836155a7565b91507f5065726d697373696f6e2064656e6965643a204f6e6c792061646d696e20636160008301527f6e206368616e6765206167656e63792e000000000000000000000000000000006020830152604082019050919050565b60006141106036836155a7565b91507f5b42656c646578206d696e745d204d696e742070757368657320636f6e74726160008301527f63742070617374206d6178696d756d2076616c75652e000000000000000000006020830152604082019050919050565b60006141766014836155a7565b91507f416d6f756e74206f7574206f662072616e67652e0000000000000000000000006000830152602082019050919050565b60006141b6601b836155a7565b91507f4163636f756e7420616c726561647920726567697374657265642100000000006000830152602082019050919050565b60006141f66046836155a7565b91507f5b42656c646578206d696e745d20537065636966696564206d696e7420616d6f60008301527f756e74206973206469666665726e65742066726f6d207468652070616964206160208301527f6d6f756e742e00000000000000000000000000000000000000000000000000006040830152606082019050919050565b60006142826025836155a7565b91507f5b42656c646578207472616e736665725d204e6f6e636520616c72656164792060008301527f7365656e210000000000000000000000000000000000000000000000000000006020830152604082019050919050565b60006142e86026836155a7565b91507f5b42656c646578207472616e736665725d204661696c65643a2076657269666960008301527f636174696f6e00000000000000000000000000000000000000000000000000006020830152604082019050919050565b600061434e602e836155a7565b91507f5b42656c6465782072656465656d5d204661696c65643a20496e76616c69642060008301527f72656465656d20616d6f756e742e0000000000000000000000000000000000006020830152604082019050919050565b60006143b4602b836155a7565b91507f5b42656c6465782072656465656d5d204163636f756e74206e6f74207965742060008301527f726567697374657265642e0000000000000000000000000000000000000000006020830152604082019050919050565b600061441a6029836155a7565b91507f4e617469766520616d6f756e74206d757374206265206d756c7469706c65206f60008301527f66206120756e69742e00000000000000000000000000000000000000000000006020830152604082019050919050565b6000614480602e836155a7565b91507f5b42656c646578207472616e736665725d20496e707574206172726179206c6560008301527f6e677468206d69736d61746368210000000000000000000000000000000000006020830152604082019050919050565b60006144e6602d836155a7565b91507f5b42656c646578207472616e736665725d204163636f756e74206e6f7420796560008301527f7420726567697374657265642e000000000000000000000000000000000000006020830152604082019050919050565b600061454c601f836155a7565b91507f496e76616c696420726567697374726174696f6e207369676e617475726521006000830152602082019050919050565b600061458c602e836155a7565b91507f5065726d697373696f6e2064656e6965643a204f6e6c792061646d696e20636160008301527f6e206368616e676520756e69742e0000000000000000000000000000000000006020830152604082019050919050565b60006145f26025836155a7565b91507f5b42656c6465782072656465656d5d204661696c65643a20766572696669636160008301527f74696f6e210000000000000000000000000000000000000000000000000000006020830152604082019050919050565b6000614658603f836155a7565b91507f5065726d697373696f6e2064656e6965643a204f6e6c792061646d696e20636160008301527f6e206368616e6765207472616e73666572206665652073747261746567792e006020830152604082019050919050565b60006146be6013836155a7565b91507f496e76616c696420726f756e6420626173652e000000000000000000000000006000830152602082019050919050565b60006146fe603d836155a7565b91507f5065726d697373696f6e2064656e6965643a204f6e6c792061646d696e20636160008301527f6e206368616e67652072656465656d206665652073747261746567792e0000006020830152604082019050919050565b60006147646036836155a7565b91507f5065726d697373696f6e2064656e6965643a204f6e6c792061646d696e20636160008301527f6e206368616e676520726f756e64206c656e6774682e000000000000000000006020830152604082019050919050565b60006147ca6013836155a7565b91507f416d6f756e74206f7574206f662072616e6765000000000000000000000000006000830152602082019050919050565b600061480a6029836155a7565b91507f5b42656c646578206d696e745d204163636f756e74206e6f742079657420726560008301527f67697374657265642e00000000000000000000000000000000000000000000006020830152604082019050919050565b6040820161487460008301836155b8565b6148816000850182613ed0565b5061488f60208301836155b8565b61489c6020850182613ed0565b50505050565b6040820160008201516148b86000850182613ed0565b5060208201516148cb6020850182613ed0565b50505050565b6040820160008201516148e76000850182613ed0565b5060208201516148fa6020850182613ed0565b50505050565b6000608083016000830151848203600086015261491d8282613da7565b915050602083015184820360208601526149378282613da7565b915050604083015161494c6040860182614dd0565b50606083015161495f6060860182614dd0565b508091505092915050565b60006101e08301600083015161498360008601826148a2565b50602083015161499660408601826148a2565b5060408301516149a96080860182613cf9565b5060608301516149bd610100860182614dd0565b5060808301516149d1610120860182614dd0565b5060a08301516149e5610140860182614dd0565b5060c08301516149f9610160860182614dd0565b5060e0830151614a0d610180860182614dd0565b50610100830151614a226101a0860182614dd0565b506101208301518482036101c0860152614a3c8282614900565b9150508091505092915050565b600061040083016000830151614a6260008601826148a2565b506020830151614a7560408601826148a2565b506040830151614a8860808601826148a2565b506060830151614a9b60c08601826148a2565b506080830151848203610100860152614ab48282613da7565b91505060a0830151848203610120860152614acf8282613da7565b91505060c0830151848203610140860152614aea8282613da7565b91505060e0830151848203610160860152614b058282613da7565b915050610100830151848203610180860152614b218282613da7565b9150506101208301518482036101a0860152614b3d8282613da7565b9150506101408301518482036101c0860152614b598282613da7565b9150506101608301518482036101e0860152614b758282613da7565b915050610180830151848203610200860152614b918282613e63565b9150506101a0830151614ba8610220860182614dd0565b506101c0830151614bbd610240860182614dd0565b506101e0830151614bd2610260860182614dd0565b50610200830151614be7610280860182613cf9565b50610220830151614bfc610300860182614dd0565b50610240830151614c11610320860182614dd0565b50610260830151614c26610340860182614dd0565b50610280830151614c3b610360860182614dd0565b506102a0830151614c50610380860182614dd0565b506102c0830151614c656103a0860182614dd0565b506102e0830151614c7a6103c0860182614dd0565b506103008301518482036103e0860152614c948282614900565b9150508091505092915050565b61014082016000820151614cb860008501826148a2565b506020820151614ccb60408501826148a2565b506040820151614cde60808501826148a2565b506060820151614cf160c0850182614dd0565b506080820151614d0460e08501826148a2565b5060a0820151614d18610120850182613c7d565b50505050565b6000610120830160008301518482036000860152614d3c8282613da7565b91505060208301518482036020860152614d568282613da7565b91505060408301518482036040860152614d708282613da7565b9150506060830151614d8560608601826148a2565b50608083015184820360a0860152614d9d8282613da7565b91505060a0830151614db260c0860182614dd0565b5060c0830151614dc560e08601826148a2565b508091505092915050565b614dd981615629565b82525050565b614de881615629565b82525050565b6000602082019050614e036000830184613c6e565b92915050565b600060a082019050614e1e6000830186613c8c565b614e2b60208301856148d1565b614e3860608301846148d1565b949350505050565b60006020820190508181036000830152614e5a8184613c9b565b905092915050565b600061010082019050614e786000830185613d50565b614e856080830184613d50565b9392505050565b60006020820190508181036000830152614ea68184613e05565b905092915050565b6000610120820190508181036000830152614ec9818a613e05565b90508181036020830152614edd8189613e05565b90508181036040830152614ef18188613e05565b9050614f0060608301876148d1565b81810360a0830152614f128186613e05565b9050614f2160c0830185614ddf565b614f2e60e08301846148d1565b98975050505050505050565b6000602082019050614f4f6000830184613ec1565b92915050565b60006020820190508181036000830152614f70818486613edf565b90509392505050565b60006020820190508181036000830152614f938184613f0c565b905092915050565b60006020820190508181036000830152614fb481613f45565b9050919050565b60006020820190508181036000830152614fd481613fab565b9050919050565b60006020820190508181036000830152614ff481614037565b9050919050565b600060208201905081810360008301526150148161409d565b9050919050565b6000602082019050818103600083015261503481614103565b9050919050565b6000602082019050818103600083015261505481614169565b9050919050565b60006020820190508181036000830152615074816141a9565b9050919050565b60006020820190508181036000830152615094816141e9565b9050919050565b600060208201905081810360008301526150b481614275565b9050919050565b600060208201905081810360008301526150d4816142db565b9050919050565b600060208201905081810360008301526150f481614341565b9050919050565b60006020820190508181036000830152615114816143a7565b9050919050565b600060208201905081810360008301526151348161440d565b9050919050565b6000602082019050818103600083015261515481614473565b9050919050565b60006020820190508181036000830152615174816144d9565b9050919050565b600060208201905081810360008301526151948161453f565b9050919050565b600060208201905081810360008301526151b48161457f565b9050919050565b600060208201905081810360008301526151d4816145e5565b9050919050565b600060208201905081810360008301526151f48161464b565b9050919050565b60006020820190508181036000830152615214816146b1565b9050919050565b60006020820190508181036000830152615234816146f1565b9050919050565b6000602082019050818103600083015261525481614757565b9050919050565b60006020820190508181036000830152615274816147bd565b9050919050565b60006020820190508181036000830152615294816147fd565b9050919050565b60006040820190506152b06000830184614863565b92915050565b60006040820190506152cb60008301846148d1565b92915050565b6000610140820190506152e760008301896148d1565b6152f460408301886148d1565b6153016080830187614863565b61530e60c0830186614ddf565b61531b60e0830185614863565b615329610120830184613c5f565b979650505050505050565b60006101608201905061534a6000830185614ca1565b81810361014083015261535d818461496a565b90509392505050565b600060408201905081810360008301526153808185614d1e565b905081810360208301526153948184614a49565b90509392505050565b60006020820190506153b26000830184614ddf565b92915050565b6000604051905081810181811067ffffffffffffffff821117156153df576153de6156ab565b5b8060405250919050565b600067ffffffffffffffff821115615404576154036156ab565b5b602082029050919050565b600067ffffffffffffffff82111561542a576154296156ab565b5b602082029050602081019050919050565b600067ffffffffffffffff821115615456576154556156ab565b5b602082029050602081019050919050565b600067ffffffffffffffff821115615482576154816156ab565b5b601f19601f8301169050602081019050919050565b6000819050602082019050919050565b6000819050919050565b6000819050602082019050919050565b6000819050602082019050919050565b600081519050919050565b600060029050919050565b600081519050919050565b600081519050919050565b600081519050919050565b6000602082019050919050565b6000602082019050919050565b6000602082019050919050565b6000602082019050919050565b600082825260208201905092915050565b600081905092915050565b600081905092915050565b600082825260208201905092915050565b600082825260208201905092915050565b600082825260208201905092915050565b600082825260208201905092915050565b600082825260208201905092915050565b60006155c76020840184612f96565b905092915050565b60006155da82615609565b9050919050565b60006155ec82615609565b9050919050565b60008115159050919050565b6000819050919050565b600073ffffffffffffffffffffffffffffffffffffffff82169050919050565b6000819050919050565b600061563e82615645565b9050919050565b600061565082615657565b9050919050565b600061566282615609565b9050919050565b82818337600083830152505050565b60005b8381101561569657808201518184015260208101905061567b565b838111156156a5576000848401525b50505050565bfe5b6000601f19601f8301169050919050565b6156c7816155cf565b81146156d257600080fd5b50565b6156de816155e1565b81146156e957600080fd5b50565b6156f5816155f3565b811461570057600080fd5b50565b61570c816155ff565b811461571757600080fd5b50565b61572381615629565b811461572e57600080fd5b5056fea264697066735822122050d09cbc999bd8cf138279a1efe1f7d4cd963e5488061a47060f819351788cde64736f6c63430007060033",
  "immutableReferences": {},
  "source": "// SPDX-License-Identifier: MIT\npragma solidity 0.7.6;\npragma experimental ABIEncoderV2;\n\nimport \"./Utils.sol\";\nimport \"./BeldexBase.sol\";\n\ncontract BeldexETH is BeldexBase {\n\n    using Utils for uint256;\n    using Utils for Utils.G1Point;\n\n    constructor(address _transfer, address _redeem, uint256 _unit) BeldexBase(_transfer, _redeem, _unit) {\n    }\n\n    function mint(Utils.G1Point calldata y, uint256 unitAmount, bytes calldata encGuess) public payable {\n        uint256 mUnitAmount = toUnitAmount(msg.value);\n        require(unitAmount == mUnitAmount, \"[Beldex mint] Specified mint amount is differnet from the paid amount.\");\n\n        mintBase(y, unitAmount, encGuess);\n    }\n\n    function redeem(Utils.G1Point calldata y, uint256 unitAmount, Utils.G1Point calldata u, bytes calldata proof, bytes calldata encGuess) public {\n        uint256 nativeAmount = toNativeAmount(unitAmount);\n        uint256 fee = nativeAmount * redeem_fee_numerator / redeem_fee_denominator; \n\n        redeemBase(y, unitAmount, u, proof, encGuess);\n\n        if (fee > 0) {\n            beldex_agency.transfer(fee);\n            redeem_fee_log = redeem_fee_log + fee;\n        }\n        payable(msg.sender).transfer(nativeAmount-fee);\n    }\n\n    function transfer(Utils.G1Point[] memory C, Utils.G1Point memory D, \n                      Utils.G1Point[] memory y, Utils.G1Point memory u, \n                      bytes memory proof) public payable {\n\n        uint256 startGas = gasleft();\n\n        // TODO: check that sender and receiver should NOT be equal.\n        uint256 size = y.length;\n        Utils.G1Point[] memory CLn = new Utils.G1Point[](size);\n        Utils.G1Point[] memory CRn = new Utils.G1Point[](size);\n        require(C.length == size, \"[Beldex transfer] Input array length mismatch!\");\n\n\n        for (uint256 i = 0; i < size; i++) {\n            bytes32 yHash = keccak256(abi.encode(y[i]));\n            require(registered(yHash), \"[Beldex transfer] Account not yet registered.\");\n            rollOver(yHash);\n            Utils.G1Point[2] memory scratch = pending[yHash];\n            pending[yHash][0] = scratch[0].pAdd(C[i]);\n            pending[yHash][1] = scratch[1].pAdd(D);\n\n            scratch = acc[yHash];\n            CLn[i] = scratch[0].pAdd(C[i]);\n            CRn[i] = scratch[1].pAdd(D);\n        }\n\n        bytes32 uHash = keccak256(abi.encode(u));\n        for (uint256 i = 0; i < nonce_set.length; i++) {\n            require(nonce_set[i] != uHash, \"[Beldex transfer] Nonce already seen!\");\n        }\n        nonce_set.push(uHash);\n\n        BeldexTransfer.Statement memory beldex_stm = beldex_transfer.wrapStatement(CLn, CRn, C, D, y, last_global_update, u);\n        BeldexTransfer.Proof memory beldex_proof = beldex_transfer.unserialize(proof);\n\n        require(beldex_transfer.verify(beldex_stm, beldex_proof), \"[Beldex transfer] Failed: verification\");\n\n        uint256 usedGas = startGas - gasleft();\n        \n        uint256 fee = (usedGas * transfer_fee_numerator / transfer_fee_denominator) * tx.gasprice;\n        if (fee > 0) {\n            require(msg.value >= fee, \"[Beldex transfer] Not enough fee sent with the transfer transaction.\");\n            beldex_agency.transfer(fee);\n            transfer_fee_log = transfer_fee_log + fee;\n        }\n        payable(msg.sender).transfer(msg.value - fee);\n\n        emit TransferOccurred(y);\n    }\n\n}",
  "sourcePath": "/Users/apple/Documents/beldex-project/privacy-protocol/beldex-privacy-protocol-update/contracts/BeldexETH.sol",
  "compiler": {
    "name": "solc",
    "version": "0.7.6+commit.7338295f.Emscripten.clang"
  },
  "schemaVersion": "3.4.16",
  "updatedAt": "2024-01-20T09:48:01.845Z",
  "networkType": "ethereum",
  "devdoc": {
    "kind": "dev",
    "methods": {},
    "version": 1
  },
  "userdoc": {
    "kind": "user",
    "methods": {},
    "version": 1
  }
}