{
  "contractName": "BeldexETH",
  "abi": [
    {
      "inputs": [
        {
          "internalType": "address",
          "name": "_transfer",
          "type": "address"
        },
        {
          "internalType": "address",
          "name": "_redeem",
          "type": "address"
        },
        {
          "internalType": "uint256",
          "name": "_unit",
          "type": "uint256"
        }
      ],
      "stateMutability": "nonpayable",
      "type": "constructor"
    },
    {
      "anonymous": false,
      "inputs": [
        {
          "indexed": false,
          "internalType": "string",
          "name": "label",
          "type": "string"
        },
        {
          "indexed": true,
          "internalType": "uint256",
          "name": "value",
          "type": "uint256"
        }
      ],
      "name": "LogUint256",
      "type": "event"
    },
    {
      "anonymous": false,
      "inputs": [
        {
          "components": [
            {
              "internalType": "bytes32",
              "name": "x",
              "type": "bytes32"
            },
            {
              "internalType": "bytes32",
              "name": "y",
              "type": "bytes32"
            }
          ],
          "indexed": false,
          "internalType": "struct Utils.G1Point[]",
          "name": "parties",
          "type": "tuple[]"
        }
      ],
      "name": "TransferOccurred",
      "type": "event"
    },
    {
      "anonymous": false,
      "inputs": [
        {
          "indexed": false,
          "internalType": "address",
          "name": "sender",
          "type": "address"
        },
        {
          "indexed": false,
          "internalType": "uint256",
          "name": "amount",
          "type": "uint256"
        }
      ],
      "name": "received",
      "type": "event"
    },
    {
      "inputs": [],
      "name": "MAX",
      "outputs": [
        {
          "internalType": "uint256",
          "name": "",
          "type": "uint256"
        }
      ],
      "stateMutability": "view",
      "type": "function",
      "constant": true
    },
    {
      "inputs": [],
      "name": "balance_log",
      "outputs": [
        {
          "internalType": "uint256",
          "name": "",
          "type": "uint256"
        }
      ],
      "stateMutability": "view",
      "type": "function",
      "constant": true
    },
    {
      "inputs": [],
      "name": "beldex_agency",
      "outputs": [
        {
          "internalType": "address payable",
          "name": "",
          "type": "address"
        }
      ],
      "stateMutability": "view",
      "type": "function",
      "constant": true
    },
    {
      "inputs": [],
      "name": "deposits_log",
      "outputs": [
        {
          "internalType": "uint256",
          "name": "",
          "type": "uint256"
        }
      ],
      "stateMutability": "view",
      "type": "function",
      "constant": true
    },
    {
      "inputs": [
        {
          "components": [
            {
              "internalType": "bytes32",
              "name": "x",
              "type": "bytes32"
            },
            {
              "internalType": "bytes32",
              "name": "y",
              "type": "bytes32"
            }
          ],
          "internalType": "struct Utils.G1Point",
          "name": "y",
          "type": "tuple"
        }
      ],
      "name": "getAccountState",
      "outputs": [
        {
          "components": [
            {
              "internalType": "bytes32",
              "name": "x",
              "type": "bytes32"
            },
            {
              "internalType": "bytes32",
              "name": "y",
              "type": "bytes32"
            }
          ],
          "internalType": "struct Utils.G1Point[2]",
          "name": "y_available",
          "type": "tuple[2]"
        },
        {
          "components": [
            {
              "internalType": "bytes32",
              "name": "x",
              "type": "bytes32"
            },
            {
              "internalType": "bytes32",
              "name": "y",
              "type": "bytes32"
            }
          ],
          "internalType": "struct Utils.G1Point[2]",
          "name": "y_pending",
          "type": "tuple[2]"
        }
      ],
      "stateMutability": "view",
      "type": "function",
      "constant": true
    },
    {
      "inputs": [
        {
          "components": [
            {
              "internalType": "bytes32",
              "name": "x",
              "type": "bytes32"
            },
            {
              "internalType": "bytes32",
              "name": "y",
              "type": "bytes32"
            }
          ],
          "internalType": "struct Utils.G1Point[]",
          "name": "y",
          "type": "tuple[]"
        }
      ],
      "name": "getBalance",
      "outputs": [
        {
          "components": [
            {
              "internalType": "bytes32",
              "name": "x",
              "type": "bytes32"
            },
            {
              "internalType": "bytes32",
              "name": "y",
              "type": "bytes32"
            }
          ],
          "internalType": "struct Utils.G1Point[2][]",
          "name": "accounts",
          "type": "tuple[2][]"
        }
      ],
      "stateMutability": "view",
      "type": "function",
      "constant": true
    },
    {
      "inputs": [
        {
          "components": [
            {
              "internalType": "bytes32",
              "name": "x",
              "type": "bytes32"
            },
            {
              "internalType": "bytes32",
              "name": "y",
              "type": "bytes32"
            }
          ],
          "internalType": "struct Utils.G1Point",
          "name": "y",
          "type": "tuple"
        }
      ],
      "name": "getGuess",
      "outputs": [
        {
          "internalType": "bytes",
          "name": "y_guess",
          "type": "bytes"
        }
      ],
      "stateMutability": "view",
      "type": "function",
      "constant": true
    },
    {
      "inputs": [],
      "name": "last_global_update",
      "outputs": [
        {
          "internalType": "uint256",
          "name": "",
          "type": "uint256"
        }
      ],
      "stateMutability": "view",
      "type": "function",
      "constant": true
    },
    {
      "inputs": [
        {
          "internalType": "bytes32",
          "name": "",
          "type": "bytes32"
        }
      ],
      "name": "last_roll_over",
      "outputs": [
        {
          "internalType": "uint256",
          "name": "",
          "type": "uint256"
        }
      ],
      "stateMutability": "view",
      "type": "function",
      "constant": true
    },
    {
      "inputs": [],
      "name": "mint_count_log",
      "outputs": [
        {
          "internalType": "uint256",
          "name": "",
          "type": "uint256"
        }
      ],
      "stateMutability": "view",
      "type": "function",
      "constant": true
    },
    {
      "inputs": [],
      "name": "redeem_fee_denominator",
      "outputs": [
        {
          "internalType": "uint256",
          "name": "",
          "type": "uint256"
        }
      ],
      "stateMutability": "view",
      "type": "function",
      "constant": true
    },
    {
      "inputs": [],
      "name": "redeem_fee_log",
      "outputs": [
        {
          "internalType": "uint256",
          "name": "",
          "type": "uint256"
        }
      ],
      "stateMutability": "view",
      "type": "function",
      "constant": true
    },
    {
      "inputs": [],
      "name": "redeem_fee_numerator",
      "outputs": [
        {
          "internalType": "uint256",
          "name": "",
          "type": "uint256"
        }
      ],
      "stateMutability": "view",
      "type": "function",
      "constant": true
    },
    {
      "inputs": [
        {
          "components": [
            {
              "internalType": "bytes32",
              "name": "x",
              "type": "bytes32"
            },
            {
              "internalType": "bytes32",
              "name": "y",
              "type": "bytes32"
            }
          ],
          "internalType": "struct Utils.G1Point",
          "name": "y",
          "type": "tuple"
        },
        {
          "internalType": "uint256",
          "name": "c",
          "type": "uint256"
        },
        {
          "internalType": "uint256",
          "name": "s",
          "type": "uint256"
        }
      ],
      "name": "register",
      "outputs": [],
      "stateMutability": "nonpayable",
      "type": "function"
    },
    {
      "inputs": [
        {
          "internalType": "bytes32",
          "name": "yHash",
          "type": "bytes32"
        }
      ],
      "name": "registered",
      "outputs": [
        {
          "internalType": "bool",
          "name": "",
          "type": "bool"
        }
      ],
      "stateMutability": "view",
      "type": "function",
      "constant": true
    },
    {
      "inputs": [],
      "name": "round_base",
      "outputs": [
        {
          "internalType": "uint256",
          "name": "",
          "type": "uint256"
        }
      ],
      "stateMutability": "view",
      "type": "function",
      "constant": true
    },
    {
      "inputs": [],
      "name": "round_len",
      "outputs": [
        {
          "internalType": "uint256",
          "name": "",
          "type": "uint256"
        }
      ],
      "stateMutability": "view",
      "type": "function",
      "constant": true
    },
    {
      "inputs": [
        {
          "internalType": "address payable",
          "name": "_beldex_agency",
          "type": "address"
        }
      ],
      "name": "setBeldexAgency",
      "outputs": [],
      "stateMutability": "nonpayable",
      "type": "function"
    },
    {
      "inputs": [
        {
          "internalType": "uint256",
          "name": "numerator",
          "type": "uint256"
        },
        {
          "internalType": "uint256",
          "name": "denominator",
          "type": "uint256"
        }
      ],
      "name": "setRedeemFeeStrategy",
      "outputs": [],
      "stateMutability": "nonpayable",
      "type": "function"
    },
    {
      "inputs": [
        {
          "internalType": "uint256",
          "name": "_round_base",
          "type": "uint256"
        }
      ],
      "name": "setRoundBase",
      "outputs": [],
      "stateMutability": "nonpayable",
      "type": "function"
    },
    {
      "inputs": [
        {
          "internalType": "uint256",
          "name": "_round_len",
          "type": "uint256"
        }
      ],
      "name": "setRoundLen",
      "outputs": [],
      "stateMutability": "nonpayable",
      "type": "function"
    },
    {
      "inputs": [
        {
          "internalType": "uint256",
          "name": "numerator",
          "type": "uint256"
        },
        {
          "internalType": "uint256",
          "name": "denominator",
          "type": "uint256"
        }
      ],
      "name": "setTransferFeeStrategy",
      "outputs": [],
      "stateMutability": "nonpayable",
      "type": "function"
    },
    {
      "inputs": [
        {
          "internalType": "uint256",
          "name": "_unit",
          "type": "uint256"
        }
      ],
      "name": "setUnit",
      "outputs": [],
      "stateMutability": "nonpayable",
      "type": "function"
    },
    {
      "inputs": [],
      "name": "transfer_fee_denominator",
      "outputs": [
        {
          "internalType": "uint256",
          "name": "",
          "type": "uint256"
        }
      ],
      "stateMutability": "view",
      "type": "function",
      "constant": true
    },
    {
      "inputs": [],
      "name": "transfer_fee_log",
      "outputs": [
        {
          "internalType": "uint256",
          "name": "",
          "type": "uint256"
        }
      ],
      "stateMutability": "view",
      "type": "function",
      "constant": true
    },
    {
      "inputs": [],
      "name": "transfer_fee_numerator",
      "outputs": [
        {
          "internalType": "uint256",
          "name": "",
          "type": "uint256"
        }
      ],
      "stateMutability": "view",
      "type": "function",
      "constant": true
    },
    {
      "inputs": [],
      "name": "unit",
      "outputs": [
        {
          "internalType": "uint256",
          "name": "",
          "type": "uint256"
        }
      ],
      "stateMutability": "view",
      "type": "function",
      "constant": true
    },
    {
      "inputs": [],
      "name": "users_log",
      "outputs": [
        {
          "internalType": "uint256",
          "name": "",
          "type": "uint256"
        }
      ],
      "stateMutability": "view",
      "type": "function",
      "constant": true
    },
    {
      "inputs": [],
      "name": "withdraw",
      "outputs": [],
      "stateMutability": "nonpayable",
      "type": "function"
    },
    {
      "stateMutability": "payable",
      "type": "receive",
      "payable": true
    },
    {
      "inputs": [
        {
          "components": [
            {
              "internalType": "bytes32",
              "name": "x",
              "type": "bytes32"
            },
            {
              "internalType": "bytes32",
              "name": "y",
              "type": "bytes32"
            }
          ],
          "internalType": "struct Utils.G1Point",
          "name": "y",
          "type": "tuple"
        },
        {
          "internalType": "uint256",
          "name": "unitAmount",
          "type": "uint256"
        },
        {
          "internalType": "bytes",
          "name": "encGuess",
          "type": "bytes"
        }
      ],
      "name": "mint",
      "outputs": [],
      "stateMutability": "payable",
      "type": "function",
      "payable": true
    },
    {
      "inputs": [
        {
          "components": [
            {
              "internalType": "bytes32",
              "name": "x",
              "type": "bytes32"
            },
            {
              "internalType": "bytes32",
              "name": "y",
              "type": "bytes32"
            }
          ],
          "internalType": "struct Utils.G1Point",
          "name": "y",
          "type": "tuple"
        },
        {
          "internalType": "uint256",
          "name": "unitAmount",
          "type": "uint256"
        },
        {
          "components": [
            {
              "internalType": "bytes32",
              "name": "x",
              "type": "bytes32"
            },
            {
              "internalType": "bytes32",
              "name": "y",
              "type": "bytes32"
            }
          ],
          "internalType": "struct Utils.G1Point",
          "name": "u",
          "type": "tuple"
        },
        {
          "internalType": "bytes",
          "name": "proof",
          "type": "bytes"
        },
        {
          "internalType": "bytes",
          "name": "encGuess",
          "type": "bytes"
        }
      ],
      "name": "redeem",
      "outputs": [],
      "stateMutability": "nonpayable",
      "type": "function"
    },
    {
      "inputs": [
        {
          "components": [
            {
              "internalType": "bytes32",
              "name": "x",
              "type": "bytes32"
            },
            {
              "internalType": "bytes32",
              "name": "y",
              "type": "bytes32"
            }
          ],
          "internalType": "struct Utils.G1Point[]",
          "name": "C",
          "type": "tuple[]"
        },
        {
          "components": [
            {
              "internalType": "bytes32",
              "name": "x",
              "type": "bytes32"
            },
            {
              "internalType": "bytes32",
              "name": "y",
              "type": "bytes32"
            }
          ],
          "internalType": "struct Utils.G1Point",
          "name": "D",
          "type": "tuple"
        },
        {
          "components": [
            {
              "internalType": "bytes32",
              "name": "x",
              "type": "bytes32"
            },
            {
              "internalType": "bytes32",
              "name": "y",
              "type": "bytes32"
            }
          ],
          "internalType": "struct Utils.G1Point[]",
          "name": "y",
          "type": "tuple[]"
        },
        {
          "components": [
            {
              "internalType": "bytes32",
              "name": "x",
              "type": "bytes32"
            },
            {
              "internalType": "bytes32",
              "name": "y",
              "type": "bytes32"
            }
          ],
          "internalType": "struct Utils.G1Point",
          "name": "u",
          "type": "tuple"
        },
        {
          "internalType": "bytes",
          "name": "proof",
          "type": "bytes"
        }
      ],
      "name": "transfer",
      "outputs": [],
      "stateMutability": "nonpayable",
      "type": "function"
    }
  ],
  "bytecode": "0x60806040526030600155600060025560016004556064600555600160065560056007556000600a556000600b556000600c556000600d556000600e556000600f5560006014553480156200005257600080fd5b50604051620058223803806200582283398181016040528101906200007891906200017f565b82828233600360006101000a81548173ffffffffffffffffffffffffffffffffffffffff021916908373ffffffffffffffffffffffffffffffffffffffff16021790555082600860006101000a81548173ffffffffffffffffffffffffffffffffffffffff021916908373ffffffffffffffffffffffffffffffffffffffff16021790555081600960006101000a81548173ffffffffffffffffffffffffffffffffffffffff021916908373ffffffffffffffffffffffffffffffffffffffff1602179055508060008190555050505050505062000247565b600081519050620001628162000213565b92915050565b60008151905062000179816200022d565b92915050565b6000806000606084860312156200019557600080fd5b6000620001a58682870162000151565b9350506020620001b88682870162000151565b9250506040620001cb8682870162000168565b9150509250925092565b6000620001e282620001e9565b9050919050565b600073ffffffffffffffffffffffffffffffffffffffff82169050919050565b6000819050919050565b6200021e81620001d5565b81146200022a57600080fd5b50565b620002388162000209565b81146200024457600080fd5b50565b6155cb80620002576000396000f3fe6080604052600436106101e75760003560e01c806384f9b07a11610102578063b47e51d711610095578063dcfa1e5d11610064578063dcfa1e5d1461070a578063ddf911da14610735578063eff4d17814610760578063f487e9521461078957610227565b8063b47e51d71461065e578063b5753dee14610689578063d49d5181146106b4578063d90d3a58146106df57610227565b80639b0d85d3116100d15780639b0d85d314610591578063a568ce51146105ba578063a9b05a56146105f8578063aae078901461063557610227565b806384f9b07a146104e75780638ad747e014610512578063907af6c01461053d57806397fc6f231461056857610227565b80635524d5481161017a5780637207f20e116101495780637207f20e1461044157806375236e3f1461046a578063767b7d85146104955780637b5b3b9f146104be57610227565b80635524d54814610383578063566a8e62146103c057806362c4d3a3146103eb57806363bb012c1461041657610227565b80632a6b024b116101b65780632a6b024b146102ea5780633ccfd60b146103065780634301a3441461031d5780634ad729e01461035a57610227565b8063019cc41f1461022c5780630221c717146102695780631522dd3b1461029457806328111120146102bf57610227565b36610227577ff11e547d796cc64acdf758e7cee90439494fd886a19159454aa61e473fdbafef333460405161021d929190614c9a565b60405180910390a1005b600080fd5b34801561023857600080fd5b50610253600480360381019061024e9190613710565b6107b2565b6040516102609190614cfa565b60405180910390f35b34801561027557600080fd5b5061027e610a3c565b60405161028b9190615218565b60405180910390f35b3480156102a057600080fd5b506102a9610a42565b6040516102b69190614c7f565b60405180910390f35b3480156102cb57600080fd5b506102d4610a68565b6040516102e19190615218565b60405180910390f35b61030460048036038101906102ff919061388b565b610a6e565b005b34801561031257600080fd5b5061031b610ace565b005b34801561032957600080fd5b50610344600480360381019061033f9190613839565b610bc9565b6040516103519190615218565b60405180910390f35b34801561036657600080fd5b50610381600480360381019061037c91906138f2565b610be1565b005b34801561038f57600080fd5b506103aa60048036038101906103a59190613839565b610c4a565b6040516103b79190614df4565b60405180910390f35b3480156103cc57600080fd5b506103d5610e4b565b6040516103e29190615218565b60405180910390f35b3480156103f757600080fd5b50610400610e51565b60405161040d9190615218565b60405180910390f35b34801561042257600080fd5b5061042b610e57565b6040516104389190615218565b60405180910390f35b34801561044d57600080fd5b5061046860048036038101906104639190613afe565b610e5d565b005b34801561047657600080fd5b5061047f610eff565b60405161048c9190615218565b60405180910390f35b3480156104a157600080fd5b506104bc60048036038101906104b79190613ad5565b610f05565b005b3480156104ca57600080fd5b506104e560048036038101906104e09190613ad5565b610fbd565b005b3480156104f357600080fd5b506104fc611057565b6040516105099190615218565b60405180910390f35b34801561051e57600080fd5b5061052761105d565b6040516105349190615218565b60405180910390f35b34801561054957600080fd5b50610552611063565b60405161055f9190615218565b60405180910390f35b34801561057457600080fd5b5061058f600480360381019061058a91906136e7565b611069565b005b34801561059d57600080fd5b506105b860048036038101906105b39190613999565b61113d565b005b3480156105c657600080fd5b506105e160048036038101906105dc9190613862565b611308565b6040516105ef929190614d1c565b60405180910390f35b34801561060457600080fd5b5061061f600480360381019061061a9190613862565b611421565b60405161062c9190614e0f565b60405180910390f35b34801561064157600080fd5b5061065c60048036038101906106579190613ad5565b611502565b005b34801561066a57600080fd5b5061067361159c565b6040516106809190615218565b60405180910390f35b34801561069557600080fd5b5061069e6115a2565b6040516106ab9190615218565b60405180910390f35b3480156106c057600080fd5b506106c96115a8565b6040516106d69190615218565b60405180910390f35b3480156106eb57600080fd5b506106f46115b0565b6040516107019190615218565b60405180910390f35b34801561071657600080fd5b5061071f6115b6565b60405161072c9190615218565b60405180910390f35b34801561074157600080fd5b5061074a6115bc565b6040516107579190615218565b60405180910390f35b34801561076c57600080fd5b5061078760048036038101906107829190613751565b6115c2565b005b34801561079557600080fd5b506107b060048036038101906107ab9190613afe565b611d05565b005b60606000825190508067ffffffffffffffff811180156107d157600080fd5b5060405190808252806020026020018201604052801561080b57816020015b6107f8612b15565b8152602001906001900390816107f05790505b50915060005b81811015610a3557600084828151811061082757fe5b602002602001015160405160200161083f9190615131565b60405160208183030381529060405280519060200120905060106000828152602001908152602001600020600280602002604051908101604052809291906000905b828210156108bd578382600202016040518060400160405290816000820154815260200160018201548152505081526020019060010190610881565b505050508483815181106108cd57fe5b6020026020010181905250600060116000838152602001908152602001600020600280602002604051908101604052809291906000905b82821015610940578382600202016040518060400160405290816000820154815260200160018201548152505081526020019060010190610904565b50505050905061098e8160006002811061095657fe5b602002015186858151811061096757fe5b602002602001015160006002811061097b57fe5b6020020151611da790919063ffffffff16565b85848151811061099a57fe5b60200260200101516000600281106109ae57fe5b60200201819052506109fe816001600281106109c657fe5b60200201518685815181106109d757fe5b60200260200101516001600281106109eb57fe5b6020020151611da790919063ffffffff16565b858481518110610a0a57fe5b6020026020010151600160028110610a1e57fe5b602002018190525050508080600101915050610811565b5050919050565b60015481565b600360009054906101000a900473ffffffffffffffffffffffffffffffffffffffff1681565b600f5481565b6000610a7934611deb565b9050808314610abd576040517f08c379a0000000000000000000000000000000000000000000000000000000008152600401610ab490614f11565b60405180910390fd5b610ac8848484611ea6565b50505050565b600360009054906101000a900473ffffffffffffffffffffffffffffffffffffffff1673ffffffffffffffffffffffffffffffffffffffff163373ffffffffffffffffffffffffffffffffffffffff1614610b5e576040517f08c379a0000000000000000000000000000000000000000000000000000000008152600401610b5590614e51565b60405180910390fd5b600360009054906101000a900473ffffffffffffffffffffffffffffffffffffffff1673ffffffffffffffffffffffffffffffffffffffff166108fc479081150290604051600060405180830381858888f19350505050158015610bc6573d6000803e3d6000fd5b50565b60126020528060005260406000206000915090505481565b6000610bec8561208c565b9050610bfb86868686866120ee565b3373ffffffffffffffffffffffffffffffffffffffff166108fc829081150290604051600060405180830381858888f19350505050158015610c41573d6000803e3d6000fd5b50505050505050565b60008060405180604001604052806000801b81526020016000801b81525090506000604051806040016040528060106000878152602001908152602001600020600280602002604051908101604052809291906000905b82821015610cdd578382600202016040518060400160405290816000820154815260200160018201548152505081526020019060010190610ca1565b50505050815260200160116000878152602001908152602001600020600280602002604051908101604052809291906000905b82821015610d4c578382600202016040518060400160405290816000820154815260200160018201548152505081526020019060010190610d10565b505050508152509050610d8a8282600060028110610d6657fe5b6020020151600060028110610d7757fe5b60200201516126f090919063ffffffff16565b8015610dc75750610dc68282600060028110610da257fe5b6020020151600160028110610db357fe5b60200201516126f090919063ffffffff16565b5b8015610e045750610e038282600160028110610ddf57fe5b6020020151600060028110610df057fe5b60200201516126f090919063ffffffff16565b5b8015610e415750610e408282600160028110610e1c57fe5b6020020151600160028110610e2d57fe5b60200201516126f090919063ffffffff16565b5b1592505050919050565b60145481565b600e5481565b600a5481565b600360009054906101000a900473ffffffffffffffffffffffffffffffffffffffff1673ffffffffffffffffffffffffffffffffffffffff163373ffffffffffffffffffffffffffffffffffffffff1614610eed576040517f08c379a0000000000000000000000000000000000000000000000000000000008152600401610ee490615071565b60405180910390fd5b81600681905550806007819055505050565b600d5481565b600360009054906101000a900473ffffffffffffffffffffffffffffffffffffffff1673ffffffffffffffffffffffffffffffffffffffff163373ffffffffffffffffffffffffffffffffffffffff1614610f95576040517f08c379a0000000000000000000000000000000000000000000000000000000008152600401610f8c906150d1565b60405180910390fd5b80600181905550804381610fa557fe5b0460148190555060136000610fba9190612b42565b50565b600360009054906101000a900473ffffffffffffffffffffffffffffffffffffffff1673ffffffffffffffffffffffffffffffffffffffff163373ffffffffffffffffffffffffffffffffffffffff161461104d576040517f08c379a000000000000000000000000000000000000000000000000000000000815260040161104490614e71565b60405180910390fd5b8060028190555050565b600b5481565b60025481565b60005481565b600360009054906101000a900473ffffffffffffffffffffffffffffffffffffffff1673ffffffffffffffffffffffffffffffffffffffff163373ffffffffffffffffffffffffffffffffffffffff16146110f9576040517f08c379a00000000000000000000000000000000000000000000000000000000081526004016110f090614e91565b60405180910390fd5b80600360006101000a81548173ffffffffffffffffffffffffffffffffffffffff021916908373ffffffffffffffffffffffffffffffffffffffff16021790555050565b600061118561115d61114e85612718565b8661274490919063ffffffff16565b6111778461116961277d565b61274490919063ffffffff16565b611da790919063ffffffff16565b905060006111bf3086846040516020016111a193929190614cc3565b6040516020818303038152906040528051906020012060001c6127e5565b9050838114611203576040517f08c379a00000000000000000000000000000000000000000000000000000000081526004016111fa90615011565b60405180910390fd5b6000856040516020016112169190615131565b60405160208183030381529060405280519060200120905061123781610c4a565b15611277576040517f08c379a000000000000000000000000000000000000000000000000000000000815260040161126e90614ef1565b60405180910390fd5b856011600083815260200190815260200160002060006002811061129757fe5b6002020160008201518160000155602082015181600101559050506112ba61277d565b601160008381526020019081526020016000206001600281106112d957fe5b6002020160008201518160000155602082015181600101559050506001600b5401600b81905550505050505050565b611310612b15565b611318612b15565b60008360405160200161132b9190615131565b60405160208183030381529060405280519060200120905060106000828152602001908152602001600020600280602002604051908101604052809291906000905b828210156113a957838260020201604051806040016040529081600082015481526020016001820154815250508152602001906001019061136d565b50505050925060116000828152602001908152602001600020600280602002604051908101604052809291906000905b828210156114155783826002020160405180604001604052908160008201548152602001600182015481525050815260200190600101906113d9565b50505050915050915091565b60606000826040516020016114369190615131565b604051602081830303815290604052805190602001209050601560008281526020019081526020016000208054600181600116156101000203166002900480601f0160208091040260200160405190810160405280929190818152602001828054600181600116156101000203166002900480156114f55780601f106114ca576101008083540402835291602001916114f5565b820191906000526020600020905b8154815290600101906020018083116114d857829003601f168201915b5050505050915050919050565b600360009054906101000a900473ffffffffffffffffffffffffffffffffffffffff1673ffffffffffffffffffffffffffffffffffffffff163373ffffffffffffffffffffffffffffffffffffffff1614611592576040517f08c379a000000000000000000000000000000000000000000000000000000000815260040161158990615031565b60405180910390fd5b8060008190555050565b600c5481565b60075481565b63ffffffff81565b60065481565b60055481565b60045481565b60008351905060008167ffffffffffffffff811180156115e157600080fd5b5060405190808252806020026020018201604052801561161b57816020015b611608612b63565b8152602001906001900390816116005790505b50905060008267ffffffffffffffff8111801561163757600080fd5b5060405190808252806020026020018201604052801561167157816020015b61165e612b63565b8152602001906001900390816116565790505b509050828851146116b7576040517f08c379a00000000000000000000000000000000000000000000000000000000081526004016116ae90614fd1565b60405180910390fd5b60005b838110156119925760008782815181106116d057fe5b60200260200101516040516020016116e89190615131565b60405160208183030381529060405280519060200120905061170981610c4a565b611748576040517f08c379a000000000000000000000000000000000000000000000000000000000815260040161173f90614ff1565b60405180910390fd5b61175181612818565b600060116000838152602001908152602001600020600280602002604051908101604052809291906000905b828210156117b957838260020201604051806040016040529081600082015481526020016001820154815250508152602001906001019061177d565b5050505090506117f68b84815181106117ce57fe5b6020026020010151826000600281106117e357fe5b6020020151611da790919063ffffffff16565b6011600084815260200190815260200160002060006002811061181557fe5b6002020160008201518160000155602082015181600101559050506118548a8260016002811061184157fe5b6020020151611da790919063ffffffff16565b6011600084815260200190815260200160002060016002811061187357fe5b60020201600082015181600001556020820151816001015590505060106000838152602001908152602001600020600280602002604051908101604052809291906000905b828210156118f45783826002020160405180604001604052908160008201548152602001600182015481525050815260200190600101906118b8565b5050505090506119318b848151811061190957fe5b60200260200101518260006002811061191e57fe5b6020020151611da790919063ffffffff16565b85848151811061193d57fe5b602002602001018190525061196c8a8260016002811061195957fe5b6020020151611da790919063ffffffff16565b84848151811061197857fe5b6020026020010181905250505080806001019150506116ba565b506000856040516020016119a69190615131565b60405160208183030381529060405280519060200120905060005b601380549050811015611a355781601382815481106119dc57fe5b90600052602060002001541415611a28576040517f08c379a0000000000000000000000000000000000000000000000000000000008152600401611a1f90614f31565b60405180910390fd5b80806001019150506119c1565b5060138190806001815401808255809150506001900390600052602060002001600090919091909150556000600860009054906101000a900473ffffffffffffffffffffffffffffffffffffffff1673ffffffffffffffffffffffffffffffffffffffff16639471ac0a85858d8d8d6014548e6040518863ffffffff1660e01b8152600401611aca9796959493929190614d68565b60006040518083038186803b158015611ae257600080fd5b505afa158015611af6573d6000803e3d6000fd5b505050506040513d6000823e3d601f19601f82011682018060405250810190611b1f9190613a94565b90506000600860009054906101000a900473ffffffffffffffffffffffffffffffffffffffff1673ffffffffffffffffffffffffffffffffffffffff1663f98f0cc9886040518263ffffffff1660e01b8152600401611b7e9190614e0f565b60006040518083038186803b158015611b9657600080fd5b505afa158015611baa573d6000803e3d6000fd5b505050506040513d6000823e3d601f19601f82011682018060405250810190611bd39190613a29565b9050600860009054906101000a900473ffffffffffffffffffffffffffffffffffffffff1673ffffffffffffffffffffffffffffffffffffffff1663a529878e83836040518363ffffffff1660e01b8152600401611c329291906151e1565b60206040518083038186803b158015611c4a57600080fd5b505afa158015611c5e573d6000803e3d6000fd5b505050506040513d601f19601f82011682018060405250810190611c829190613810565b611cc1576040517f08c379a0000000000000000000000000000000000000000000000000000000008152600401611cb890614f51565b60405180910390fd5b7f9b814ae8a45a4c40d4c60ffa92e0c4b76dec41407cb28b43df9daffa3685f9ac89604051611cf09190614d46565b60405180910390a15050505050505050505050565b600360009054906101000a900473ffffffffffffffffffffffffffffffffffffffff1673ffffffffffffffffffffffffffffffffffffffff163373ffffffffffffffffffffffffffffffffffffffff1614611d95576040517f08c379a0000000000000000000000000000000000000000000000000000000008152600401611d8c906150b1565b60405180910390fd5b81600481905550806005819055505050565b611daf612b63565b6040518351815260208401516020820152825160408201526020830151606082015260408260808360065afa611de457600080fd5b5092915050565b6000806000548381611df957fe5b0614611e3a576040517f08c379a0000000000000000000000000000000000000000000000000000000008152600401611e3190614fb1565b60405180910390fd5b600080548381611e4657fe5b04905080600011158015611e5e575063ffffffff8111155b611e9d576040517f08c379a0000000000000000000000000000000000000000000000000000000008152600401611e9490614ed1565b60405180910390fd5b80915050919050565b63ffffffff8211158015611ec2575063ffffffff82600a540111155b611f01576040517f08c379a0000000000000000000000000000000000000000000000000000000008152600401611ef890614eb1565b60405180910390fd5b81600a6000828254019250508190555081600e600082825401925050819055506001600f60008282540192505081905550600083604051602001611f459190615131565b604051602081830303815290604052805190602001209050611f6681610c4a565b611fa5576040517f08c379a0000000000000000000000000000000000000000000000000000000008152600401611f9c90615111565b60405180910390fd5b611fae81612818565b600060116000838152602001908152602001600020600060028110611fcf57fe5b600202016040518060400160405290816000820154815260200160018201548152505090506120206120118561200361277d565b61274490919063ffffffff16565b82611da790919063ffffffff16565b9050806011600084815260200190815260200160002060006002811061204257fe5b60020201600082015181600001556020820151816001015590505082601560008481526020019081526020016000209080519060200190612084929190612b83565b505050505050565b6000816000111580156120a3575063ffffffff8211155b6120e2576040517f08c379a00000000000000000000000000000000000000000000000000000000081526004016120d9906150f1565b60405180910390fd5b60005482029050919050565b83600a541015612133576040517f08c379a000000000000000000000000000000000000000000000000000000000815260040161212a90614f71565b60405180910390fd5b83600a600082825403925050819055506000856040516020016121569190615131565b60405160208183030381529060405280519060200120905061217781610c4a565b6121b6576040517f08c379a00000000000000000000000000000000000000000000000000000000081526004016121ad90614f91565b60405180910390fd5b6121bf81612818565b600060116000838152602001908152602001600020600280602002604051908101604052809291906000905b828210156122275783826002020160405180604001604052908160008201548152602001600182015481525050815260200190600101906121eb565b50505050905061227261225261223c88612718565b61224461277d565b61274490919063ffffffff16565b8260006002811061225f57fe5b6020020151611da790919063ffffffff16565b6011600084815260200190815260200160002060006002811061229157fe5b60020201600082015181600001556020820151816001015590505060106000838152602001908152602001600020600280602002604051908101604052809291906000905b828210156123125783826002020160405180604001604052908160008201548152602001600182015481525050815260200190600101906122d6565b50505050905061235d61233d61232788612718565b61232f61277d565b61274490919063ffffffff16565b8260006002811061234a57fe5b6020020151611da790919063ffffffff16565b8160006002811061236a57fe5b60200201819052506000856040516020016123859190615131565b60405160208183030381529060405280519060200120905060005b6013805490508110156124145781601382815481106123bb57fe5b90600052602060002001541415612407576040517f08c379a00000000000000000000000000000000000000000000000000000000081526004016123fe90614e31565b60405180910390fd5b80806001019150506123a0565b50601381908060018154018082558091505060019003906000526020600020016000909190919091505583601560008581526020019081526020016000209080519060200190612465929190612b83565b506000600960009054906101000a900473ffffffffffffffffffffffffffffffffffffffff1673ffffffffffffffffffffffffffffffffffffffff1663bba28e3c846000600281106124b357fe5b6020020151856001600281106124c557fe5b60200201518c6014548c336040518763ffffffff1660e01b81526004016124f19695949392919061514c565b6101406040518083038186803b15801561250a57600080fd5b505afa15801561251e573d6000803e3d6000fd5b505050506040513d601f19601f820116820180604052508101906125429190613a6a565b90506000600960009054906101000a900473ffffffffffffffffffffffffffffffffffffffff1673ffffffffffffffffffffffffffffffffffffffff1663f98f0cc9886040518263ffffffff1660e01b81526004016125a19190614e0f565b60006040518083038186803b1580156125b957600080fd5b505afa1580156125cd573d6000803e3d6000fd5b505050506040513d6000823e3d601f19601f820116820180604052508101906125f691906139e8565b9050600960009054906101000a900473ffffffffffffffffffffffffffffffffffffffff1673ffffffffffffffffffffffffffffffffffffffff1663d039751f83836040518363ffffffff1660e01b81526004016126559291906151af565b60206040518083038186803b15801561266d57600080fd5b505afa158015612681573d6000803e3d6000fd5b505050506040513d601f19601f820116820180604052508101906126a59190613810565b6126e4576040517f08c379a00000000000000000000000000000000000000000000000000000000081526004016126db90615051565b60405180910390fd5b50505050505050505050565b600081600001518360000151148015612710575081602001518360200151145b905092915050565b6000817f30644e72e131a029b85045b68181585d2833e84879b9709143e1f593f0000001039050919050565b61274c612b63565b604051835181526020840151602082015282604082015260408260608360075afa61277657600080fd5b5092915050565b612785612b63565b60405180604001604052807f077da99d806abd13c9f15ece5398525119d11e11e9836b2ee7d23f6159ad87d460001b81526020017f01485efa927f2ad41bff567eec88f32fb0a0f706588b4e41a8d587d008b7f87560001b815250905090565b60007f30644e72e131a029b85045b68181585d2833e84879b9709143e1f593f0000001828161281057fe5b069050919050565b600080600254141561283757600154438161282f57fe5b049050612891565b6001600254141561285557600154428161284d57fe5b049050612890565b6040517f08c379a000000000000000000000000000000000000000000000000000000000815260040161288790615091565b60405180910390fd5b5b80601260008481526020019081526020016000205414612af1576000604051806040016040528060106000868152602001908152602001600020600280602002604051908101604052809291906000905b8282101561291e5783826002020160405180604001604052908160008201548152602001600182015481525050815260200190600101906128e2565b50505050815260200160116000868152602001908152602001600020600280602002604051908101604052809291906000905b8282101561298d578382600202016040518060400160405290816000820154815260200160018201548152505081526020019060010190612951565b5050505081525090506129ed816001600281106129a657fe5b60200201516000600281106129b757fe5b6020020151826000600281106129c957fe5b60200201516000600281106129da57fe5b6020020151611da790919063ffffffff16565b60106000858152602001908152602001600020600060028110612a0c57fe5b600202016000820151816000015560208201518160010155905050612a7e81600160028110612a3757fe5b6020020151600160028110612a4857fe5b602002015182600060028110612a5a57fe5b6020020151600160028110612a6b57fe5b6020020151611da790919063ffffffff16565b60106000858152602001908152602001600020600160028110612a9d57fe5b600202016000820151816000015560208201518160010155905050601160008481526020019081526020016000206000612ad79190612c11565b816012600085815260200190815260200160002081905550505b806014541015612b11578060148190555060136000612b109190612b42565b5b5050565b60405180604001604052806002905b612b2c612b63565b815260200190600190039081612b245790505090565b5080546000825590600052602060002090810190612b609190612c3c565b50565b604051806040016040528060008019168152602001600080191681525090565b828054600181600116156101000203166002900490600052602060002090601f016020900481019282612bb95760008555612c00565b82601f10612bd257805160ff1916838001178555612c00565b82800160010185558215612c00579182015b82811115612bff578251825591602001919060010190612be4565b5b509050612c0d9190612c59565b5090565b5060008082016000905560018201600090555060020160008082016000905560018201600090555050565b5b80821115612c55576000816000905550600101612c3d565b5090565b5b80821115612c72576000816000905550600101612c5a565b5090565b6000612c89612c8484615264565b615233565b90508082856040860282011115612c9f57600080fd5b60005b85811015612ccf5781612cb58882612fdf565b845260208401935060408301925050600181019050612ca2565b5050509392505050565b6000612cec612ce78461528a565b615233565b90508083825260208201905082856040860282011115612d0b57600080fd5b60005b85811015612d3b5781612d218882612f93565b845260208401935060408301925050600181019050612d0e565b5050509392505050565b6000612d58612d538461528a565b615233565b90508083825260208201905082856040860282011115612d7757600080fd5b60005b85811015612da75781612d8d8882612fdf565b845260208401935060408301925050600181019050612d7a565b5050509392505050565b6000612dc4612dbf846152b6565b615233565b90508083825260208201905082856020860282011115612de357600080fd5b60005b85811015612e135781612df988826136d2565b845260208401935060208301925050600181019050612de6565b5050509392505050565b6000612e30612e2b846152e2565b615233565b905082815260208101848484011115612e4857600080fd5b612e538482856154cd565b509392505050565b600081519050612e6a81615522565b92915050565b600081359050612e7f81615539565b92915050565b600082601f830112612e9657600080fd5b6002612ea3848285612c76565b91505092915050565b600082601f830112612ebd57600080fd5b8135612ecd848260208601612cd9565b91505092915050565b600082601f830112612ee757600080fd5b8151612ef7848260208601612d45565b91505092915050565b600082601f830112612f1157600080fd5b8151612f21848260208601612db1565b91505092915050565b600081519050612f3981615550565b92915050565b600081359050612f4e81615567565b92915050565b600081519050612f6381615567565b92915050565b600082601f830112612f7a57600080fd5b8135612f8a848260208601612e1d565b91505092915050565b600060408284031215612fa557600080fd5b612faf6040615233565b90506000612fbf84828501612f3f565b6000830152506020612fd384828501612f3f565b60208301525092915050565b600060408284031215612ff157600080fd5b612ffb6040615233565b9050600061300b84828501612f54565b600083015250602061301f84828501612f54565b60208301525092915050565b60006080828403121561303d57600080fd5b6130476080615233565b9050600082015167ffffffffffffffff81111561306357600080fd5b61306f84828501612ed6565b600083015250602082015167ffffffffffffffff81111561308f57600080fd5b61309b84828501612ed6565b60208301525060406130af848285016136d2565b60408301525060606130c3848285016136d2565b60608301525092915050565b60006101e082840312156130e257600080fd5b6130ed610140615233565b905060006130fd84828501612fdf565b600083015250604061311184828501612fdf565b602083015250608061312584828501612e85565b60408301525061010061313a848285016136d2565b60608301525061012061314f848285016136d2565b608083015250610140613164848285016136d2565b60a083015250610160613179848285016136d2565b60c08301525061018061318e848285016136d2565b60e0830152506101a06131a3848285016136d2565b610100830152506101c082015167ffffffffffffffff8111156131c557600080fd5b6131d18482850161302b565b6101208301525092915050565b600061040082840312156131f157600080fd5b6131fc610320615233565b9050600061320c84828501612fdf565b600083015250604061322084828501612fdf565b602083015250608061323484828501612fdf565b60408301525060c061324884828501612fdf565b60608301525061010082015167ffffffffffffffff81111561326957600080fd5b61327584828501612ed6565b60808301525061012082015167ffffffffffffffff81111561329657600080fd5b6132a284828501612ed6565b60a08301525061014082015167ffffffffffffffff8111156132c357600080fd5b6132cf84828501612ed6565b60c08301525061016082015167ffffffffffffffff8111156132f057600080fd5b6132fc84828501612ed6565b60e08301525061018082015167ffffffffffffffff81111561331d57600080fd5b61332984828501612ed6565b610100830152506101a082015167ffffffffffffffff81111561334b57600080fd5b61335784828501612ed6565b610120830152506101c082015167ffffffffffffffff81111561337957600080fd5b61338584828501612ed6565b610140830152506101e082015167ffffffffffffffff8111156133a757600080fd5b6133b384828501612ed6565b6101608301525061020082015167ffffffffffffffff8111156133d557600080fd5b6133e184828501612f00565b610180830152506102206133f7848285016136d2565b6101a08301525061024061340d848285016136d2565b6101c083015250610260613423848285016136d2565b6101e08301525061028061343984828501612e85565b6102008301525061030061344f848285016136d2565b61022083015250610320613465848285016136d2565b6102408301525061034061347b848285016136d2565b61026083015250610360613491848285016136d2565b610280830152506103806134a7848285016136d2565b6102a0830152506103a06134bd848285016136d2565b6102c0830152506103c06134d3848285016136d2565b6102e0830152506103e082015167ffffffffffffffff8111156134f557600080fd5b6135018482850161302b565b6103008301525092915050565b6000610140828403121561352157600080fd5b61352b60c0615233565b9050600061353b84828501612fdf565b600083015250604061354f84828501612fdf565b602083015250608061356384828501612fdf565b60408301525060c0613577848285016136d2565b60608301525060e061358b84828501612fdf565b6080830152506101206135a084828501612e5b565b60a08301525092915050565b600061012082840312156135bf57600080fd5b6135c960e0615233565b9050600082015167ffffffffffffffff8111156135e557600080fd5b6135f184828501612ed6565b600083015250602082015167ffffffffffffffff81111561361157600080fd5b61361d84828501612ed6565b602083015250604082015167ffffffffffffffff81111561363d57600080fd5b61364984828501612ed6565b604083015250606061365d84828501612fdf565b60608301525060a082015167ffffffffffffffff81111561367d57600080fd5b61368984828501612ed6565b60808301525060c061369d848285016136d2565b60a08301525060e06136b184828501612fdf565b60c08301525092915050565b6000813590506136cc8161557e565b92915050565b6000815190506136e18161557e565b92915050565b6000602082840312156136f957600080fd5b600061370784828501612e70565b91505092915050565b60006020828403121561372257600080fd5b600082013567ffffffffffffffff81111561373c57600080fd5b61374884828501612eac565b91505092915050565b600080600080600060e0868803121561376957600080fd5b600086013567ffffffffffffffff81111561378357600080fd5b61378f88828901612eac565b95505060206137a088828901612f93565b945050606086013567ffffffffffffffff8111156137bd57600080fd5b6137c988828901612eac565b93505060806137da88828901612f93565b92505060c086013567ffffffffffffffff8111156137f757600080fd5b61380388828901612f69565b9150509295509295909350565b60006020828403121561382257600080fd5b600061383084828501612f2a565b91505092915050565b60006020828403121561384b57600080fd5b600061385984828501612f3f565b91505092915050565b60006040828403121561387457600080fd5b600061388284828501612f93565b91505092915050565b6000806000608084860312156138a057600080fd5b60006138ae86828701612f93565b93505060406138bf868287016136bd565b925050606084013567ffffffffffffffff8111156138dc57600080fd5b6138e886828701612f69565b9150509250925092565b600080600080600060e0868803121561390a57600080fd5b600061391888828901612f93565b9550506040613929888289016136bd565b945050606061393a88828901612f93565b93505060a086013567ffffffffffffffff81111561395757600080fd5b61396388828901612f69565b92505060c086013567ffffffffffffffff81111561398057600080fd5b61398c88828901612f69565b9150509295509295909350565b6000806000608084860312156139ae57600080fd5b60006139bc86828701612f93565b93505060406139cd868287016136bd565b92505060606139de868287016136bd565b9150509250925092565b6000602082840312156139fa57600080fd5b600082015167ffffffffffffffff811115613a1457600080fd5b613a20848285016130cf565b91505092915050565b600060208284031215613a3b57600080fd5b600082015167ffffffffffffffff811115613a5557600080fd5b613a61848285016131de565b91505092915050565b60006101408284031215613a7d57600080fd5b6000613a8b8482850161350e565b91505092915050565b600060208284031215613aa657600080fd5b600082015167ffffffffffffffff811115613ac057600080fd5b613acc848285016135ac565b91505092915050565b600060208284031215613ae757600080fd5b6000613af5848285016136bd565b91505092915050565b60008060408385031215613b1157600080fd5b6000613b1f858286016136bd565b9250506020613b30858286016136bd565b9150509250929050565b6000613b468383613c1c565b60808301905092915050565b6000613b5e8383614733565b60408301905092915050565b6000613b768383614c61565b60208301905092915050565b613b8b81615497565b82525050565b613b9a81615445565b82525050565b613ba981615433565b82525050565b613bb881615433565b82525050565b6000613bc98261534c565b613bd381856153b7565b9350613bde83615312565b8060005b83811015613c0f578151613bf68882613b3a565b9750613c0183615383565b925050600181019050613be2565b5085935050505092915050565b613c2581615357565b613c2f81846153c8565b9250613c3a82615322565b8060005b83811015613c6b578151613c528782613b52565b9650613c5d83615390565b925050600181019050613c3e565b505050505050565b613c7c81615357565b613c8681846153d3565b9250613c9182615322565b8060005b83811015613cc2578151613ca98782613b52565b9650613cb483615390565b925050600181019050613c95565b505050505050565b6000613cd582615362565b613cdf81856153de565b9350613cea8361532c565b8060005b83811015613d1b578151613d028882613b52565b9750613d0d8361539d565b925050600181019050613cee565b5085935050505092915050565b6000613d3382615362565b613d3d81856153ef565b9350613d488361532c565b8060005b83811015613d79578151613d608882613b52565b9750613d6b8361539d565b925050600181019050613d4c565b5085935050505092915050565b6000613d918261536d565b613d9b8185615400565b9350613da68361533c565b8060005b83811015613dd7578151613dbe8882613b6a565b9750613dc9836153aa565b925050600181019050613daa565b5085935050505092915050565b613ded81615457565b82525050565b613dfc81615463565b82525050565b6000613e0d82615378565b613e178185615411565b9350613e278185602086016154dc565b613e3081615511565b840191505092915050565b6000613e48602383615422565b91507f5b42656c6465782072656465656d5d204e6f6e636520616c726561647920736560008301527f656e2100000000000000000000000000000000000000000000000000000000006020830152604082019050919050565b6000613eae603583615422565b91507f5065726d697373696f6e2064656e6965643a204f6e6c792061646d696e20636160008301527f6e2077697468647261772074686520746f6b656e2e00000000000000000000006020830152604082019050919050565b6000613f14603483615422565b91507f5065726d697373696f6e2064656e6965643a204f6e6c792061646d696e20636160008301527f6e206368616e676520726f756e6420626173652e0000000000000000000000006020830152604082019050919050565b6000613f7a603083615422565b91507f5065726d697373696f6e2064656e6965643a204f6e6c792061646d696e20636160008301527f6e206368616e6765206167656e63792e000000000000000000000000000000006020830152604082019050919050565b6000613fe0603683615422565b91507f5b42656c646578206d696e745d204d696e742070757368657320636f6e74726160008301527f63742070617374206d6178696d756d2076616c75652e000000000000000000006020830152604082019050919050565b6000614046601483615422565b91507f416d6f756e74206f7574206f662072616e67652e0000000000000000000000006000830152602082019050919050565b6000614086601b83615422565b91507f4163636f756e7420616c726561647920726567697374657265642100000000006000830152602082019050919050565b60006140c6604683615422565b91507f5b42656c646578206d696e745d20537065636966696564206d696e7420616d6f60008301527f756e74206973206469666665726e65742066726f6d207468652070616964206160208301527f6d6f756e742e00000000000000000000000000000000000000000000000000006040830152606082019050919050565b6000614152602583615422565b91507f5b42656c646578207472616e736665725d204e6f6e636520616c72656164792060008301527f7365656e210000000000000000000000000000000000000000000000000000006020830152604082019050919050565b60006141b8602683615422565b91507f5b42656c646578207472616e736665725d204661696c65643a2076657269666960008301527f636174696f6e00000000000000000000000000000000000000000000000000006020830152604082019050919050565b600061421e602e83615422565b91507f5b42656c6465782072656465656d5d204661696c65643a20496e76616c69642060008301527f72656465656d20616d6f756e742e0000000000000000000000000000000000006020830152604082019050919050565b6000614284602b83615422565b91507f5b42656c6465782072656465656d5d204163636f756e74206e6f74207965742060008301527f726567697374657265642e0000000000000000000000000000000000000000006020830152604082019050919050565b60006142ea602983615422565b91507f4e617469766520616d6f756e74206d757374206265206d756c7469706c65206f60008301527f66206120756e69742e00000000000000000000000000000000000000000000006020830152604082019050919050565b6000614350602e83615422565b91507f5b42656c646578207472616e736665725d20496e707574206172726179206c6560008301527f6e677468206d69736d61746368210000000000000000000000000000000000006020830152604082019050919050565b60006143b6602d83615422565b91507f5b42656c646578207472616e736665725d204163636f756e74206e6f7420796560008301527f7420726567697374657265642e000000000000000000000000000000000000006020830152604082019050919050565b600061441c601f83615422565b91507f496e76616c696420726567697374726174696f6e207369676e617475726521006000830152602082019050919050565b600061445c602e83615422565b91507f5065726d697373696f6e2064656e6965643a204f6e6c792061646d696e20636160008301527f6e206368616e676520756e69742e0000000000000000000000000000000000006020830152604082019050919050565b60006144c2602583615422565b91507f5b42656c6465782072656465656d5d204661696c65643a20766572696669636160008301527f74696f6e210000000000000000000000000000000000000000000000000000006020830152604082019050919050565b6000614528603f83615422565b91507f5065726d697373696f6e2064656e6965643a204f6e6c792061646d696e20636160008301527f6e206368616e6765207472616e73666572206665652073747261746567792e006020830152604082019050919050565b600061458e601383615422565b91507f496e76616c696420726f756e6420626173652e000000000000000000000000006000830152602082019050919050565b60006145ce603d83615422565b91507f5065726d697373696f6e2064656e6965643a204f6e6c792061646d696e20636160008301527f6e206368616e67652072656465656d206665652073747261746567792e0000006020830152604082019050919050565b6000614634603683615422565b91507f5065726d697373696f6e2064656e6965643a204f6e6c792061646d696e20636160008301527f6e206368616e676520726f756e64206c656e6774682e000000000000000000006020830152604082019050919050565b600061469a601383615422565b91507f416d6f756e74206f7574206f662072616e6765000000000000000000000000006000830152602082019050919050565b60006146da602983615422565b91507f5b42656c646578206d696e745d204163636f756e74206e6f742079657420726560008301527f67697374657265642e00000000000000000000000000000000000000000000006020830152604082019050919050565b6040820160008201516147496000850182613df3565b50602082015161475c6020850182613df3565b50505050565b6040820160008201516147786000850182613df3565b50602082015161478b6020850182613df3565b50505050565b600060808301600083015184820360008601526147ae8282613cca565b915050602083015184820360208601526147c88282613cca565b91505060408301516147dd6040860182614c61565b5060608301516147f06060860182614c61565b508091505092915050565b60006101e0830160008301516148146000860182614733565b5060208301516148276040860182614733565b50604083015161483a6080860182613c1c565b50606083015161484e610100860182614c61565b506080830151614862610120860182614c61565b5060a0830151614876610140860182614c61565b5060c083015161488a610160860182614c61565b5060e083015161489e610180860182614c61565b506101008301516148b36101a0860182614c61565b506101208301518482036101c08601526148cd8282614791565b9150508091505092915050565b6000610400830160008301516148f36000860182614733565b5060208301516149066040860182614733565b5060408301516149196080860182614733565b50606083015161492c60c0860182614733565b5060808301518482036101008601526149458282613cca565b91505060a08301518482036101208601526149608282613cca565b91505060c083015184820361014086015261497b8282613cca565b91505060e08301518482036101608601526149968282613cca565b9150506101008301518482036101808601526149b28282613cca565b9150506101208301518482036101a08601526149ce8282613cca565b9150506101408301518482036101c08601526149ea8282613cca565b9150506101608301518482036101e0860152614a068282613cca565b915050610180830151848203610200860152614a228282613d86565b9150506101a0830151614a39610220860182614c61565b506101c0830151614a4e610240860182614c61565b506101e0830151614a63610260860182614c61565b50610200830151614a78610280860182613c1c565b50610220830151614a8d610300860182614c61565b50610240830151614aa2610320860182614c61565b50610260830151614ab7610340860182614c61565b50610280830151614acc610360860182614c61565b506102a0830151614ae1610380860182614c61565b506102c0830151614af66103a0860182614c61565b506102e0830151614b0b6103c0860182614c61565b506103008301518482036103e0860152614b258282614791565b9150508091505092915050565b61014082016000820151614b496000850182614733565b506020820151614b5c6040850182614733565b506040820151614b6f6080850182614733565b506060820151614b8260c0850182614c61565b506080820151614b9560e0850182614733565b5060a0820151614ba9610120850182613ba0565b50505050565b6000610120830160008301518482036000860152614bcd8282613cca565b91505060208301518482036020860152614be78282613cca565b91505060408301518482036040860152614c018282613cca565b9150506060830151614c166060860182614733565b50608083015184820360a0860152614c2e8282613cca565b91505060a0830151614c4360c0860182614c61565b5060c0830151614c5660e0860182614733565b508091505092915050565b614c6a8161548d565b82525050565b614c798161548d565b82525050565b6000602082019050614c946000830184613b91565b92915050565b6000604082019050614caf6000830185613b82565b614cbc6020830184614c70565b9392505050565b600060a082019050614cd86000830186613baf565b614ce56020830185614762565b614cf26060830184614762565b949350505050565b60006020820190508181036000830152614d148184613bbe565b905092915050565b600061010082019050614d326000830185613c73565b614d3f6080830184613c73565b9392505050565b60006020820190508181036000830152614d608184613d28565b905092915050565b6000610120820190508181036000830152614d83818a613d28565b90508181036020830152614d978189613d28565b90508181036040830152614dab8188613d28565b9050614dba6060830187614762565b81810360a0830152614dcc8186613d28565b9050614ddb60c0830185614c70565b614de860e0830184614762565b98975050505050505050565b6000602082019050614e096000830184613de4565b92915050565b60006020820190508181036000830152614e298184613e02565b905092915050565b60006020820190508181036000830152614e4a81613e3b565b9050919050565b60006020820190508181036000830152614e6a81613ea1565b9050919050565b60006020820190508181036000830152614e8a81613f07565b9050919050565b60006020820190508181036000830152614eaa81613f6d565b9050919050565b60006020820190508181036000830152614eca81613fd3565b9050919050565b60006020820190508181036000830152614eea81614039565b9050919050565b60006020820190508181036000830152614f0a81614079565b9050919050565b60006020820190508181036000830152614f2a816140b9565b9050919050565b60006020820190508181036000830152614f4a81614145565b9050919050565b60006020820190508181036000830152614f6a816141ab565b9050919050565b60006020820190508181036000830152614f8a81614211565b9050919050565b60006020820190508181036000830152614faa81614277565b9050919050565b60006020820190508181036000830152614fca816142dd565b9050919050565b60006020820190508181036000830152614fea81614343565b9050919050565b6000602082019050818103600083015261500a816143a9565b9050919050565b6000602082019050818103600083015261502a8161440f565b9050919050565b6000602082019050818103600083015261504a8161444f565b9050919050565b6000602082019050818103600083015261506a816144b5565b9050919050565b6000602082019050818103600083015261508a8161451b565b9050919050565b600060208201905081810360008301526150aa81614581565b9050919050565b600060208201905081810360008301526150ca816145c1565b9050919050565b600060208201905081810360008301526150ea81614627565b9050919050565b6000602082019050818103600083015261510a8161468d565b9050919050565b6000602082019050818103600083015261512a816146cd565b9050919050565b60006040820190506151466000830184614762565b92915050565b6000610140820190506151626000830189614762565b61516f6040830188614762565b61517c6080830187614762565b61518960c0830186614c70565b61519660e0830185614762565b6151a4610120830184613b82565b979650505050505050565b6000610160820190506151c56000830185614b32565b8181036101408301526151d881846147fb565b90509392505050565b600060408201905081810360008301526151fb8185614baf565b9050818103602083015261520f81846148da565b90509392505050565b600060208201905061522d6000830184614c70565b92915050565b6000604051905081810181811067ffffffffffffffff8211171561525a5761525961550f565b5b8060405250919050565b600067ffffffffffffffff82111561527f5761527e61550f565b5b602082029050919050565b600067ffffffffffffffff8211156152a5576152a461550f565b5b602082029050602081019050919050565b600067ffffffffffffffff8211156152d1576152d061550f565b5b602082029050602081019050919050565b600067ffffffffffffffff8211156152fd576152fc61550f565b5b601f19601f8301169050602081019050919050565b6000819050602082019050919050565b6000819050919050565b6000819050602082019050919050565b6000819050602082019050919050565b600081519050919050565b600060029050919050565b600081519050919050565b600081519050919050565b600081519050919050565b6000602082019050919050565b6000602082019050919050565b6000602082019050919050565b6000602082019050919050565b600082825260208201905092915050565b600081905092915050565b600081905092915050565b600082825260208201905092915050565b600082825260208201905092915050565b600082825260208201905092915050565b600082825260208201905092915050565b600082825260208201905092915050565b600061543e8261546d565b9050919050565b60006154508261546d565b9050919050565b60008115159050919050565b6000819050919050565b600073ffffffffffffffffffffffffffffffffffffffff82169050919050565b6000819050919050565b60006154a2826154a9565b9050919050565b60006154b4826154bb565b9050919050565b60006154c68261546d565b9050919050565b82818337600083830152505050565b60005b838110156154fa5780820151818401526020810190506154df565b83811115615509576000848401525b50505050565bfe5b6000601f19601f8301169050919050565b61552b81615433565b811461553657600080fd5b50565b61554281615445565b811461554d57600080fd5b50565b61555981615457565b811461556457600080fd5b50565b61557081615463565b811461557b57600080fd5b50565b6155878161548d565b811461559257600080fd5b5056fea2646970667358221220887a49cc07d63f3a62a9ddf4669453bccf41c8c07ac5edca9b097fb075ac5b6f64736f6c63430007060033",
  "immutableReferences": {},
  "source": "// SPDX-License-Identifier: MIT\npragma solidity 0.7.6;\npragma experimental ABIEncoderV2;\n\nimport \"./Utils.sol\";\nimport \"./BeldexBase.sol\";\n\ncontract BeldexETH is BeldexBase {\n    using Utils for uint256;\n    using Utils for Utils.G1Point;\n\n    event received(address sender, uint amount);\n\n    constructor(address _transfer, address _redeem, uint256 _unit) BeldexBase(_transfer, _redeem, _unit) {\n    }\n\n    receive() external payable {\n        emit received(msg.sender, msg.value);\n    }\n\n    function mint(Utils.G1Point memory y, uint256 unitAmount, bytes memory encGuess) public payable {\n        uint256 mUnitAmount = toUnitAmount(msg.value);\n        require(unitAmount == mUnitAmount, \"[Beldex mint] Specified mint amount is differnet from the paid amount.\");\n\n        mintBase(y, unitAmount, encGuess);\n    }\n\n    function redeem(Utils.G1Point memory y, uint256 unitAmount, Utils.G1Point memory u, bytes memory proof, bytes memory encGuess) public {\n        uint256 nativeAmount = toNativeAmount(unitAmount);\n        redeemBase(y, unitAmount, u, proof, encGuess);\n        msg.sender.transfer(nativeAmount);\n    }\n\n    function transfer(Utils.G1Point[] memory C, Utils.G1Point memory D, \n                      Utils.G1Point[] memory y, Utils.G1Point memory u, \n                      bytes memory proof) public {\n\n        // TODO: check that sender and receiver should NOT be equal.\n        uint256 size = y.length;\n        Utils.G1Point[] memory CLn = new Utils.G1Point[](size);\n        Utils.G1Point[] memory CRn = new Utils.G1Point[](size);\n        require(C.length == size, \"[Beldex transfer] Input array length mismatch!\");\n\n\n        for (uint256 i = 0; i < size; i++) {\n            bytes32 yHash = keccak256(abi.encode(y[i]));\n            require(registered(yHash), \"[Beldex transfer] Account not yet registered.\");\n            rollOver(yHash);\n            Utils.G1Point[2] memory scratch = pending[yHash];\n            pending[yHash][0] = scratch[0].pAdd(C[i]);\n            pending[yHash][1] = scratch[1].pAdd(D);\n\n            scratch = acc[yHash];\n            CLn[i] = scratch[0].pAdd(C[i]);\n            CRn[i] = scratch[1].pAdd(D);\n        }\n\n        bytes32 uHash = keccak256(abi.encode(u));\n        for (uint256 i = 0; i < nonce_set.length; i++) {\n            require(nonce_set[i] != uHash, \"[Beldex transfer] Nonce already seen!\");\n        }\n        nonce_set.push(uHash);\n\n        BeldexTransfer.Statement memory beldex_stm = beldex_transfer.wrapStatement(CLn, CRn, C, D, y, last_global_update, u);\n        BeldexTransfer.Proof memory beldex_proof = beldex_transfer.unserialize(proof);\n\n        require(beldex_transfer.verify(beldex_stm, beldex_proof), \"[Beldex transfer] Failed: verification\");\n\n        emit TransferOccurred(y);\n    }\n\n}",
  "sourcePath": "/Users/apple/Documents/beldex-project/privacy-protocol/beldex-protocol-update/contracts/BeldexETH.sol",
  "compiler": {
    "name": "solc",
    "version": "0.7.6+commit.7338295f.Emscripten.clang"
  },
  "schemaVersion": "3.4.16",
  "updatedAt": "2024-04-01T10:17:16.932Z",
  "networkType": "ethereum",
  "devdoc": {
    "kind": "dev",
    "methods": {},
    "version": 1
  },
  "userdoc": {
    "kind": "user",
    "methods": {},
    "version": 1
  }
}