{
  "contractName": "BeldexETH",
  "abi": [
    {
      "inputs": [
        {
          "internalType": "address",
          "name": "_transfer",
          "type": "address"
        },
        {
          "internalType": "address",
          "name": "_redeem",
          "type": "address"
        },
        {
          "internalType": "uint256",
          "name": "_unit",
          "type": "uint256"
        }
      ],
      "stateMutability": "nonpayable",
      "type": "constructor"
    },
    {
      "anonymous": false,
      "inputs": [
        {
          "indexed": false,
          "internalType": "string",
          "name": "label",
          "type": "string"
        },
        {
          "indexed": true,
          "internalType": "uint256",
          "name": "value",
          "type": "uint256"
        }
      ],
      "name": "LogUint256",
      "type": "event"
    },
    {
      "anonymous": false,
      "inputs": [
        {
          "components": [
            {
              "internalType": "bytes32",
              "name": "x",
              "type": "bytes32"
            },
            {
              "internalType": "bytes32",
              "name": "y",
              "type": "bytes32"
            }
          ],
          "indexed": false,
          "internalType": "struct Utils.G1Point[]",
          "name": "parties",
          "type": "tuple[]"
        }
      ],
      "name": "TransferOccurred",
      "type": "event"
    },
    {
      "inputs": [],
      "name": "MAX",
      "outputs": [
        {
          "internalType": "uint256",
          "name": "",
          "type": "uint256"
        }
      ],
      "stateMutability": "view",
      "type": "function"
    },
    {
      "inputs": [],
      "name": "balance_log",
      "outputs": [
        {
          "internalType": "uint256",
          "name": "",
          "type": "uint256"
        }
      ],
      "stateMutability": "view",
      "type": "function"
    },
    {
      "inputs": [],
      "name": "beldex_agency",
      "outputs": [
        {
          "internalType": "address payable",
          "name": "",
          "type": "address"
        }
      ],
      "stateMutability": "view",
      "type": "function"
    },
    {
      "inputs": [],
      "name": "deposits_log",
      "outputs": [
        {
          "internalType": "uint256",
          "name": "",
          "type": "uint256"
        }
      ],
      "stateMutability": "view",
      "type": "function"
    },
    {
      "inputs": [
        {
          "components": [
            {
              "internalType": "bytes32",
              "name": "x",
              "type": "bytes32"
            },
            {
              "internalType": "bytes32",
              "name": "y",
              "type": "bytes32"
            }
          ],
          "internalType": "struct Utils.G1Point",
          "name": "y",
          "type": "tuple"
        }
      ],
      "name": "getAccountState",
      "outputs": [
        {
          "components": [
            {
              "internalType": "bytes32",
              "name": "x",
              "type": "bytes32"
            },
            {
              "internalType": "bytes32",
              "name": "y",
              "type": "bytes32"
            }
          ],
          "internalType": "struct Utils.G1Point[2]",
          "name": "y_available",
          "type": "tuple[2]"
        },
        {
          "components": [
            {
              "internalType": "bytes32",
              "name": "x",
              "type": "bytes32"
            },
            {
              "internalType": "bytes32",
              "name": "y",
              "type": "bytes32"
            }
          ],
          "internalType": "struct Utils.G1Point[2]",
          "name": "y_pending",
          "type": "tuple[2]"
        }
      ],
      "stateMutability": "view",
      "type": "function"
    },
    {
      "inputs": [
        {
          "components": [
            {
              "internalType": "bytes32",
              "name": "x",
              "type": "bytes32"
            },
            {
              "internalType": "bytes32",
              "name": "y",
              "type": "bytes32"
            }
          ],
          "internalType": "struct Utils.G1Point[]",
          "name": "y",
          "type": "tuple[]"
        }
      ],
      "name": "getBalance",
      "outputs": [
        {
          "components": [
            {
              "internalType": "bytes32",
              "name": "x",
              "type": "bytes32"
            },
            {
              "internalType": "bytes32",
              "name": "y",
              "type": "bytes32"
            }
          ],
          "internalType": "struct Utils.G1Point[2][]",
          "name": "accounts",
          "type": "tuple[2][]"
        }
      ],
      "stateMutability": "view",
      "type": "function"
    },
    {
      "inputs": [
        {
          "components": [
            {
              "internalType": "bytes32",
              "name": "x",
              "type": "bytes32"
            },
            {
              "internalType": "bytes32",
              "name": "y",
              "type": "bytes32"
            }
          ],
          "internalType": "struct Utils.G1Point",
          "name": "y",
          "type": "tuple"
        }
      ],
      "name": "getGuess",
      "outputs": [
        {
          "internalType": "bytes",
          "name": "y_guess",
          "type": "bytes"
        }
      ],
      "stateMutability": "view",
      "type": "function"
    },
    {
      "inputs": [],
      "name": "last_global_update",
      "outputs": [
        {
          "internalType": "uint256",
          "name": "",
          "type": "uint256"
        }
      ],
      "stateMutability": "view",
      "type": "function"
    },
    {
      "inputs": [
        {
          "internalType": "bytes32",
          "name": "",
          "type": "bytes32"
        }
      ],
      "name": "last_roll_over",
      "outputs": [
        {
          "internalType": "uint256",
          "name": "",
          "type": "uint256"
        }
      ],
      "stateMutability": "view",
      "type": "function"
    },
    {
      "inputs": [],
      "name": "mint_count_log",
      "outputs": [
        {
          "internalType": "uint256",
          "name": "",
          "type": "uint256"
        }
      ],
      "stateMutability": "view",
      "type": "function"
    },
    {
      "inputs": [],
      "name": "redeem_fee_denominator",
      "outputs": [
        {
          "internalType": "uint256",
          "name": "",
          "type": "uint256"
        }
      ],
      "stateMutability": "view",
      "type": "function"
    },
    {
      "inputs": [],
      "name": "redeem_fee_log",
      "outputs": [
        {
          "internalType": "uint256",
          "name": "",
          "type": "uint256"
        }
      ],
      "stateMutability": "view",
      "type": "function"
    },
    {
      "inputs": [],
      "name": "redeem_fee_numerator",
      "outputs": [
        {
          "internalType": "uint256",
          "name": "",
          "type": "uint256"
        }
      ],
      "stateMutability": "view",
      "type": "function"
    },
    {
      "inputs": [
        {
          "components": [
            {
              "internalType": "bytes32",
              "name": "x",
              "type": "bytes32"
            },
            {
              "internalType": "bytes32",
              "name": "y",
              "type": "bytes32"
            }
          ],
          "internalType": "struct Utils.G1Point",
          "name": "y",
          "type": "tuple"
        },
        {
          "internalType": "uint256",
          "name": "c",
          "type": "uint256"
        },
        {
          "internalType": "uint256",
          "name": "s",
          "type": "uint256"
        }
      ],
      "name": "register",
      "outputs": [],
      "stateMutability": "nonpayable",
      "type": "function"
    },
    {
      "inputs": [
        {
          "internalType": "bytes32",
          "name": "yHash",
          "type": "bytes32"
        }
      ],
      "name": "registered",
      "outputs": [
        {
          "internalType": "bool",
          "name": "",
          "type": "bool"
        }
      ],
      "stateMutability": "view",
      "type": "function"
    },
    {
      "inputs": [],
      "name": "round_base",
      "outputs": [
        {
          "internalType": "uint256",
          "name": "",
          "type": "uint256"
        }
      ],
      "stateMutability": "view",
      "type": "function"
    },
    {
      "inputs": [],
      "name": "round_len",
      "outputs": [
        {
          "internalType": "uint256",
          "name": "",
          "type": "uint256"
        }
      ],
      "stateMutability": "view",
      "type": "function"
    },
    {
      "inputs": [
        {
          "internalType": "address payable",
          "name": "_beldex_agency",
          "type": "address"
        }
      ],
      "name": "setBeldexAgency",
      "outputs": [],
      "stateMutability": "nonpayable",
      "type": "function"
    },
    {
      "inputs": [
        {
          "internalType": "uint256",
          "name": "numerator",
          "type": "uint256"
        },
        {
          "internalType": "uint256",
          "name": "denominator",
          "type": "uint256"
        }
      ],
      "name": "setRedeemFeeStrategy",
      "outputs": [],
      "stateMutability": "nonpayable",
      "type": "function"
    },
    {
      "inputs": [
        {
          "internalType": "uint256",
          "name": "_round_base",
          "type": "uint256"
        }
      ],
      "name": "setRoundBase",
      "outputs": [],
      "stateMutability": "nonpayable",
      "type": "function"
    },
    {
      "inputs": [
        {
          "internalType": "uint256",
          "name": "_round_len",
          "type": "uint256"
        }
      ],
      "name": "setRoundLen",
      "outputs": [],
      "stateMutability": "nonpayable",
      "type": "function"
    },
    {
      "inputs": [
        {
          "internalType": "uint256",
          "name": "numerator",
          "type": "uint256"
        },
        {
          "internalType": "uint256",
          "name": "denominator",
          "type": "uint256"
        }
      ],
      "name": "setTransferFeeStrategy",
      "outputs": [],
      "stateMutability": "nonpayable",
      "type": "function"
    },
    {
      "inputs": [
        {
          "internalType": "uint256",
          "name": "_unit",
          "type": "uint256"
        }
      ],
      "name": "setUnit",
      "outputs": [],
      "stateMutability": "nonpayable",
      "type": "function"
    },
    {
      "inputs": [],
      "name": "transfer_fee_denominator",
      "outputs": [
        {
          "internalType": "uint256",
          "name": "",
          "type": "uint256"
        }
      ],
      "stateMutability": "view",
      "type": "function"
    },
    {
      "inputs": [],
      "name": "transfer_fee_log",
      "outputs": [
        {
          "internalType": "uint256",
          "name": "",
          "type": "uint256"
        }
      ],
      "stateMutability": "view",
      "type": "function"
    },
    {
      "inputs": [],
      "name": "transfer_fee_numerator",
      "outputs": [
        {
          "internalType": "uint256",
          "name": "",
          "type": "uint256"
        }
      ],
      "stateMutability": "view",
      "type": "function"
    },
    {
      "inputs": [],
      "name": "unit",
      "outputs": [
        {
          "internalType": "uint256",
          "name": "",
          "type": "uint256"
        }
      ],
      "stateMutability": "view",
      "type": "function"
    },
    {
      "inputs": [],
      "name": "users_log",
      "outputs": [
        {
          "internalType": "uint256",
          "name": "",
          "type": "uint256"
        }
      ],
      "stateMutability": "view",
      "type": "function"
    },
    {
      "inputs": [
        {
          "components": [
            {
              "internalType": "bytes32",
              "name": "x",
              "type": "bytes32"
            },
            {
              "internalType": "bytes32",
              "name": "y",
              "type": "bytes32"
            }
          ],
          "internalType": "struct Utils.G1Point",
          "name": "y",
          "type": "tuple"
        },
        {
          "internalType": "uint256",
          "name": "unitAmount",
          "type": "uint256"
        },
        {
          "internalType": "bytes",
          "name": "encGuess",
          "type": "bytes"
        }
      ],
      "name": "mint",
      "outputs": [],
      "stateMutability": "payable",
      "type": "function"
    },
    {
      "inputs": [
        {
          "components": [
            {
              "internalType": "bytes32",
              "name": "x",
              "type": "bytes32"
            },
            {
              "internalType": "bytes32",
              "name": "y",
              "type": "bytes32"
            }
          ],
          "internalType": "struct Utils.G1Point",
          "name": "y",
          "type": "tuple"
        },
        {
          "internalType": "uint256",
          "name": "unitAmount",
          "type": "uint256"
        },
        {
          "components": [
            {
              "internalType": "bytes32",
              "name": "x",
              "type": "bytes32"
            },
            {
              "internalType": "bytes32",
              "name": "y",
              "type": "bytes32"
            }
          ],
          "internalType": "struct Utils.G1Point",
          "name": "u",
          "type": "tuple"
        },
        {
          "internalType": "bytes",
          "name": "proof",
          "type": "bytes"
        },
        {
          "internalType": "bytes",
          "name": "encGuess",
          "type": "bytes"
        }
      ],
      "name": "redeem",
      "outputs": [],
      "stateMutability": "nonpayable",
      "type": "function"
    },
    {
      "inputs": [
        {
          "components": [
            {
              "internalType": "bytes32",
              "name": "x",
              "type": "bytes32"
            },
            {
              "internalType": "bytes32",
              "name": "y",
              "type": "bytes32"
            }
          ],
          "internalType": "struct Utils.G1Point[]",
          "name": "C",
          "type": "tuple[]"
        },
        {
          "components": [
            {
              "internalType": "bytes32",
              "name": "x",
              "type": "bytes32"
            },
            {
              "internalType": "bytes32",
              "name": "y",
              "type": "bytes32"
            }
          ],
          "internalType": "struct Utils.G1Point",
          "name": "D",
          "type": "tuple"
        },
        {
          "components": [
            {
              "internalType": "bytes32",
              "name": "x",
              "type": "bytes32"
            },
            {
              "internalType": "bytes32",
              "name": "y",
              "type": "bytes32"
            }
          ],
          "internalType": "struct Utils.G1Point[]",
          "name": "y",
          "type": "tuple[]"
        },
        {
          "components": [
            {
              "internalType": "bytes32",
              "name": "x",
              "type": "bytes32"
            },
            {
              "internalType": "bytes32",
              "name": "y",
              "type": "bytes32"
            }
          ],
          "internalType": "struct Utils.G1Point",
          "name": "u",
          "type": "tuple"
        },
        {
          "internalType": "bytes",
          "name": "proof",
          "type": "bytes"
        }
      ],
      "name": "transfer",
      "outputs": [],
      "stateMutability": "nonpayable",
      "type": "function"
    }
  ],
  "bytecode": "0x60806040526064600155600060025560016004556064600555600160065560056007556000600a556000600b556000600c556000600d556000600e556000600f5560006014553480156200005257600080fd5b50604051620054373803806200543783398181016040528101906200007891906200017f565b82828233600360006101000a81548173ffffffffffffffffffffffffffffffffffffffff021916908373ffffffffffffffffffffffffffffffffffffffff16021790555082600860006101000a81548173ffffffffffffffffffffffffffffffffffffffff021916908373ffffffffffffffffffffffffffffffffffffffff16021790555081600960006101000a81548173ffffffffffffffffffffffffffffffffffffffff021916908373ffffffffffffffffffffffffffffffffffffffff1602179055508060008190555050505050505062000247565b600081519050620001628162000213565b92915050565b60008151905062000179816200022d565b92915050565b6000806000606084860312156200019557600080fd5b6000620001a58682870162000151565b9350506020620001b88682870162000151565b9250506040620001cb8682870162000168565b9150509250925092565b6000620001e282620001e9565b9050919050565b600073ffffffffffffffffffffffffffffffffffffffff82169050919050565b6000819050919050565b6200021e81620001d5565b81146200022a57600080fd5b50565b620002388162000209565b81146200024457600080fd5b50565b6151e080620002576000396000f3fe6080604052600436106101d85760003560e01c806384f9b07a11610102578063b47e51d711610095578063dcfa1e5d11610064578063dcfa1e5d146106a4578063ddf911da146106cf578063eff4d178146106fa578063f487e95214610723576101d8565b8063b47e51d7146105f8578063b5753dee14610623578063d49d51811461064e578063d90d3a5814610679576101d8565b80639b0d85d3116100d15780639b0d85d31461052b578063a568ce5114610554578063a9b05a5614610592578063aae07890146105cf576101d8565b806384f9b07a146104815780638ad747e0146104ac578063907af6c0146104d757806397fc6f2314610502576101d8565b80635524d5481161017a5780637207f20e116101495780637207f20e146103db57806375236e3f14610404578063767b7d851461042f5780637b5b3b9f14610458576101d8565b80635524d5481461031d578063566a8e621461035a57806362c4d3a31461038557806363bb012c146103b0576101d8565b806328111120116101b657806328111120146102705780632a6b024b1461029b5780634301a344146102b75780634ad729e0146102f4576101d8565b8063019cc41f146101dd5780630221c7171461021a5780631522dd3b14610245575b600080fd5b3480156101e957600080fd5b5061020460048036038101906101ff91906134e0565b61074c565b604051610211919061496f565b60405180910390f35b34801561022657600080fd5b5061022f6109d6565b60405161023c9190614e2d565b60405180910390f35b34801561025157600080fd5b5061025a6109dc565b604051610267919061491d565b60405180910390f35b34801561027c57600080fd5b50610285610a02565b6040516102929190614e2d565b60405180910390f35b6102b560048036038101906102b0919061365b565b610a08565b005b3480156102c357600080fd5b506102de60048036038101906102d99190613609565b610a68565b6040516102eb9190614e2d565b60405180910390f35b34801561030057600080fd5b5061031b600480360381019061031691906136c2565b610a80565b005b34801561032957600080fd5b50610344600480360381019061033f9190613609565b610ae9565b6040516103519190614a69565b60405180910390f35b34801561036657600080fd5b5061036f610cea565b60405161037c9190614e2d565b60405180910390f35b34801561039157600080fd5b5061039a610cf0565b6040516103a79190614e2d565b60405180910390f35b3480156103bc57600080fd5b506103c5610cf6565b6040516103d29190614e2d565b60405180910390f35b3480156103e757600080fd5b5061040260048036038101906103fd91906138ce565b610cfc565b005b34801561041057600080fd5b50610419610d9e565b6040516104269190614e2d565b60405180910390f35b34801561043b57600080fd5b50610456600480360381019061045191906138a5565b610da4565b005b34801561046457600080fd5b5061047f600480360381019061047a91906138a5565b610e5c565b005b34801561048d57600080fd5b50610496610ef6565b6040516104a39190614e2d565b60405180910390f35b3480156104b857600080fd5b506104c1610efc565b6040516104ce9190614e2d565b60405180910390f35b3480156104e357600080fd5b506104ec610f02565b6040516104f99190614e2d565b60405180910390f35b34801561050e57600080fd5b50610529600480360381019061052491906134b7565b610f08565b005b34801561053757600080fd5b50610552600480360381019061054d9190613769565b610fdc565b005b34801561056057600080fd5b5061057b60048036038101906105769190613632565b6111a7565b604051610589929190614991565b60405180910390f35b34801561059e57600080fd5b506105b960048036038101906105b49190613632565b6112c0565b6040516105c69190614a84565b60405180910390f35b3480156105db57600080fd5b506105f660048036038101906105f191906138a5565b6113a1565b005b34801561060457600080fd5b5061060d61143b565b60405161061a9190614e2d565b60405180910390f35b34801561062f57600080fd5b50610638611441565b6040516106459190614e2d565b60405180910390f35b34801561065a57600080fd5b50610663611447565b6040516106709190614e2d565b60405180910390f35b34801561068557600080fd5b5061068e61144f565b60405161069b9190614e2d565b60405180910390f35b3480156106b057600080fd5b506106b9611455565b6040516106c69190614e2d565b60405180910390f35b3480156106db57600080fd5b506106e461145b565b6040516106f19190614e2d565b60405180910390f35b34801561070657600080fd5b50610721600480360381019061071c9190613521565b611461565b005b34801561072f57600080fd5b5061074a600480360381019061074591906138ce565b611b4a565b005b60606000825190508067ffffffffffffffff8111801561076b57600080fd5b506040519080825280602002602001820160405280156107a557816020015b6107926128e5565b81526020019060019003908161078a5790505b50915060005b818110156109cf5760008482815181106107c157fe5b60200260200101516040516020016107d99190614d46565b60405160208183030381529060405280519060200120905060106000828152602001908152602001600020600280602002604051908101604052809291906000905b8282101561085757838260020201604051806040016040529081600082015481526020016001820154815250508152602001906001019061081b565b5050505084838151811061086757fe5b6020026020010181905250600060116000838152602001908152602001600020600280602002604051908101604052809291906000905b828210156108da57838260020201604051806040016040529081600082015481526020016001820154815250508152602001906001019061089e565b505050509050610928816000600281106108f057fe5b602002015186858151811061090157fe5b602002602001015160006002811061091557fe5b6020020151611bec90919063ffffffff16565b85848151811061093457fe5b602002602001015160006002811061094857fe5b60200201819052506109988160016002811061096057fe5b602002015186858151811061097157fe5b602002602001015160016002811061098557fe5b6020020151611bec90919063ffffffff16565b8584815181106109a457fe5b60200260200101516001600281106109b857fe5b6020020181905250505080806001019150506107ab565b5050919050565b60015481565b600360009054906101000a900473ffffffffffffffffffffffffffffffffffffffff1681565b600f5481565b6000610a1334611c30565b9050808314610a57576040517f08c379a0000000000000000000000000000000000000000000000000000000008152600401610a4e90614b46565b60405180910390fd5b610a62848484611ceb565b50505050565b60126020528060005260406000206000915090505481565b6000610a8b85611ed1565b9050610a9a8686868686611f33565b3373ffffffffffffffffffffffffffffffffffffffff166108fc829081150290604051600060405180830381858888f19350505050158015610ae0573d6000803e3d6000fd5b50505050505050565b60008060405180604001604052806000801b81526020016000801b81525090506000604051806040016040528060106000878152602001908152602001600020600280602002604051908101604052809291906000905b82821015610b7c578382600202016040518060400160405290816000820154815260200160018201548152505081526020019060010190610b40565b50505050815260200160116000878152602001908152602001600020600280602002604051908101604052809291906000905b82821015610beb578382600202016040518060400160405290816000820154815260200160018201548152505081526020019060010190610baf565b505050508152509050610c298282600060028110610c0557fe5b6020020151600060028110610c1657fe5b60200201516124db90919063ffffffff16565b8015610c665750610c658282600060028110610c4157fe5b6020020151600160028110610c5257fe5b60200201516124db90919063ffffffff16565b5b8015610ca35750610ca28282600160028110610c7e57fe5b6020020151600060028110610c8f57fe5b60200201516124db90919063ffffffff16565b5b8015610ce05750610cdf8282600160028110610cbb57fe5b6020020151600160028110610ccc57fe5b60200201516124db90919063ffffffff16565b5b1592505050919050565b60145481565b600e5481565b600a5481565b600360009054906101000a900473ffffffffffffffffffffffffffffffffffffffff1673ffffffffffffffffffffffffffffffffffffffff163373ffffffffffffffffffffffffffffffffffffffff1614610d8c576040517f08c379a0000000000000000000000000000000000000000000000000000000008152600401610d8390614c86565b60405180910390fd5b81600681905550806007819055505050565b600d5481565b600360009054906101000a900473ffffffffffffffffffffffffffffffffffffffff1673ffffffffffffffffffffffffffffffffffffffff163373ffffffffffffffffffffffffffffffffffffffff1614610e34576040517f08c379a0000000000000000000000000000000000000000000000000000000008152600401610e2b90614ce6565b60405180910390fd5b80600181905550804381610e4457fe5b0460148190555060136000610e599190612912565b50565b600360009054906101000a900473ffffffffffffffffffffffffffffffffffffffff1673ffffffffffffffffffffffffffffffffffffffff163373ffffffffffffffffffffffffffffffffffffffff1614610eec576040517f08c379a0000000000000000000000000000000000000000000000000000000008152600401610ee390614aa6565b60405180910390fd5b8060028190555050565b600b5481565b60025481565b60005481565b600360009054906101000a900473ffffffffffffffffffffffffffffffffffffffff1673ffffffffffffffffffffffffffffffffffffffff163373ffffffffffffffffffffffffffffffffffffffff1614610f98576040517f08c379a0000000000000000000000000000000000000000000000000000000008152600401610f8f90614ac6565b60405180910390fd5b80600360006101000a81548173ffffffffffffffffffffffffffffffffffffffff021916908373ffffffffffffffffffffffffffffffffffffffff16021790555050565b6000611024610ffc610fed85612503565b8661252f90919063ffffffff16565b61101684611008612568565b61252f90919063ffffffff16565b611bec90919063ffffffff16565b9050600061105e30868460405160200161104093929190614938565b6040516020818303038152906040528051906020012060001c6125d0565b90508381146110a2576040517f08c379a000000000000000000000000000000000000000000000000000000000815260040161109990614c26565b60405180910390fd5b6000856040516020016110b59190614d46565b6040516020818303038152906040528051906020012090506110d681610ae9565b15611116576040517f08c379a000000000000000000000000000000000000000000000000000000000815260040161110d90614b26565b60405180910390fd5b856011600083815260200190815260200160002060006002811061113657fe5b600202016000820151816000015560208201518160010155905050611159612568565b6011600083815260200190815260200160002060016002811061117857fe5b6002020160008201518160000155602082015181600101559050506001600b5401600b81905550505050505050565b6111af6128e5565b6111b76128e5565b6000836040516020016111ca9190614d46565b60405160208183030381529060405280519060200120905060106000828152602001908152602001600020600280602002604051908101604052809291906000905b8282101561124857838260020201604051806040016040529081600082015481526020016001820154815250508152602001906001019061120c565b50505050925060116000828152602001908152602001600020600280602002604051908101604052809291906000905b828210156112b4578382600202016040518060400160405290816000820154815260200160018201548152505081526020019060010190611278565b50505050915050915091565b60606000826040516020016112d59190614d46565b604051602081830303815290604052805190602001209050601560008281526020019081526020016000208054600181600116156101000203166002900480601f0160208091040260200160405190810160405280929190818152602001828054600181600116156101000203166002900480156113945780601f1061136957610100808354040283529160200191611394565b820191906000526020600020905b81548152906001019060200180831161137757829003601f168201915b5050505050915050919050565b600360009054906101000a900473ffffffffffffffffffffffffffffffffffffffff1673ffffffffffffffffffffffffffffffffffffffff163373ffffffffffffffffffffffffffffffffffffffff1614611431576040517f08c379a000000000000000000000000000000000000000000000000000000000815260040161142890614c46565b60405180910390fd5b8060008190555050565b600c5481565b60075481565b63ffffffff81565b60065481565b60055481565b60045481565b60008351905060008167ffffffffffffffff8111801561148057600080fd5b506040519080825280602002602001820160405280156114ba57816020015b6114a7612933565b81526020019060019003908161149f5790505b50905060008267ffffffffffffffff811180156114d657600080fd5b5060405190808252806020026020018201604052801561151057816020015b6114fd612933565b8152602001906001900390816114f55790505b50905082885114611556576040517f08c379a000000000000000000000000000000000000000000000000000000000815260040161154d90614be6565b60405180910390fd5b60005b8381101561183157600087828151811061156f57fe5b60200260200101516040516020016115879190614d46565b6040516020818303038152906040528051906020012090506115a881610ae9565b6115e7576040517f08c379a00000000000000000000000000000000000000000000000000000000081526004016115de90614c06565b60405180910390fd5b6115f081612603565b600060116000838152602001908152602001600020600280602002604051908101604052809291906000905b8282101561165857838260020201604051806040016040529081600082015481526020016001820154815250508152602001906001019061161c565b5050505090506116958b848151811061166d57fe5b60200260200101518260006002811061168257fe5b6020020151611bec90919063ffffffff16565b601160008481526020019081526020016000206000600281106116b457fe5b6002020160008201518160000155602082015181600101559050506116f38a826001600281106116e057fe5b6020020151611bec90919063ffffffff16565b6011600084815260200190815260200160002060016002811061171257fe5b60020201600082015181600001556020820151816001015590505060106000838152602001908152602001600020600280602002604051908101604052809291906000905b82821015611793578382600202016040518060400160405290816000820154815260200160018201548152505081526020019060010190611757565b5050505090506117d08b84815181106117a857fe5b6020026020010151826000600281106117bd57fe5b6020020151611bec90919063ffffffff16565b8584815181106117dc57fe5b602002602001018190525061180b8a826001600281106117f857fe5b6020020151611bec90919063ffffffff16565b84848151811061181757fe5b602002602001018190525050508080600101915050611559565b506000856040516020016118459190614d46565b60405160208183030381529060405280519060200120905060005b60138054905081101561187a578080600101915050611860565b5060138190806001815401808255809150506001900390600052602060002001600090919091909150556000600860009054906101000a900473ffffffffffffffffffffffffffffffffffffffff1673ffffffffffffffffffffffffffffffffffffffff16639471ac0a85858d8d8d6014548e6040518863ffffffff1660e01b815260040161190f97969594939291906149dd565b60006040518083038186803b15801561192757600080fd5b505afa15801561193b573d6000803e3d6000fd5b505050506040513d6000823e3d601f19601f820116820180604052508101906119649190613864565b90506000600860009054906101000a900473ffffffffffffffffffffffffffffffffffffffff1673ffffffffffffffffffffffffffffffffffffffff1663f98f0cc9886040518263ffffffff1660e01b81526004016119c39190614a84565b60006040518083038186803b1580156119db57600080fd5b505afa1580156119ef573d6000803e3d6000fd5b505050506040513d6000823e3d601f19601f82011682018060405250810190611a1891906137f9565b9050600860009054906101000a900473ffffffffffffffffffffffffffffffffffffffff1673ffffffffffffffffffffffffffffffffffffffff1663a529878e83836040518363ffffffff1660e01b8152600401611a77929190614df6565b60206040518083038186803b158015611a8f57600080fd5b505afa158015611aa3573d6000803e3d6000fd5b505050506040513d601f19601f82011682018060405250810190611ac791906135e0565b611b06576040517f08c379a0000000000000000000000000000000000000000000000000000000008152600401611afd90614b66565b60405180910390fd5b7f9b814ae8a45a4c40d4c60ffa92e0c4b76dec41407cb28b43df9daffa3685f9ac89604051611b3591906149bb565b60405180910390a15050505050505050505050565b600360009054906101000a900473ffffffffffffffffffffffffffffffffffffffff1673ffffffffffffffffffffffffffffffffffffffff163373ffffffffffffffffffffffffffffffffffffffff1614611bda576040517f08c379a0000000000000000000000000000000000000000000000000000000008152600401611bd190614cc6565b60405180910390fd5b81600481905550806005819055505050565b611bf4612933565b6040518351815260208401516020820152825160408201526020830151606082015260408260808360065afa611c2957600080fd5b5092915050565b6000806000548381611c3e57fe5b0614611c7f576040517f08c379a0000000000000000000000000000000000000000000000000000000008152600401611c7690614bc6565b60405180910390fd5b600080548381611c8b57fe5b04905080600011158015611ca3575063ffffffff8111155b611ce2576040517f08c379a0000000000000000000000000000000000000000000000000000000008152600401611cd990614b06565b60405180910390fd5b80915050919050565b63ffffffff8211158015611d07575063ffffffff82600a540111155b611d46576040517f08c379a0000000000000000000000000000000000000000000000000000000008152600401611d3d90614ae6565b60405180910390fd5b81600a6000828254019250508190555081600e600082825401925050819055506001600f60008282540192505081905550600083604051602001611d8a9190614d46565b604051602081830303815290604052805190602001209050611dab81610ae9565b611dea576040517f08c379a0000000000000000000000000000000000000000000000000000000008152600401611de190614d26565b60405180910390fd5b611df381612603565b600060116000838152602001908152602001600020600060028110611e1457fe5b60020201604051806040016040529081600082015481526020016001820154815250509050611e65611e5685611e48612568565b61252f90919063ffffffff16565b82611bec90919063ffffffff16565b90508060116000848152602001908152602001600020600060028110611e8757fe5b60020201600082015181600001556020820151816001015590505082601560008481526020019081526020016000209080519060200190611ec9929190612953565b505050505050565b600081600011158015611ee8575063ffffffff8211155b611f27576040517f08c379a0000000000000000000000000000000000000000000000000000000008152600401611f1e90614d06565b60405180910390fd5b60005482029050919050565b83600a541015611f78576040517f08c379a0000000000000000000000000000000000000000000000000000000008152600401611f6f90614b86565b60405180910390fd5b83600a60008282540392505081905550600085604051602001611f9b9190614d46565b604051602081830303815290604052805190602001209050611fbc81610ae9565b611ffb576040517f08c379a0000000000000000000000000000000000000000000000000000000008152600401611ff290614ba6565b60405180910390fd5b61200481612603565b600060116000838152602001908152602001600020600280602002604051908101604052809291906000905b8282101561206c578382600202016040518060400160405290816000820154815260200160018201548152505081526020019060010190612030565b5050505090506120b761209761208188612503565b612089612568565b61252f90919063ffffffff16565b826000600281106120a457fe5b6020020151611bec90919063ffffffff16565b601160008481526020019081526020016000206000600281106120d657fe5b60020201600082015181600001556020820151816001015590505060106000838152602001908152602001600020600280602002604051908101604052809291906000905b8282101561215757838260020201604051806040016040529081600082015481526020016001820154815250508152602001906001019061211b565b5050505090506121a261218261216c88612503565b612174612568565b61252f90919063ffffffff16565b8260006002811061218f57fe5b6020020151611bec90919063ffffffff16565b816000600281106121af57fe5b60200201819052506000856040516020016121ca9190614d46565b60405160208183030381529060405280519060200120905060005b6013805490508110156121ff5780806001019150506121e5565b50601381908060018154018082558091505060019003906000526020600020016000909190919091505583601560008581526020019081526020016000209080519060200190612250929190612953565b506000600960009054906101000a900473ffffffffffffffffffffffffffffffffffffffff1673ffffffffffffffffffffffffffffffffffffffff1663bba28e3c8460006002811061229e57fe5b6020020151856001600281106122b057fe5b60200201518c6014548c336040518763ffffffff1660e01b81526004016122dc96959493929190614d61565b6101406040518083038186803b1580156122f557600080fd5b505afa158015612309573d6000803e3d6000fd5b505050506040513d601f19601f8201168201806040525081019061232d919061383a565b90506000600960009054906101000a900473ffffffffffffffffffffffffffffffffffffffff1673ffffffffffffffffffffffffffffffffffffffff1663f98f0cc9886040518263ffffffff1660e01b815260040161238c9190614a84565b60006040518083038186803b1580156123a457600080fd5b505afa1580156123b8573d6000803e3d6000fd5b505050506040513d6000823e3d601f19601f820116820180604052508101906123e191906137b8565b9050600960009054906101000a900473ffffffffffffffffffffffffffffffffffffffff1673ffffffffffffffffffffffffffffffffffffffff1663d039751f83836040518363ffffffff1660e01b8152600401612440929190614dc4565b60206040518083038186803b15801561245857600080fd5b505afa15801561246c573d6000803e3d6000fd5b505050506040513d601f19601f8201168201806040525081019061249091906135e0565b6124cf576040517f08c379a00000000000000000000000000000000000000000000000000000000081526004016124c690614c66565b60405180910390fd5b50505050505050505050565b6000816000015183600001511480156124fb575081602001518360200151145b905092915050565b6000817f30644e72e131a029b85045b68181585d2833e84879b9709143e1f593f0000001039050919050565b612537612933565b604051835181526020840151602082015282604082015260408260608360075afa61256157600080fd5b5092915050565b612570612933565b60405180604001604052807f077da99d806abd13c9f15ece5398525119d11e11e9836b2ee7d23f6159ad87d460001b81526020017f01485efa927f2ad41bff567eec88f32fb0a0f706588b4e41a8d587d008b7f87560001b815250905090565b60007f30644e72e131a029b85045b68181585d2833e84879b9709143e1f593f000000182816125fb57fe5b069050919050565b600080600254141561262257600154438161261a57fe5b04905061267c565b6001600254141561264057600154428161263857fe5b04905061267b565b6040517f08c379a000000000000000000000000000000000000000000000000000000000815260040161267290614ca6565b60405180910390fd5b5b6000604051806040016040528060106000868152602001908152602001600020600280602002604051908101604052809291906000905b828210156126ef5783826002020160405180604001604052908160008201548152602001600182015481525050815260200190600101906126b3565b50505050815260200160116000868152602001908152602001600020600280602002604051908101604052809291906000905b8282101561275e578382600202016040518060400160405290816000820154815260200160018201548152505081526020019060010190612722565b5050505081525090506127be8160016002811061277757fe5b602002015160006002811061278857fe5b60200201518260006002811061279a57fe5b60200201516000600281106127ab57fe5b6020020151611bec90919063ffffffff16565b601060008581526020019081526020016000206000600281106127dd57fe5b60020201600082015181600001556020820151816001015590505061284f8160016002811061280857fe5b602002015160016002811061281957fe5b60200201518260006002811061282b57fe5b602002015160016002811061283c57fe5b6020020151611bec90919063ffffffff16565b6010600085815260200190815260200160002060016002811061286e57fe5b6002020160008201518160000155602082015181600101559050506011600084815260200190815260200160002060006128a891906129e1565b8160126000858152602001908152602001600020819055508160145410156128e05781601481905550601360006128df9190612912565b5b505050565b60405180604001604052806002905b6128fc612933565b8152602001906001900390816128f45790505090565b50805460008255906000526020600020908101906129309190612a0c565b50565b604051806040016040528060008019168152602001600080191681525090565b828054600181600116156101000203166002900490600052602060002090601f01602090048101928261298957600085556129d0565b82601f106129a257805160ff19168380011785556129d0565b828001600101855582156129d0579182015b828111156129cf5782518255916020019190600101906129b4565b5b5090506129dd9190612a29565b5090565b5060008082016000905560018201600090555060020160008082016000905560018201600090555050565b5b80821115612a25576000816000905550600101612a0d565b5090565b5b80821115612a42576000816000905550600101612a2a565b5090565b6000612a59612a5484614e79565b614e48565b90508082856040860282011115612a6f57600080fd5b60005b85811015612a9f5781612a858882612daf565b845260208401935060408301925050600181019050612a72565b5050509392505050565b6000612abc612ab784614e9f565b614e48565b90508083825260208201905082856040860282011115612adb57600080fd5b60005b85811015612b0b5781612af18882612d63565b845260208401935060408301925050600181019050612ade565b5050509392505050565b6000612b28612b2384614e9f565b614e48565b90508083825260208201905082856040860282011115612b4757600080fd5b60005b85811015612b775781612b5d8882612daf565b845260208401935060408301925050600181019050612b4a565b5050509392505050565b6000612b94612b8f84614ecb565b614e48565b90508083825260208201905082856020860282011115612bb357600080fd5b60005b85811015612be35781612bc988826134a2565b845260208401935060208301925050600181019050612bb6565b5050509392505050565b6000612c00612bfb84614ef7565b614e48565b905082815260208101848484011115612c1857600080fd5b612c238482856150e2565b509392505050565b600081519050612c3a81615137565b92915050565b600081359050612c4f8161514e565b92915050565b600082601f830112612c6657600080fd5b6002612c73848285612a46565b91505092915050565b600082601f830112612c8d57600080fd5b8135612c9d848260208601612aa9565b91505092915050565b600082601f830112612cb757600080fd5b8151612cc7848260208601612b15565b91505092915050565b600082601f830112612ce157600080fd5b8151612cf1848260208601612b81565b91505092915050565b600081519050612d0981615165565b92915050565b600081359050612d1e8161517c565b92915050565b600081519050612d338161517c565b92915050565b600082601f830112612d4a57600080fd5b8135612d5a848260208601612bed565b91505092915050565b600060408284031215612d7557600080fd5b612d7f6040614e48565b90506000612d8f84828501612d0f565b6000830152506020612da384828501612d0f565b60208301525092915050565b600060408284031215612dc157600080fd5b612dcb6040614e48565b90506000612ddb84828501612d24565b6000830152506020612def84828501612d24565b60208301525092915050565b600060808284031215612e0d57600080fd5b612e176080614e48565b9050600082015167ffffffffffffffff811115612e3357600080fd5b612e3f84828501612ca6565b600083015250602082015167ffffffffffffffff811115612e5f57600080fd5b612e6b84828501612ca6565b6020830152506040612e7f848285016134a2565b6040830152506060612e93848285016134a2565b60608301525092915050565b60006101e08284031215612eb257600080fd5b612ebd610140614e48565b90506000612ecd84828501612daf565b6000830152506040612ee184828501612daf565b6020830152506080612ef584828501612c55565b604083015250610100612f0a848285016134a2565b606083015250610120612f1f848285016134a2565b608083015250610140612f34848285016134a2565b60a083015250610160612f49848285016134a2565b60c083015250610180612f5e848285016134a2565b60e0830152506101a0612f73848285016134a2565b610100830152506101c082015167ffffffffffffffff811115612f9557600080fd5b612fa184828501612dfb565b6101208301525092915050565b60006104008284031215612fc157600080fd5b612fcc610320614e48565b90506000612fdc84828501612daf565b6000830152506040612ff084828501612daf565b602083015250608061300484828501612daf565b60408301525060c061301884828501612daf565b60608301525061010082015167ffffffffffffffff81111561303957600080fd5b61304584828501612ca6565b60808301525061012082015167ffffffffffffffff81111561306657600080fd5b61307284828501612ca6565b60a08301525061014082015167ffffffffffffffff81111561309357600080fd5b61309f84828501612ca6565b60c08301525061016082015167ffffffffffffffff8111156130c057600080fd5b6130cc84828501612ca6565b60e08301525061018082015167ffffffffffffffff8111156130ed57600080fd5b6130f984828501612ca6565b610100830152506101a082015167ffffffffffffffff81111561311b57600080fd5b61312784828501612ca6565b610120830152506101c082015167ffffffffffffffff81111561314957600080fd5b61315584828501612ca6565b610140830152506101e082015167ffffffffffffffff81111561317757600080fd5b61318384828501612ca6565b6101608301525061020082015167ffffffffffffffff8111156131a557600080fd5b6131b184828501612cd0565b610180830152506102206131c7848285016134a2565b6101a0830152506102406131dd848285016134a2565b6101c0830152506102606131f3848285016134a2565b6101e08301525061028061320984828501612c55565b6102008301525061030061321f848285016134a2565b61022083015250610320613235848285016134a2565b6102408301525061034061324b848285016134a2565b61026083015250610360613261848285016134a2565b61028083015250610380613277848285016134a2565b6102a0830152506103a061328d848285016134a2565b6102c0830152506103c06132a3848285016134a2565b6102e0830152506103e082015167ffffffffffffffff8111156132c557600080fd5b6132d184828501612dfb565b6103008301525092915050565b600061014082840312156132f157600080fd5b6132fb60c0614e48565b9050600061330b84828501612daf565b600083015250604061331f84828501612daf565b602083015250608061333384828501612daf565b60408301525060c0613347848285016134a2565b60608301525060e061335b84828501612daf565b60808301525061012061337084828501612c2b565b60a08301525092915050565b6000610120828403121561338f57600080fd5b61339960e0614e48565b9050600082015167ffffffffffffffff8111156133b557600080fd5b6133c184828501612ca6565b600083015250602082015167ffffffffffffffff8111156133e157600080fd5b6133ed84828501612ca6565b602083015250604082015167ffffffffffffffff81111561340d57600080fd5b61341984828501612ca6565b604083015250606061342d84828501612daf565b60608301525060a082015167ffffffffffffffff81111561344d57600080fd5b61345984828501612ca6565b60808301525060c061346d848285016134a2565b60a08301525060e061348184828501612daf565b60c08301525092915050565b60008135905061349c81615193565b92915050565b6000815190506134b181615193565b92915050565b6000602082840312156134c957600080fd5b60006134d784828501612c40565b91505092915050565b6000602082840312156134f257600080fd5b600082013567ffffffffffffffff81111561350c57600080fd5b61351884828501612c7c565b91505092915050565b600080600080600060e0868803121561353957600080fd5b600086013567ffffffffffffffff81111561355357600080fd5b61355f88828901612c7c565b955050602061357088828901612d63565b945050606086013567ffffffffffffffff81111561358d57600080fd5b61359988828901612c7c565b93505060806135aa88828901612d63565b92505060c086013567ffffffffffffffff8111156135c757600080fd5b6135d388828901612d39565b9150509295509295909350565b6000602082840312156135f257600080fd5b600061360084828501612cfa565b91505092915050565b60006020828403121561361b57600080fd5b600061362984828501612d0f565b91505092915050565b60006040828403121561364457600080fd5b600061365284828501612d63565b91505092915050565b60008060006080848603121561367057600080fd5b600061367e86828701612d63565b935050604061368f8682870161348d565b925050606084013567ffffffffffffffff8111156136ac57600080fd5b6136b886828701612d39565b9150509250925092565b600080600080600060e086880312156136da57600080fd5b60006136e888828901612d63565b95505060406136f98882890161348d565b945050606061370a88828901612d63565b93505060a086013567ffffffffffffffff81111561372757600080fd5b61373388828901612d39565b92505060c086013567ffffffffffffffff81111561375057600080fd5b61375c88828901612d39565b9150509295509295909350565b60008060006080848603121561377e57600080fd5b600061378c86828701612d63565b935050604061379d8682870161348d565b92505060606137ae8682870161348d565b9150509250925092565b6000602082840312156137ca57600080fd5b600082015167ffffffffffffffff8111156137e457600080fd5b6137f084828501612e9f565b91505092915050565b60006020828403121561380b57600080fd5b600082015167ffffffffffffffff81111561382557600080fd5b61383184828501612fae565b91505092915050565b6000610140828403121561384d57600080fd5b600061385b848285016132de565b91505092915050565b60006020828403121561387657600080fd5b600082015167ffffffffffffffff81111561389057600080fd5b61389c8482850161337c565b91505092915050565b6000602082840312156138b757600080fd5b60006138c58482850161348d565b91505092915050565b600080604083850312156138e157600080fd5b60006138ef8582860161348d565b92505060206139008582860161348d565b9150509250929050565b600061391683836139ec565b60808301905092915050565b600061392e83836143d1565b60408301905092915050565b600061394683836148ff565b60208301905092915050565b61395b816150ac565b82525050565b61396a8161505a565b82525050565b61397981615048565b82525050565b61398881615048565b82525050565b600061399982614f61565b6139a38185614fcc565b93506139ae83614f27565b8060005b838110156139df5781516139c6888261390a565b97506139d183614f98565b9250506001810190506139b2565b5085935050505092915050565b6139f581614f6c565b6139ff8184614fdd565b9250613a0a82614f37565b8060005b83811015613a3b578151613a228782613922565b9650613a2d83614fa5565b925050600181019050613a0e565b505050505050565b613a4c81614f6c565b613a568184614fe8565b9250613a6182614f37565b8060005b83811015613a92578151613a798782613922565b9650613a8483614fa5565b925050600181019050613a65565b505050505050565b6000613aa582614f77565b613aaf8185614ff3565b9350613aba83614f41565b8060005b83811015613aeb578151613ad28882613922565b9750613add83614fb2565b925050600181019050613abe565b5085935050505092915050565b6000613b0382614f77565b613b0d8185615004565b9350613b1883614f41565b8060005b83811015613b49578151613b308882613922565b9750613b3b83614fb2565b925050600181019050613b1c565b5085935050505092915050565b6000613b6182614f82565b613b6b8185615015565b9350613b7683614f51565b8060005b83811015613ba7578151613b8e888261393a565b9750613b9983614fbf565b925050600181019050613b7a565b5085935050505092915050565b613bbd8161506c565b82525050565b613bcc81615078565b82525050565b6000613bdd82614f8d565b613be78185615026565b9350613bf78185602086016150f1565b613c0081615126565b840191505092915050565b6000613c18603483615037565b91507f5065726d697373696f6e2064656e6965643a204f6e6c792061646d696e20636160008301527f6e206368616e676520726f756e6420626173652e0000000000000000000000006020830152604082019050919050565b6000613c7e603083615037565b91507f5065726d697373696f6e2064656e6965643a204f6e6c792061646d696e20636160008301527f6e206368616e6765206167656e63792e000000000000000000000000000000006020830152604082019050919050565b6000613ce4603683615037565b91507f5b42656c646578206d696e745d204d696e742070757368657320636f6e74726160008301527f63742070617374206d6178696d756d2076616c75652e000000000000000000006020830152604082019050919050565b6000613d4a601483615037565b91507f416d6f756e74206f7574206f662072616e67652e0000000000000000000000006000830152602082019050919050565b6000613d8a601b83615037565b91507f4163636f756e7420616c726561647920726567697374657265642100000000006000830152602082019050919050565b6000613dca604683615037565b91507f5b42656c646578206d696e745d20537065636966696564206d696e7420616d6f60008301527f756e74206973206469666665726e65742066726f6d207468652070616964206160208301527f6d6f756e742e00000000000000000000000000000000000000000000000000006040830152606082019050919050565b6000613e56602683615037565b91507f5b42656c646578207472616e736665725d204661696c65643a2076657269666960008301527f636174696f6e00000000000000000000000000000000000000000000000000006020830152604082019050919050565b6000613ebc602e83615037565b91507f5b42656c6465782072656465656d5d204661696c65643a20496e76616c69642060008301527f72656465656d20616d6f756e742e0000000000000000000000000000000000006020830152604082019050919050565b6000613f22602b83615037565b91507f5b42656c6465782072656465656d5d204163636f756e74206e6f74207965742060008301527f726567697374657265642e0000000000000000000000000000000000000000006020830152604082019050919050565b6000613f88602983615037565b91507f4e617469766520616d6f756e74206d757374206265206d756c7469706c65206f60008301527f66206120756e69742e00000000000000000000000000000000000000000000006020830152604082019050919050565b6000613fee602e83615037565b91507f5b42656c646578207472616e736665725d20496e707574206172726179206c6560008301527f6e677468206d69736d61746368210000000000000000000000000000000000006020830152604082019050919050565b6000614054602d83615037565b91507f5b42656c646578207472616e736665725d204163636f756e74206e6f7420796560008301527f7420726567697374657265642e000000000000000000000000000000000000006020830152604082019050919050565b60006140ba601f83615037565b91507f496e76616c696420726567697374726174696f6e207369676e617475726521006000830152602082019050919050565b60006140fa602e83615037565b91507f5065726d697373696f6e2064656e6965643a204f6e6c792061646d696e20636160008301527f6e206368616e676520756e69742e0000000000000000000000000000000000006020830152604082019050919050565b6000614160602583615037565b91507f5b42656c6465782072656465656d5d204661696c65643a20766572696669636160008301527f74696f6e210000000000000000000000000000000000000000000000000000006020830152604082019050919050565b60006141c6603f83615037565b91507f5065726d697373696f6e2064656e6965643a204f6e6c792061646d696e20636160008301527f6e206368616e6765207472616e73666572206665652073747261746567792e006020830152604082019050919050565b600061422c601383615037565b91507f496e76616c696420726f756e6420626173652e000000000000000000000000006000830152602082019050919050565b600061426c603d83615037565b91507f5065726d697373696f6e2064656e6965643a204f6e6c792061646d696e20636160008301527f6e206368616e67652072656465656d206665652073747261746567792e0000006020830152604082019050919050565b60006142d2603683615037565b91507f5065726d697373696f6e2064656e6965643a204f6e6c792061646d696e20636160008301527f6e206368616e676520726f756e64206c656e6774682e000000000000000000006020830152604082019050919050565b6000614338601383615037565b91507f416d6f756e74206f7574206f662072616e6765000000000000000000000000006000830152602082019050919050565b6000614378602983615037565b91507f5b42656c646578206d696e745d204163636f756e74206e6f742079657420726560008301527f67697374657265642e00000000000000000000000000000000000000000000006020830152604082019050919050565b6040820160008201516143e76000850182613bc3565b5060208201516143fa6020850182613bc3565b50505050565b6040820160008201516144166000850182613bc3565b5060208201516144296020850182613bc3565b50505050565b6000608083016000830151848203600086015261444c8282613a9a565b915050602083015184820360208601526144668282613a9a565b915050604083015161447b60408601826148ff565b50606083015161448e60608601826148ff565b508091505092915050565b60006101e0830160008301516144b260008601826143d1565b5060208301516144c560408601826143d1565b5060408301516144d860808601826139ec565b5060608301516144ec6101008601826148ff565b5060808301516145006101208601826148ff565b5060a08301516145146101408601826148ff565b5060c08301516145286101608601826148ff565b5060e083015161453c6101808601826148ff565b506101008301516145516101a08601826148ff565b506101208301518482036101c086015261456b828261442f565b9150508091505092915050565b60006104008301600083015161459160008601826143d1565b5060208301516145a460408601826143d1565b5060408301516145b760808601826143d1565b5060608301516145ca60c08601826143d1565b5060808301518482036101008601526145e38282613a9a565b91505060a08301518482036101208601526145fe8282613a9a565b91505060c08301518482036101408601526146198282613a9a565b91505060e08301518482036101608601526146348282613a9a565b9150506101008301518482036101808601526146508282613a9a565b9150506101208301518482036101a086015261466c8282613a9a565b9150506101408301518482036101c08601526146888282613a9a565b9150506101608301518482036101e08601526146a48282613a9a565b9150506101808301518482036102008601526146c08282613b56565b9150506101a08301516146d76102208601826148ff565b506101c08301516146ec6102408601826148ff565b506101e08301516147016102608601826148ff565b506102008301516147166102808601826139ec565b5061022083015161472b6103008601826148ff565b506102408301516147406103208601826148ff565b506102608301516147556103408601826148ff565b5061028083015161476a6103608601826148ff565b506102a083015161477f6103808601826148ff565b506102c08301516147946103a08601826148ff565b506102e08301516147a96103c08601826148ff565b506103008301518482036103e08601526147c3828261442f565b9150508091505092915050565b610140820160008201516147e760008501826143d1565b5060208201516147fa60408501826143d1565b50604082015161480d60808501826143d1565b50606082015161482060c08501826148ff565b50608082015161483360e08501826143d1565b5060a0820151614847610120850182613970565b50505050565b600061012083016000830151848203600086015261486b8282613a9a565b915050602083015184820360208601526148858282613a9a565b9150506040830151848203604086015261489f8282613a9a565b91505060608301516148b460608601826143d1565b50608083015184820360a08601526148cc8282613a9a565b91505060a08301516148e160c08601826148ff565b5060c08301516148f460e08601826143d1565b508091505092915050565b614908816150a2565b82525050565b614917816150a2565b82525050565b60006020820190506149326000830184613961565b92915050565b600060a08201905061494d600083018661397f565b61495a6020830185614400565b6149676060830184614400565b949350505050565b60006020820190508181036000830152614989818461398e565b905092915050565b6000610100820190506149a76000830185613a43565b6149b46080830184613a43565b9392505050565b600060208201905081810360008301526149d58184613af8565b905092915050565b60006101208201905081810360008301526149f8818a613af8565b90508181036020830152614a0c8189613af8565b90508181036040830152614a208188613af8565b9050614a2f6060830187614400565b81810360a0830152614a418186613af8565b9050614a5060c083018561490e565b614a5d60e0830184614400565b98975050505050505050565b6000602082019050614a7e6000830184613bb4565b92915050565b60006020820190508181036000830152614a9e8184613bd2565b905092915050565b60006020820190508181036000830152614abf81613c0b565b9050919050565b60006020820190508181036000830152614adf81613c71565b9050919050565b60006020820190508181036000830152614aff81613cd7565b9050919050565b60006020820190508181036000830152614b1f81613d3d565b9050919050565b60006020820190508181036000830152614b3f81613d7d565b9050919050565b60006020820190508181036000830152614b5f81613dbd565b9050919050565b60006020820190508181036000830152614b7f81613e49565b9050919050565b60006020820190508181036000830152614b9f81613eaf565b9050919050565b60006020820190508181036000830152614bbf81613f15565b9050919050565b60006020820190508181036000830152614bdf81613f7b565b9050919050565b60006020820190508181036000830152614bff81613fe1565b9050919050565b60006020820190508181036000830152614c1f81614047565b9050919050565b60006020820190508181036000830152614c3f816140ad565b9050919050565b60006020820190508181036000830152614c5f816140ed565b9050919050565b60006020820190508181036000830152614c7f81614153565b9050919050565b60006020820190508181036000830152614c9f816141b9565b9050919050565b60006020820190508181036000830152614cbf8161421f565b9050919050565b60006020820190508181036000830152614cdf8161425f565b9050919050565b60006020820190508181036000830152614cff816142c5565b9050919050565b60006020820190508181036000830152614d1f8161432b565b9050919050565b60006020820190508181036000830152614d3f8161436b565b9050919050565b6000604082019050614d5b6000830184614400565b92915050565b600061014082019050614d776000830189614400565b614d846040830188614400565b614d916080830187614400565b614d9e60c083018661490e565b614dab60e0830185614400565b614db9610120830184613952565b979650505050505050565b600061016082019050614dda60008301856147d0565b818103610140830152614ded8184614499565b90509392505050565b60006040820190508181036000830152614e10818561484d565b90508181036020830152614e248184614578565b90509392505050565b6000602082019050614e42600083018461490e565b92915050565b6000604051905081810181811067ffffffffffffffff82111715614e6f57614e6e615124565b5b8060405250919050565b600067ffffffffffffffff821115614e9457614e93615124565b5b602082029050919050565b600067ffffffffffffffff821115614eba57614eb9615124565b5b602082029050602081019050919050565b600067ffffffffffffffff821115614ee657614ee5615124565b5b602082029050602081019050919050565b600067ffffffffffffffff821115614f1257614f11615124565b5b601f19601f8301169050602081019050919050565b6000819050602082019050919050565b6000819050919050565b6000819050602082019050919050565b6000819050602082019050919050565b600081519050919050565b600060029050919050565b600081519050919050565b600081519050919050565b600081519050919050565b6000602082019050919050565b6000602082019050919050565b6000602082019050919050565b6000602082019050919050565b600082825260208201905092915050565b600081905092915050565b600081905092915050565b600082825260208201905092915050565b600082825260208201905092915050565b600082825260208201905092915050565b600082825260208201905092915050565b600082825260208201905092915050565b600061505382615082565b9050919050565b600061506582615082565b9050919050565b60008115159050919050565b6000819050919050565b600073ffffffffffffffffffffffffffffffffffffffff82169050919050565b6000819050919050565b60006150b7826150be565b9050919050565b60006150c9826150d0565b9050919050565b60006150db82615082565b9050919050565b82818337600083830152505050565b60005b8381101561510f5780820151818401526020810190506150f4565b8381111561511e576000848401525b50505050565bfe5b6000601f19601f8301169050919050565b61514081615048565b811461514b57600080fd5b50565b6151578161505a565b811461516257600080fd5b50565b61516e8161506c565b811461517957600080fd5b50565b61518581615078565b811461519057600080fd5b50565b61519c816150a2565b81146151a757600080fd5b5056fea2646970667358221220f0c7f641fb7b245576ac0b4e794f58e1c748cc4463c77bbff083f5a83b3f9d4364736f6c63430007060033",
  "immutableReferences": {},
  "source": "// SPDX-License-Identifier: MIT\npragma solidity 0.7.6;\npragma experimental ABIEncoderV2;\n\nimport \"./Utils.sol\";\nimport \"./BeldexBase.sol\";\n\ncontract BeldexETH is BeldexBase {\n    using Utils for uint256;\n    using Utils for Utils.G1Point;\n\n    constructor(address _transfer, address _redeem, uint256 _unit) BeldexBase(_transfer, _redeem, _unit) {\n    }\n\n    function mint(Utils.G1Point memory y, uint256 unitAmount, bytes memory encGuess) public payable {\n        uint256 mUnitAmount = toUnitAmount(msg.value);\n        require(unitAmount == mUnitAmount, \"[Beldex mint] Specified mint amount is differnet from the paid amount.\");\n\n        mintBase(y, unitAmount, encGuess);\n    }\n\n    function redeem(Utils.G1Point memory y, uint256 unitAmount, Utils.G1Point memory u, bytes memory proof, bytes memory encGuess) public {\n        uint256 nativeAmount = toNativeAmount(unitAmount);\n        redeemBase(y, unitAmount, u, proof, encGuess);\n        msg.sender.transfer(nativeAmount);\n    }\n\n    function transfer(Utils.G1Point[] memory C, Utils.G1Point memory D, \n                      Utils.G1Point[] memory y, Utils.G1Point memory u, \n                      bytes memory proof) public {\n\n        // TODO: check that sender and receiver should NOT be equal.\n        uint256 size = y.length;\n        Utils.G1Point[] memory CLn = new Utils.G1Point[](size);\n        Utils.G1Point[] memory CRn = new Utils.G1Point[](size);\n        require(C.length == size, \"[Beldex transfer] Input array length mismatch!\");\n\n\n        for (uint256 i = 0; i < size; i++) {\n            bytes32 yHash = keccak256(abi.encode(y[i]));\n            require(registered(yHash), \"[Beldex transfer] Account not yet registered.\");\n            rollOver(yHash);\n            Utils.G1Point[2] memory scratch = pending[yHash];\n            pending[yHash][0] = scratch[0].pAdd(C[i]);\n            pending[yHash][1] = scratch[1].pAdd(D);\n\n            scratch = acc[yHash];\n            CLn[i] = scratch[0].pAdd(C[i]);\n            CRn[i] = scratch[1].pAdd(D);\n        }\n\n        bytes32 uHash = keccak256(abi.encode(u));\n        for (uint256 i = 0; i < nonce_set.length; i++) {\n            // require(nonce_set[i] != uHash, \"[Beldex transfer] Nonce already seen!\");\n        }\n        nonce_set.push(uHash);\n\n        BeldexTransfer.Statement memory beldex_stm = beldex_transfer.wrapStatement(CLn, CRn, C, D, y, last_global_update, u);\n        BeldexTransfer.Proof memory beldex_proof = beldex_transfer.unserialize(proof);\n\n        require(beldex_transfer.verify(beldex_stm, beldex_proof), \"[Beldex transfer] Failed: verification\");\n\n        emit TransferOccurred(y);\n    }\n\n}",
  "sourcePath": "/Users/apple/Documents/beldex-project/privacy-protocol/beldex-protocol-update/contracts/BeldexETH.sol",
  "compiler": {
    "name": "solc",
    "version": "0.7.6+commit.7338295f.Emscripten.clang"
  },
  "schemaVersion": "3.4.16",
  "updatedAt": "2024-03-25T14:51:50.164Z",
  "devdoc": {
    "kind": "dev",
    "methods": {},
    "version": 1
  },
  "userdoc": {
    "kind": "user",
    "methods": {},
    "version": 1
  }
}